:020000040020DA
:10200000A05600208D222000E3652000E16520001D
:10201000E1652000E1652000E1652000000000008E
:10202000000000000000000000000000E16520004A
:10203000E165200000000000E1652000D1292000BA
:102040005F662000656620006B66200071662000D8
:10205000000000004366200049662000E165200082
:10206000E16520000000000000000000000000000A
:102070000000000000000000E165200000000000FA
:102080000000000000000000E1652000E165200084
:10209000E1652000E1652000E1652000E1652000A8
:1020A000E1652000E1652000E1652000E165200098
:1020B000E1652000E1652000E1652000E165200088
:1020C000E1652000E1652000E1652000E165200078
:1020D000E16520000000000000000000000000009A
:1020E00000000000000000000000000000000000F0
:1020F00000000000000000005D3C20006D3C20005E
:1021000000000000000000000000000000000000CF
:1021100000000000000000000000000000000000BF
:1021200000000000000000000000000000000000AF
:10213000000000000000000000000000000000009F
:10214000000000000000000000000000000000008F
:10215000000000000000000000000000000000007F
:10216000000000000000000000000000000000006F
:10217000000000000000000000000000000000005F
:10218000000000000000000000000000000000004F
:10219000000000000000000000000000000000003F
:1021A000000000000000000000000000000000002F
:1021B000000000000000000000000000000000001F
:1021C000000000000000000000000000000000000F
:1021D00000000000000000000000000000000000FF
:1021E00000000000000000000000000000000000EF
:1021F00000000000000000000000000000000000DF
:1022000000000000000000000000000000000000CE
:1022100000000000000000000000000000000000BE
:1022200000000000000000000000000000000000AE
:10223000000000000000000000000000000000009E
:10224000000000000000000000000000000000008E
:10225000000000000000000000000000000000007E
:10226000000000000000000000000000000000006E
:10227000E1652000D53A20002D3B20009930200058
:10228000E93E20009D2A2000E165200008B5094BA9
:10229000FF221A600848094A4824E3690849121ACB
:1022A00098470848084AA3690021121A984700F085
:1022B00071F8FEE7B4200D4040400020F8400020B7
:1022C00074752000F84000209D4E0020812804D025
:1022D000822805D1044B18787047044B1868704762
:1022E0004FF0FF30704700BFB24C002080900D408F
:1022F000812810B51DD1104B104C99B11049002008
:102300000A6822F020020A601A68052142F02002C1
:102310001A60082200F068FE0A4B002119600123B0
:10232000237004E01A6822F020021A602170084627
:1023300010BD4FF0FF3010BD00940D40B24C002096
:1023400020940D4080900D40012808D002280CD028
:10235000C0B90E4B1B78ABB1FF220D4B10E00B4BFD
:102360001B787BB100200A4B06E0094B074A18682E
:10237000127818B132B100201860704712B1FF22F4
:102380001A6070474FF0FF30704700BFB24C00201A
:1023900080900D4073B500F009FD00F017FE00F0CD
:1023A00059FD00F0C5FA01F08DFD04F0F2F900F0DE
:1023B00005FE00F021F9012004F016F902F094FB6B
:1023C00000F0E0FC002000F0F1FB012000F0EEFB4B
:1023D0004449002000F0C0FC02F0B8FC04F037F9DA
:1023E000042004F001F9404804F066F93F4804F085
:1023F00063F900F03FFA002002F0CAFC01F0C8FBCC
:102400003B48002102F0FCFB02F0B2F904F016F99F
:1024100000F07EFE00F09AFE02F0EEFE0821684613
:1024200001F08EFD9DF807309DF80650314C43EACF
:102430000525BDF806303048238001F0BBFD2F4E46
:1024400021782F4801F0B6FD61782E4801F0B2FDE9
:10245000F46A4AF6CD310220A04729460320A0475E
:102460001A210120A04708226946736B0B20984768
:10247000254801F09FFD254B186804F01DF92448FC
:1024800001F098FD234B186804F016F9224801F07A
:1024900091FD224B186804F00FF92148002102F049
:1024A000AFFB204B01219B688120984702F0B6F9D1
:1024B00000F0B2FA1C4B012218601C4B1C481A7029
:1024C00004F049F900F064FC022004F08DF800F0FB
:1024D00065FC02F021FB10F0FF0FF8D101F04EFC7B
:1024E000F5E700BF094D2000E8722000F4722000DB
:1024F00078400020584E002019732000EC71200015
:10250000377320003D732000437320006072200069
:102510004A7320006C7220005173200094722000D6
:102520009840002004712000284E00201C4E0020FE
:10253000D0722000F8B52C4C257820704540A907B2
:1025400018D500F0020000F0FF07284E30B100F06F
:1025500063FA274BD8600123F3700BE0F3784BB19B
:1025600000F05AFA234A2249D368C968F7705B1A07
:102570001844D060AA0717D023781C4F13F0030625
:1025800006D000F049FA1A4B186101233B710BE0A9
:102590003B794BB100F040FA164A154913690969B5
:1025A0003E715B1A18441061EB0717D523780F4E64
:1025B00013F0010506D000F02FFA0D4B58610123EE
:1025C00073710BE073794BB100F026FA094A0849A0
:1025D0005369496975715B1A184450612078BDE8E8
:1025E000F84000F00BB900BFB34C00201C4E002097
:1025F000284E0020E84D002008B500F0DBF8024B23
:1026000000221A7008BD00BFB34C0020024B1B789B
:102610001843FFF78FBF00BFB34C0020024B1B785D
:1026200023EA0000FFF786BFB34C002020B1012849
:1026300005D1044B18787047034B18687047002089
:10264000704700BFB44C002020900D4010B5094ADF
:102650000020137801331370074B197802F0A8FAA1
:10266000BDE81040054B06481968064A002302F0F1
:10267000B5B800BFB44C0020964E00203041002079
:10268000084100204D262000812810B50C462AD094
:10269000B0F5807F39D0802839D102F01DFA1D4B6A
:1026A0001D4A18701368002023F00803136052F8C5
:1026B000203C032123F0080342F8203C52F81C3C44
:1026C00023F0080342F81C3C52F8183C43F008037E
:1026D00042F8183C042200F087FC10480021032235
:1026E00000F00AFC13E00E4B1A6831B142F0080208
:1026F0001A60002000F078FB05E022F008021A6062
:10270000084600F07DFB204610BD064B19600120F5
:1027100010BD00BF964E002020940D4029272000B8
:1027200010940D403041002008B50F4804F03AF8ED
:10273000C0B108210C4804F02EF80C4B196861B1A7
:102740000B4B00221A700B4B0B481B681BB90B4A32
:1027500002F044F801E002F04BF8BDE808400848F8
:1027600002F0BCBB08BD00BF284100203041002062
:10277000B44C002020900D40084100204D26200040
:1027800004712000084A136823F00403136052F810
:10279000203C43F0040342F8203C044B00221A6022
:1027A000034B01221A70704720C40D4010C00D4029
:1027B000B54C00200D4A0E49136823F0C003136086
:1027C00052F8203C43F0C00342F8203C094B002261
:1027D0001A600B6823F010030B6051F8203C43F0A3
:1027E000100341F8203C044B1A60704720A40D40B0
:1027F00020C40D4000A30D4040C00D4000F0020277
:1028000002F0FF010B4B12B1FF221A6000E01960C9
:1028100000F0040202F0FF01074B12B1FF221A6020
:1028200000E0196010F00100044B1ABFFF221A608B
:102830001860704700A20D4000A10D4040C00D403F
:10284000044B1868C0F30720030904BF1030C0B25E
:10285000704700BF1C300D40054B1868C0F3C21014
:1028600001289ABFC0F1020040034FF400407047B6
:1028700014300D402DE9F04788B0FFF7E1FF174B0A
:1028800048251C68AB68074698476B6880469847A0
:102890000646FFF7E1FF054600F016FB824600F012
:1028A0001FFB814600F0CCFAB60AC4F34003AD0A20
:1028B00004F0010402930690009601950394CDF86C
:1028C00010A0CDF814904146C7F3071207F00F038C
:1028D000034801F06FFB08B0BDE8F0871C300D40E5
:1028E0005F732000F8B500F097F80F4B0024D3E990
:1028F00000673A46B04238BF7A1C15460443C3E924
:102900000045DFF828E0DEE90001821B61EB0703E8
:1029100012196B41CEE9002302F048F818B1BDE866
:10292000F84001F0D3BFF8BDF8400020004100207E
:102930000F4B104A1A6053F8042C42F0050243F87A
:10294000042C53F8042C42F0020243F8042C0A4AE7
:10295000136843F001031360084B00221A6004223D
:1029600043F80C2C012243F8082C0F22DA6270473E
:1029700014E000E047E8010008200D400C0003408F
:10298000034BD3E90023100A40EA0360704700BFFD
:10299000F8400020054B18601C3B1A6842F0010209
:1029A0001A601A68D207FCD4704700BF28000340A1
:1029B00010B5064C236823F001032360FFF792FF54
:1029C000236843F00103236010BD00BF10E000E066
:1029D00038B500F021F80A4C0A4D0123A370A86015
:1029E000FFF780FFA3784BB100F016F8064AA968FC
:1029F00093685B1A184400239060A37038BD00BF31
:102A00001C4E0020284E0020E84D0020014B186885
:102A1000704700BF34410020074B084A196804334F
:102A20001B681268120442EA0323054A0B4310682C
:102A300043EA0060704700BF40500D4048500D40D1
:102A40004C500D4010B50446114B1B68DB07FBD5FD
:102A500003F001FEFFF7E0FF231A062BD8BFC41DC9
:102A60000C4B220E1A60C4F3074243F8042CC4F343
:102A7000072243F8082CE2B243F80C2C03F0E7FDE0
:102A8000054B91201C60BDE8104000F0ADB900BFBF
:102A900050500D404C500D403441002070B501F0B5
:102AA00037F9FFF7B9FF0E4C01230E4EA3700E4B02
:102AB000B060002591201D6000F0AEF9912000F07B
:102AC0009FF902F0C1F8A37843B1FFF7A5FF074AC9
:102AD000B1689368A5705B1A1844906070BD00BF20
:102AE0001C4E0020284E002034410020E84D0020DC
:102AF000064B1B681B075FBF054B186880F008007A
:102B0000C0F3C00048BF0020704700BF18C000409D
:102B100018D00040F8B50646FFF77EFF1E4A012395
:102B20001E4993702C2303FB06134FF6BF711C4DF7
:102B3000DC68A860236C61649BB213F050011746F7
:102B40000CD0A369DB0618D4164B53F826301BB102
:102B50002068C0B29847F4E72368F2E713F4D06F17
:102B60000BD04FF440732363FF236360E36AE16299
:102B7000E362236B43F001032363BB7853B1FFF798
:102B80004BFF094AA96893685B1A1844024B90608E
:102B900000229A70F8BD00BF1C4E00201471200066
:102BA000284E002038410020E84D00202DE9F04F4C
:102BB000012885B0064600F2BF802C244443604BB8
:102BC0001D1995F920A005F12007BAF1000F9946CB
:102BD000C0F2B28095F92230002BC0F2AD80594886
:102BE00001F060F9584A59F804301168EC680B4359
:102BF000136051686B6895F921B00B43536091687D
:102C0000AB6895F822800B4393600023C4F8C83F5B
:102C10002B690BEBCA021A6095F823305FFA88FC27
:102C200001939DF80430604619462A7DCDF80CC00A
:102C3000029300F0E3F9029BDDF80CC019466046F0
:102C4000082200F0D1F94FFA88F840494FEA0838D5
:102C50009DF9042058F80100012303FA02F202430F
:102C600048F801204FEA0A3A5AF8010003FA0BF239
:102C700002434AF801205022A263A26B95F8240077
:102C800042F4D062A263022262634FF44072226374
:102C9000AA696262EA69A2627022E26242B2002A12
:102CA0000C4614DB95F92510294D41EAC201296033
:102CB0007979120315594FB2BB402B4313510022AF
:102CC00000F092F9234A136843F4004313602C2365
:102CD00003FB069393F8265020336FB2002F1CDBC2
:102CE00093F807A0EDB25FFA8AF828464146012220
:102CF0003F0300F083F94FFA8AFA3A59012303FAA5
:102D00000AF313433B5108222846414600F06CF970
:102D1000104A136843F4804313602C2303FB069688
:102D2000F26896F82800136B43F00103136305B0B3
:102D3000BDE8F04F00F058B805B0BDE8F08F00BF17
:102D400014712000F12A200028200D4020940D400D
:102D500004410D4030D0004001289CBF014B43F896
:102D60002010704738410020012808D8044B2C223D
:102D700002FB0030C3689A699206FCD41960704760
:102D800014712000014B00221A60704700500D4062
:102D9000014B08221A60704700500D40024BA022E0
:102DA0001A6050221A60704700500D40074A084BC5
:102DB0001A60084B80321A60074B80321A60074B4A
:102DC00080321A60064B074A1A60704700E100E043
:102DD0004C41002040410020444100204841002057
:102DE00008ED00E000202000044B41091A6800F0C3
:102DF0001F000123834042F8213070474C410020DE
:102E0000044B41091A6800F01F000123834042F877
:102E10002130704740410020044B41091A6800F0FE
:102E20001F000123834042F82130704748410020B1
:102E3000024B1868C0F38150704700BF04200D405A
:102E400008B5FFF7F5FF024B53F8200008BD00BF9F
:102E50006C71200038B5164D164C2B68032023F0FA
:102E600040032B602368062123F0400323600122E6
:102E700000F0BAF82B68012223F080032B6023684E
:102E8000032023F080032360072100F0ADF80A4AF5
:102E90000A4B1A600A4B0B4A19680A40002AF9D1FA
:102EA0001A685101FCD41A685201FCD538BD00BF24
:102EB00020C40D4000C40D400101020000200D405F
:102EC00004200D4000000101034B04481B6803F07F
:102ED00007031841704700BF04200D400048E80177
:102EE000034B04481B68C3F302231841704700BF1B
:102EF00004200D400048E801024B02EBC10243F8F8
:102F00002200704750410020F8B507460E46094D93
:102F1000002405EB411547FA04F3DB07E1B204D5C1
:102F200055F824300BB1304698470134082CF2D1C3
:102F3000F8BD00BF504100202DE9F74F019000F08F
:102F4000E7FEFFF769FD0199184E4FEA0139184F66
:102F50000123DFF864A009F18045B860B37005F57E
:102F60005925D5F8188459F80A404FEAC10B24FABC
:102F70000BF448EA0400C0B2E4B2FFF7C5FF04FA5C
:102F80000BF45FFA88F3C5F81C3449F80A40B378AB
:102F90004BB1FFF741FD074AB96893685B1A1844C3
:102FA00000239060B37003B0BDE8F08F1C4E00208A
:102FB000284E0020E84D002018970D4002480021BF
:102FC000802203F0BFBA00BF50410020034A044BE7
:102FD0001A60044B803A1A60704700BF80400D4071
:102FE000D4410020D0410020034B01EBC0011B68FD
:102FF00043F82120704700BFD4410020034B01EB70
:10300000C0011B6843F82120704700BFD041002059
:103010000E2870B50BD1164B164E1C6844F00205F5
:103020001D60356825F03F0343F001033360124E05
:10303000336823F0FF031A431143014331600F4B00
:103040001B681B06FBD50E4B0E4A1B6812680E2828
:1030500003F0FC0343EA022308BF064A9BB204BF05
:103060001560034A9BB208BF146018B270BD00BF60
:1030700034000144F486084008700D4000700D4093
:103080000C700D4010700D40024B1868B0FA80F0C3
:103090004009704700B7084070B5FFF7BDFC104EFF
:1030A000104C0123B060104D8F20A370FFF7B4FEC9
:1030B0008F20FFF7A5FE286818B101F0B9FD0023A5
:1030C0002B60A37853B1FFF7A7FC084AB168936857
:1030D0005B1A1844034B906000229A7070BD00BFC9
:1030E000284E00201C4E0020D8410020E84D002032
:1030F000064A136843F002031360536843F0020367
:103100005360936843F002039360704748200D407A
:1031100007B50C4800F0C6FEFFF7EAFF0A4B1A6835
:1031200042F002021A6000220192019A0F2A02DC88
:10313000019A0132F8E71A6822F002021A6003B01D
:103140005DF804FB8930200054200D40064A1368C6
:1031500023F002031360536823F002035360936863
:1031600023F002039360704748200D40044B186819
:1031700000F02200A0F1200358425841704700BFE0
:103180004C860840024B186800F04000704700BFB2
:103190004C86084008B50B4B93F90020002A09DB48
:1031A000094AED2111601160E32111601A7862F083
:1031B0007F021A70FFF730FC044BD861044B0120EA
:1031C000D87108BDB94C002038880840284E00202E
:1031D0001C4E002038B505460C46134B1B689B0758
:1031E000FBD4124B93F90030002B01DBFFF7D2FF29
:1031F0000F4BEE221A60691E1A60A21C43F8102CB5
:103200002144022000F0DCFC013C0A492401214356
:10321000022000F0E7FC022000F0EEFC022000F0AB
:1032200003FD002038BD00BF4C860840B94C00208B
:103230003888084002C001C0044B1A6810B142F03F
:10324000010201E022F001021A6070470086084086
:103250000B280DD1082A0DD161B1074B083111F8A7
:10326000012D43F8042F054A9342F8D100207047FE
:103270000120704702207047A4850840C48508409B
:1032800070B5304E336813F0400308D02E4D2B68D4
:10329000DCB21B0605D52D4BED221A601A6000200A
:1032A00070BD042CF7D9023C8C42F4DCE4B2032C50
:1032B00021D001190139032000F08AFC631E244942
:1032C0001B010320194300F08DFC032000F094FC47
:1032D000032000F0A9FC032000F0B2FC0028FAD182
:1032E00029681C4B4939C9B219702B681A4D180648
:1032F0002B70D0D506E02B6803702B6843702B68C9
:103300008370EDE749B289B2042002F09DF8297874
:10331000032001F07F0102F097F8104B1B7873B97E
:1033200033685A060BD5074B1B681B0603D50C48A0
:1033300001F07EFC03E0054BED221A601A60204686
:1033400070BD00BF4C860840288808403888084077
:1033500002C0010CB74C0020B64C0020B84C002035
:103360005040002010B5134B1A689207FBD41B681D
:103370005B065FBF104BED221A601A600F4B1B6893
:1033800013B10D4BEF221A600D4A0E4C137803F067
:103390007F031370E37953B1FFF73EFB0A4A0B49F1
:1033A000D369C9695B1A18440023D061E371012015
:1033B00010BD00BF4C860840388808402C86084065
:1033C000B94C00201C4E0020E84D0020284E002063
:1033D00038B5A0F10B04E3B20F2B054613D80B4B05
:1033E0001B6813F03F0302D0FFF7BCFF012304EB7F
:1033F0008404074A0B3414600BB1FFF7CBFE054B76
:10340000E8B21D7000E0FF2040B238BD4886084099
:103410003C860840F740002038B50C46002900F0F3
:103420008880102800F28780DFE800F0090F1A1C5E
:1034300023394253586F738585787A7C7F003F4BE0
:103440001B68003318BF012370E03D4B05221B6849
:1034500003F07F030B3B93FBF2F30B33DBB265E02E
:10346000384B00E0384B1A68043B1B6843EA0223E0
:103470005CE000230B60354B354A1B6803F0010309
:103480000B601268900644BF43F002030B60314B9F
:103490001B78002B4BD00B6843F0040346E02E4B07
:1034A00000201B780860002B41D001230B6038BD41
:1034B0002A4B1A680023D2B2294901EBC3000079D4
:1034C000904202D851F8333030E001330E2BF3D163
:1034D00028E0244B1B685BB2493B27E0224B1B686A
:1034E000990603D1FFF756FE012300E000231F4A8F
:1034F0001268D207FBD51E4A1568493DEDB20BB1E3
:10350000FFF730FF6DB2256011E01A4B93F90030E0
:103510000CE0194B1B7803F07F0307E00B2305E059
:103520001A2303E06FF0170300E007232360002055
:1035300038BD022038BD012038BD00BF2C860840B0
:103540003C860840CC850840D48508400086084069
:1035500024860840B84C0020F640002040860840F1
:103560007C712000588608404886084064860840E0
:1035700060860840B74C0020B64C002010B50B4BBD
:103580001B68990603D1FFF705FE012300E0002325
:10359000074A1268D207FBD5064A1468C4F3001420
:1035A0000BB1FFF7DFFE204610BD00BF4886084084
:1035B000648608404C8608402DE9F843374B93F960
:1035C0000030002B0EDBFFF727FA0446FFF7E2FD81
:1035D000FFF722FA6FF009031B1BC342F8D44FF028
:1035E000010801E04FF000082D4B1B782BB92D4E40
:1035F000336813F0200404D106E0FFF7BFFF002872
:10360000F5D10220BDE8F883274D284FEB7943B16F
:10361000FFF702FA264AF969D369EC715B1A18447C
:10362000D061FFF7F9F9234C0123AB71E923B861AD
:103630004FF00409236033689A0708D409F1FF3971
:1036400019F0FF0903D00620FFF7A4F9F3E7336868
:103650009B0704D4EE2323602360012403E0346835
:1036600014F00204FBD1AB7953B1FFF7D5F9104A3E
:10367000B96993695B1A18440B4B906100229A71E7
:10368000FFF7CAF90123F861EB71B8F1000F01D01F
:10369000FFF768FE2046BDE8F88300BFB94C002064
:1036A000F64000204C8608401C4E0020284E00208A
:1036B000E84D0020388808400B282DE9F84F8A464D
:1036C00011D1082A40F0828000297FD0414B01F1BE
:1036D000FF3A53F8042D0AF8012F3F4A9342F8D1DC
:1036E0000020BDE8F88F0C286DD1042A6ED1002986
:1036F0006CD03A493A480B68DFF8EC9023F00703A6
:103700000B600368DFF8E4B043F008030360DBF804
:103710000040D9F800200B68DFF8D4C0DFF8D4806F
:1037200023F070030B60D8F80050DCF80030E4B2EE
:10373000120244EA036392B2DFF8BCE01A43EBB230
:1037400042EA03430024DEF8002044EA03060B6843
:10375000D5B223F0070343F001030B6003682F4643
:1037600043F008030360DBF80000D9F800200B6881
:10377000120223F0700343F010030B60D8F80050DE
:10378000DCF80030C1B241EA036392B21A43EBB2F3
:1037900042EA0343DEF8002044EA03085FFA82F9B4
:1037A000FFF73AF9B6EB080667EB0907F903054698
:1037B00041EA5641F0030B4A002302F043FB281A6A
:1037C000CAF800008CE70120BDE8F88F0220BDE8B0
:1037D000F88F00BFC8850840A885084010880840B9
:1037E000048808400048E801188808401488084008
:1037F00020880840248808401C8808401E4B187008
:10380000002831D01D4B1B681B03FBD51C4B1A68CD
:1038100042F002021A601A6842F001021A601A6845
:1038200017495007FBD50A6822F001020A6019689F
:10383000134A4907FBD4116841F002011160116875
:1038400041F0010111601A685207FCD50D4A8D2024
:10385000136823F004031360D2F8A83123F00403A3
:10386000C2F8A831FFF7CCBA064A8D20136843F09E
:1038700004031360FFF7B8BAB84C002004200D40D1
:10388000048808408C86084010B50C4607285CD890
:10389000DFE800F0040F1B1F263C4256012903D12C
:1038A000FFF778FC002010BD002950D1FFF75AFD2A
:1038B000F8E7A1F10B030F2B49D8C8B2FFF788FD39
:1038C000431C0CBF0320002010BD8CB2E2B2214B80
:1038D00002E08CB2204BE2B2240A1A605C60E1E79D
:1038E00031F0070333D101F00100FFF7A5FC1B4BBA
:1038F00014F0020F1A68C4F3800014BF42F02002D3
:1039000022F020021A60FFF779FFCBE731F00100C7
:103910001DD1134B197010BD01F118031F2B16D8C0
:103920000D231049DA0051F83300844204DC8B186F
:103930001A790D4B1A60B5E713F1FF33F1D2B1E7F5
:10394000CCB20A4B49341C60ACE7012010BD022008
:1039500010BD00BFC8850840D085084024860840B7
:10396000F64000207C7120004086084058860840C0
:10397000F8B52B4F3D7815F001054FD1294B0124A7
:103980001C605C609C60A3F59323A3F51473F8227C
:103990001A600922C3F89021152270331A6003F5CA
:1039A0009B230B2203F59E731A60A3F59B23A3F5BB
:1039B000F07340221A601A687F2642F020021A60D3
:1039C00043F81C5CDE62DD61174B1878FFF700FDE1
:1039D000164B8E201E60FFF707FA022000F018F940
:1039E0001349022000F0F4F8032000F011F9104907
:1039F000032000F0E5F80F4B1878FFF7FFFE29468B
:103A00000D4801F0FDF83B7823433B70FFF704F8C5
:103A10000A4BD8610A4B2046DC71F8BD0020F8BD86
:103A2000B94C0020A8200D40F740002094860840A3
:103A300028880840B84C002050400020284E002024
:103A40001C4E002038B503880446CBB140F2054235
:103A5000934203D000230380032038BD194B18780C
:103A60001A4628B11B7873B1174B1B7858060AD534
:103A7000822908D1137843B1134B1A78520614D413
:103A800040F205432380012038BD01F08FFC01F096
:103A900027FC8021FFF7F4FB0028EDDD80B201F068
:103AA000DDFB0A4B1B699847E6E700221A70084BBA
:103AB0001D68FFF757FCFFF75BFFAB06E0D0FFF791
:103AC00069FBDDE7B84C0020B94C0020947220005F
:103AD0004886084070B5FEF79FFF0E4B0121997094
:103AE0000D490E4A0978906016461C4611B90C48DB
:103AF00001F09EF80B4B00251D60A3784BB1FEF73B
:103B00008BFF094AB16893685B1A1844014B9060B7
:103B10009D7070BD1C4E0020B84C0020284E002027
:103B20005040002034880840E84D002070B5FEF772
:103B300073FF114B01221D46104C9A70104AA06071
:103B400011680026042918BF0E490F481EBF0B78C4
:103B500043F040030B70166001F06AF8AB784BB18C
:103B6000FEF75AFF094AA16893685B1A1844024B92
:103B700090609E7070BD00BF1C4E0020284E00203B
:103B80002C880840B94C002050400020E84D00200F
:103B900010B5094C00212046402202F0D3FC074B0F
:103BA00001221A602E205C60FFF71EF9BDE810406C
:103BB0002F20FFF719B900BF0040002004F00F408C
:103BC00003289EBF014B00011950704700400020A0
:103BD00003289EBF024B03EB00104160704700BFFB
:103BE0000040002003289EBF024B03EB00108160C1
:103BF000704700BF0040002003289FBF03490123F6
:103C00000A6883409CBF13430B60704728F00F4045
:103C100003289FBF034901230A6883409CBF1343C5
:103C20000B60704720F00F4003289FBF034901231A
:103C30000A6883409CBF13430B60704714F00F4029
:103C400003289FBF044B03EB0010806800F00700BF
:103C500088BF0020704700BF00400020024B4FF09B
:103C6000FF321A60704700BF04F50F40014B01227C
:103C70001A6070474CF00F40094B1A6812F4801F0D
:103C80001A46F9D1043B196821F480311960116892
:103C9000C903FCD41A6842F400321A60704700BFAE
:103CA00004200D4070B5164CFEF7B6FE2378154D76
:103CB0003BB1154A296813685B1A0344136000235B
:103CC0002370124E6860012302203168637000F097
:103CD000D5FD30BF022000F0B5FD3060FEF79CFE40
:103CE00063784BB1084A0749536849685B1A034433
:103CF0005360034B00225A7001232860237070BD6B
:103D00001C4E0020284E0020E84D0020DC41002001
:103D100070B5144B1A681C4612F0030F21D0124BD9
:103D20001A685101FBD41A685201FCD50025FEF730
:103D30003FFEFFF7A1FF2560022000F083FD0B4B43
:103D40001860FEF769FE0A4B0A495A7832B10A4CEC
:103D50004E6862685D70921B0244626001220860D6
:103D60001A7070BD58200D4004200D40DC41002029
:103D70001C4E0020284E0020E84D00202DE9F04187
:103D80003E4B1C6814F03F0413D13D4B53F82430D4
:103D900023B1984768B10134052CF6D1394D2B7801
:103DA0003BB1FEF733FE0446FEF736FE201A092823
:103DB00003D8BDE8F041FFF775BF002CF9D0324BB6
:103DC0001A6822F400321A60304A1168C902FBD422
:103DD000196841F4803119601368DB03FCD5FEF7E4
:103DE0001BFE201A092803D8BDE8F041FFF744BFA5
:103DF0006328274F02D92B78022B00D00123254EB0
:103E00003B60254C0220316800F038FDFEF704FECF
:103E10002378224D3BB1224A296813685B1A034478
:103E200013600023237001236860637000F0B6FE06
:103E3000B8B14FF00008FFF71FFFC7F8008002205D
:103E400000F000FD3060FEF7E7FD637883B1144AAF
:103E5000696853685B1A034453600F4B83F8018011
:103E600006E0FEF7D3FD0028E3D030BFBDE8F081C7
:103E7000012328602370BDE8F08100BF4886084018
:103E8000E0410020BA4C002000200D4004200D40ED
:103E900058200D40DC4100201C4E0020284E002000
:103EA000E84D00200023064A52F82310814206D034
:103EB00011B942F8230070470133052BF3D1704745
:103EC000E0410020054B00221A60054A136843F0C8
:103ED00004031360034B02221A70704758200D40F0
:103EE00010ED00E0BA4C002070B5FEF795FD104EC5
:103EF000104C0123B060104D9020A370FEF78CFF92
:103F00009020FEF77DFF286818B100F091FE002395
:103F10002B60A37853B1FEF77FFD084AB168936820
:103F20005B1A1844034B906000229A7070BD00BF6A
:103F3000284E00201C4E0020F4410020E84D0020B7
:103F400030B5184B1A78431E3AB9174A1278122A1C
:103F500003D1164A12784B2A03D001F520112731DC
:103F600017E04A0802F12814B4F1281F04D014F80D
:103F7000015D03F8015FF7E701F520112731002308
:103F8000934205DA11F801598418E5540133F7E733
:103F900030BD074A914204D011F8012903F8012FDE
:103FA000F7E730BD2B0028002A0028002900280050
:103FB000270028000FB407B504AA52F8041B0448D0
:103FC000019200F021F803B05DF804EB04B07047F3
:103FD0006040002070B505460C46102C07D92B68B0
:103FE000686808491022984750B9103CF5E734B189
:103FF0002B6868682246BDE8704002491847204691
:1040000070BD00BF8F7420002DE9F04F80468FB047
:10401000069107920026069B1B78002B00F05F8319
:10402000069B1C4613F8012B1AB9069B9C4203D130
:104030000FE0252AF5D1F8E7069BD8F80400E51A29
:104040000699D8F800302A469847002840F02A837D
:104050002E442378002B00F042836378611C002BF0
:1040600000F03D8300240A4611F8013B2B2B11D0B0
:1040700006D8202B11D0232B12D144F00804F2E7EC
:104080002D2B04D0302B0BD144F01004EBE744F07F
:104090000104E8E744F00604E5E744F00204E2E73F
:1040A000A3F1310108290DD8134600251A4613F84B
:1040B000011BA1F13000092811D80A2202FB0515C5
:1040C000303DF3E72A2B09D1079B01321D68191DEA
:1040D000002D0791B8BF44F0010400E000251378DB
:1040E0002E2B1CD15178531CA1F1300009280ED879
:1040F000194600270A780B46A2F13000092801F181
:1041000001010FD80A2303FB0727303FF2E72A29D2
:1041100006D1931C079A111D0791176802E01346F8
:104120004FF0FF371A786C2A09D15A786C2A02D1DD
:1041300044F080040AE0013344F060040BE0682A94
:1041400009D15A78682A03D144F02004023302E0EE
:10415000013344F040041A78642A3CD01FD8462A20
:1041600048D00DD8252A5AD003D8002A00F0B782AB
:1041700057E0412A4AD0452A53D144F4424450E002
:10418000582A31D004D8472A4BD144F4A13448E00E
:10419000612A38D0632A44D144F4A06441E06E2AF5
:1041A0003AD007D8662A22D027D3672A28D0692A8E
:1041B00011D036E0732A2CD006D86F2A11D0702A7D
:1041C0002FD144F440742CE0752A07D0782A28D1E6
:1041D00044F4C85425E044F4245422E044F4106428
:1041E0001FE044F488541CE044F4B24419E044F461
:1041F000007416E044F4844413E044F4024410E0F4
:1042000044F481340DE044F4C1340AE044F4E13470
:1042100007E044F4806404E044F4E06401E044F422
:10422000C0640133069304F4E063B3F5806F00F0DB
:10423000AA8116D8B3F5807F2BD0B3F5407F7FF4E9
:10424000EAAE079BA04914F4804F03F104029F4893
:1042500018BF08460DF1330107920F461A68002374
:10426000C5E1B3F5C06F08D0B3F5E06F00F031825F
:10427000B3F5A06F7FF4CFAE00E2D8F80030D8F8E5
:104280000400934901229847002840F00B82013630
:10429000C1E6002FACBF24F01004012714F4005332
:1042A000039304F0E00337D0402B17D008D8DBB1DC
:1042B000202B2AD1079B1A1D079293F9002017E0A3
:1042C000602B11D0802B20D1079B073323F00703ED
:1042D00003F108020792D3E900230AE0079B1A1DA5
:1042E0000792B3F9002003E0079B1A1D07921A6892
:1042F000D317002A73F1000109DA524263EB43033A
:10430000CDE900234FF0010933E000220023CDE97D
:1043100000234FF000092CE0402B16D007D8CBB17A
:10432000202B20D1079B1A1D07921A78EEE7602BED
:1043300010D0802B17D1079B073323F0070303F11D
:1043400008020792D3E90023E1E7079B1A1D0792B1
:104350001A88DBE7079B00211A1D07921B68184685
:10436000CDE90001D5E700220023CDE900234FF07D
:10437000000904F4C053B3F5805F0CD0B3F5C05FFF
:1043800033D0B3F5006F4FD1DDE900230DF1360ACC
:10439000CDE9042304E0DDE900230DF1360A15E040
:1043A000DDE9042313433AD0DDE904010A220023A6
:1043B00001F048FDDDE9040130320AF8012D002347
:1043C0000A2201F03FFDCDE90401E9E752EA0301C9
:1043D00025D002F0070130310AF8011DD10841EA69
:1043E0004371D8080A460346F0E7384B14F4804F6F
:1043F0000DF1360A344908BF1946DDE9002352EAB7
:1044000003000CD002F00F00085C4FEA131E0AF8FC
:10441000010D100940EA037002467346EFE70DF103
:10442000360BCAEB0B0B03E00DF1360A4FF0000B15
:1044300041F6080241F208035F4502EA04028CBF1C
:10444000CBEB070700279A4202D1002F08BF0127B4
:1044500041F608018A4207EB0B030DD1DDE90001AB
:1044600050EA010208D01B4914F4804F1A4A4FF059
:10447000020C18BF0A4602E04FF0000C6246039996
:10448000A1B1B9F1000F0AD104F0060102290AD046
:104490000629124904BF4FF0010C0A4606E04FF00E
:1044A000010C0F4A02E00F4A4FF0010C63449D4299
:1044B0008CBFED1A002514F0010922D1E30613D5B3
:1044C0002F444D461DE000BF5A7420006B7420003D
:1044D0008D7420007F7420007C7420008474200080
:1044E000827420004F73200040462946CDF80CC04E
:1044F0000092FFF76FFD009ADDF80CC0002840F035
:10450000D180BCF1000F0DD01146D8F800306246C2
:10451000D8F80400CDF800C09847DDF800C00028A6
:1045200040F0C0803C465E44102CD8F800300DD9D5
:10453000D8F804006C491022CDF800C09847002834
:1045400040F0B080103CDDF800C0EDE75CB1D8F879
:10455000040065492246CDF800C09847DDF800C048
:10456000002840F09F80D8F80030D8F80400514669
:104570005A4666449847002840F094803E44B9F17A
:10458000000F79D073E0079BD3F800A01A1D0792A3
:10459000BAF1000F09D05346994699F8002001332B
:1045A000002AF9D1CAEB090903E0DFF840A14FF076
:1045B0000609002F02DBB94528BFB9464D458CBF1F
:1045C000C9EB0505002514F0010405D14046294634
:1045D000FFF700FD002865D1D8F80030D8F80400B6
:1045E00051464A46984700285CD14E443EE052EA84
:1045F000030E0ED002F00F0E10F80EE04FEA131C5F
:1046000001F801ED4FEA121E4EEA037E7246634640
:10461000EDE70B467F1A01BF3022012701F1FF337E
:1046200001F8012C03377822BD4203F8012C4FF02A
:10463000300203F8022C88BFED1B4FF0230298BF15
:10464000002514F00104A3F1030903F8032C04D19D
:1046500040462946FFF7BEFC20BBD8F80030D8F80A
:10466000040049463A469847E0B93E4424B14046E2
:104670002946FFF7AFFCA8B92E44CCE4079B012DD7
:1046800003F104021B688CBF05F1FF35002514F00F
:10469000010407928DF8203008D140462946FFF7E3
:1046A00099FC10B14FF0FF301AE02E44D8F80030DA
:1046B000D8F8040008A9012298470028F2D16F1CFD
:1046C0002CB140462946FFF785FC0028EAD13E443C
:1046D000A1E4079B1A1D1B6807921E609BE43046ED
:1046E0000FB0BDE8F08F00BF4A7420008674200030
:1046F000F8B50388064615462BB14A2B15D0002382
:1047000003800320F8BD174802F05DF804462CB181
:10471000201DA16802F029F82468F8E7124B012255
:104720001A704A2333800120F8BD8829FBD10D4837
:1047300002F049F80446002CF3D0231D9D420ED10F
:104740000848214602F049F8084B62691F681A6060
:10475000A2691D460AB1E06990472F60E1E724682D
:10476000E9E700BFF8410020BB4C002004420020D4
:1047700010B5064B002406481C7002F021F82146B3
:10478000BDE81040034800F03BBA00BFBB4C00201E
:10479000F84100206840002070B50446E3610B4BEF
:1047A000049D1B786561A26143B1094D094B2E68D8
:1047B000201D2B6001F0D9FF2E6000E0A160214692
:1047C000BDE87040044802F01CB800BFBB4C00209C
:1047D0000442002068400020F841002013B5034C3B
:1047E00024680094FFF7D8FF02B010BD04420020F7
:1047F00010B5084B04461B781BB1043000F0DEF8FE
:1048000001E0C36003612146BDE81040024801F0A9
:10481000E4BF00BFBB4C0020F84100200023064944
:10482000002241F82320054941F8232004495A5425
:1048300001330C2BF3D17047284E0020E84D0020A7
:104840001C4E002038B50A4B04461B5C094D63B171
:10485000FEF7E2F8084A55F8243052F8241042F8DE
:1048600024005B1A034445F8243055F8240038BD71
:104870001C4E0020E84D0020284E0020014B43F83C
:1048800020107047E84D002010B50E4C236813B976
:104890000D4A136010BDFEF773F8216891E80C0013
:1048A0001A44131A8A6842B192E812002144091A84
:1048B0008B4228BF0B469268F5E71844024B1860FC
:1048C00010BD00BFFC41002000420020014800F064
:1048D000AFB900BF78400020F8B5038805462BB17A
:1048E000592B09D0002303800320F8BD1E4A136012
:1048F00059232B800120F8BD872920D08229F7D1A8
:10490000194F00263C68002CF2D0204601F04AFFE7
:1049100090B1E0688821224600F04AF950B9E06081
:10492000A3680EB1B36000E03B600023A360FFF713
:10493000ABFFE5E7FFF7CAFF2646A468E3E70A49AD
:104940000B680BB90B60D3E7D868904201D19B6824
:10495000F7E70B6099680029CAD0C86890420ABF7F
:1049600089680B469960F5E7FC41002010B50446C4
:10497000FFF7ACFFE3680B4A4BB113683BB1A342AE
:1049800003D1094A1268DA6007E09B68F6E7064B34
:104990001B68E36013681460A360BDE81040FFF774
:1049A00073BF00BFFC41002004420020024B186886
:1049B000003018BF01207047FC41002010B50B4AA1
:1049C00004461368984206D18368136008E09A6829
:1049D000A24203D01346002BF9D103E0A2689A60EB
:1049E000FFF752FF0023A360E36010BDFC410020ED
:1049F00038B5836804460D469BB10A48046002201E
:104A0000A07304F10C0098470238012801D9832DC6
:104A100005D120462146BDE8384000F005B8012305
:104A2000A37338BD044200202DE9F8431C4A044614
:104A3000156889462B4690461A4E3768A34204D023
:104A40000BB11B68FAE7BDE8F88334B3A37BABB1C5
:104A50000023A37345B1AC4204D0284687212246E7
:104A600001F091FE2D68F5E7A3683BB14C4505D0F8
:104A7000346004F10C0083212A469847D8F80030AE
:104A80009C4203D12268064B05E0134623B11A6805
:104A9000A242FAD122681A603760BDE8F88300BFED
:104AA000084200200442002010B5094B00221A7071
:104AB000084B1C685CB1E37B3BB101230022A3736C
:104AC000E27320468221FFF793FF2468F2E710BDCE
:104AD000BE4C002008420020024B1878421C1A707D
:104AE000704700BFBF4C0020064B8A221A70064A4E
:104AF00000231370054A1370054A1360054A1360BA
:104B0000704700BFBF4C0020BC4C0020BD4C0020B3
:104B100008420020044200202DE9F0411A4D2B7874
:104B20000BB1FFF7C1FF194C22783AB3184E0C2194
:104B30003378184F5943781817F8018001334768C4
:104B4000806803F01F03013A3370227068B9124B7A
:104B50001E689EB12B780BB1FFF7A6FF3046414689
:104B60003A4601F010FE3668F3E7B8F1810F04BF52
:104B70000123837341463A4601F005FE2B782078E5
:104B80001844BDE8F08100BFBE4C0020BD4C0020A1
:104B9000BC4C00200C42002008420020024A034B7B
:104BA00010781B7818447047BD4C0020BE4C002084
:104BB000F0B50B4E3378202B0FD00A4C0C252478FF
:104BC000094F1C4404F01F046C4301333D19A860D5
:104BD00039556A6033700020F0BD0120F0BD00BF80
:104BE000BD4C0020BC4C00200C42002038B5034CCA
:104BF000256801F0C8FD256038BD00BF04420020D3
:104C000010B50A4609490C68234683420DD00BB102
:104C10001B68FAE748B10460086001218173838151
:104C20008121BDE81040FFF7E1BF10BD0842002020
:104C300038B1837B013B012B9FBF024A0123C37321
:104C400013707047BE4C002010B5084C206858B156
:104C500000232360816843689847236823B1BDE837
:104C600010401868FDF7EEBE10BD00BF8C43002059
:104C700038B505880446672D09D0792D2ED0002D32
:104C800032D1FFF729FF1B4B18701B4B1D601B48CF
:104C900001F03CFE431C01D167231DE00A28164B9E
:104CA00007D01A687E2AF2DC511C1960144B985404
:104CB000EDE7196800254A1C1A60114A0D4B55543E
:104CC00028461978FFF774FF0E4B852118682A468D
:104CD000FFF76EFF20B97923238009E0852907D1EA
:104CE000054B00221A60D2E700230380032038BD61
:104CF000012038BD9B4E00209043002094430020AB
:104D0000414D0020044200200D2810B5014615D069
:104D10000B4C23782BB90B4801F0E4FD48B9012373
:104D200006E00A2805D1074801F0DCFD08B10023A0
:104D300023700548FFF77CFF012010BD002010BD47
:104D4000404D0020944300208840002008B50548CD
:104D50000549802201F0BFFDBDE80840034800215D
:104D6000FFF74EBF94430020C04C00208840002035
:104D7000054A136843F004031360044B1B689069F1
:104D800043EA002080B2704700700D4014700D405F
:104D9000174A136823F00C031360164B01221A60A4
:104DA0001A68012AFCD1144B08221A60E322C3F8C6
:104DB000142203F505731946104B1B68DB07FBD55E
:104DC000102000230E4A0138126802F0010243EA63
:104DD00002034FEA43039BB2F4D1002BF0D0094AFF
:104DE000180A03F0FE0310601360EF230B60704796
:104DF00000700D40A8200D402486084064860840BD
:104E00009C86084014700D4070B505880446772DC7
:104E100030D07E2D3FD0002D4DD1FFF75DFE294BC8
:104E20001870294B1D601D462B68284A264E52F8E3
:104E300023204AB126480021C15493688020984716
:104E4000336801333360EFE7224A1370772320E0A1
:104E50001F4AD256002A12DB1B4A13680133136023
:104E6000194B1C4A1B6812789342F1DB1A4B1B68E2
:104E7000002BEBD0184A00231360134AEFE7114AC6
:104E800000201178114A52F82320FFF791FE30B923
:104E90007E23238013E00B4B1B788B420FD10A4BF0
:104EA0000B491A688B5C03F07F038B540A4A136822
:104EB00001331360D0E700230380032070BD01207D
:104EC00070BD00BF9C4E0020A04300204040002049
:104ED000974E0020C14D00209C430020094B1A78BA
:104EE0000023934204DA084951F82310814207D184
:104EF00006490748CA5C62F07F02CA54FFF798BEB1
:104F00000133EEE7C14D002040400020974E0020C5
:104F10009840002070B505460C46164600F00EF984
:104F20002E612046BDE87040014901F073BE00BF0C
:104F3000D0742000014801F043BC00BFA44300200E
:104F4000014B1860704700BFA8430020014801F0E2
:104F50003ABC00BFA44300202DE9F04106460B48AF
:104F60000C46174601F02FFC70B18388A34208D18C
:104F700085684DB1314622463B46AC46BDE8F0411E
:104F8000604701F05DFCEFE7BDE8F081A44300203D
:104F900010B50B4C0B4A616E04F138000023FFF78B
:104FA0001DFCFFF7E5FE636E074AB0FBF3F101FB62
:104FB000130104F118000023BDE81040FFF70EBCF8
:104FC000AC430020CD4F2000E54F2000044B5A6E2B
:104FD000196E52008A4294BF5A665966FFF7D8BFCD
:104FE000AC43002010B500F0E1F900F079F900239E
:104FF00003800446FFF7AAFF68B1037B5BB12388F7
:10500000818804EB83025180C18801339180238021
:1050100001F016FCF0E720888000023080B200F03A
:105020001DF9238823B1BDE81040024800F03CB8C8
:1050300010BD00BFAC4300209DF80030012B04D10F
:10504000024B9A6D5A66FFF7A3BF7047AC4300202E
:10505000F8B586460F4616461D46074C7146204653
:10506000064A00F00FF8A765E66525660448BDE826
:10507000F840FFF765BF00BFAC430020447220003A
:105080003950200070B505460C461646044AFFF715
:1050900041FF6E612046BDE87040024901F0BABD93
:1050A0004C722000D274200010B5044604491A2026
:1050B00000F0D8F92046BDE8104001F037BC00BF31
:1050C000584E002010B54378047843EA0420054B7D
:1050D00088409B5CC2F1080203EA20201041C0B264
:1050E00010BD00BFD6742000054B10B51B68984753
:1050F000044618B10120A18800F0A6F9204610BD91
:105100005472200038B5064B05465B689847044644
:10511000A988012000F098F9201C18BF012038BD93
:1051200054722000014B9B68184700BF5472200046
:10513000014801F045BB00BF1844002003468180B0
:105140000148194601F05DBB1844002010B5044623
:10515000054801F038FB28B18388A34202D001F052
:105160006FFBF8E710BD00BF18440020F8B50746F4
:105170000A480D46164601F026FB044638B1A368DE
:105180000BB128469847204601F05AFBF5E7384610
:1051900029463246BDE8F84001F0CFBB1C44002050
:1051A00038B5FFF7A1FF0546094801F00CFB04469E
:1051B00030B1636803B19847204601F041FBF6E740
:1051C00025B12846BDE8384001F0B2BB38BD00BF6C
:1051D0001C44002010B50446FFF794FF38B100F0DE
:1051E00059F8034B034821469B689847012010BD9E
:1051F000C07220006D512000084B10B51B68984705
:10520000074B5B689847074B5B689847064B5B68A2
:105210009847BDE81040054B5B681847EC712000CB
:1052200094722000C07220006C7220006072200016
:1052300010B508490B888342A1BF074C80B2228871
:105240001218A1BF181A088022800120B8BF0020C0
:1052500010BD00BFBC460020BE460020014B188098
:10526000704700BFBC460020004870472044002023
:10527000014B1888704700BFBC460020034A044B0E
:1052800010781B781844C0B2704700BFC24D002090
:10529000BE4600202DE9F0410D4B1A881D46A2B1F3
:1052A0000C4B00261F880C4B93F8008034B2BC4294
:1052B00006F1010607DAFFF7E1FF084B1C44235C07
:1052C00004F80830F2E700232B80BDE8F08100BF2E
:1052D000BE460020BC460020C24D002020440020D5
:1052E00008B5FFF7CBFF014B184408BD2044002050
:1052F000F8B50C4B07461C780B4B1E88A519802D62
:105300000CDC2246094901F0A7F8FFF7E9FF3C440D
:1053100001463246204601F09FF800E0002528466D
:10532000F8BD00BFC24D0020BC4600202044002034
:1053300008B5FFF7A3FF024B1B88184480B208BDD5
:10534000BC46002010B50446FFF7F2FF2318802B5F
:105350000FDC013880B202B2002A04DB064B995CF4
:1053600023449954F5E7054B187820441870012020
:1053700010BD002010BD00BF20440020C24D002001
:1053800010B507480021342201F0DCF8002405485C
:1053900005492044023401F05DFC082CF7D110BD12
:1053A000624E00205A4E0020D8722000044A00238A
:1053B0001380044A1380044A1370FFF7E1BF00BF53
:1053C000BE460020BC460020C24D002038B50C4629
:1053D0000546FFF7EBFF802C28BF80242946224694
:1053E000034801F039F8034B20461C8038BD00BF4C
:1053F00020440020BC46002010B5074B03F13402C6
:1054000053F8044B934240F8044BF9D1034A136814
:105410000B6053684B6010BD624E00205A4E002056
:1054200010B5074B00F1340250F8044B904243F89A
:10543000044BF9D10B68034A13604B68536010BDED
:10544000624E00205A4E0020024B23F8101001201B
:10545000704700BF624E0020014B33F810007047C8
:10546000624E002008B5044B1A3803EB400001F0EF
:10547000F1FB012008BD00BF5A4E0020024B1A3834
:1054800003EB4000704700BF5A4E0020014802491C
:1054900001F0E3BB5C4E0020D872200008B5044840
:1054A00001F0D1F9BDE80840024801F0CCB900BFD5
:1054B000B4400020A840002038B50E4801F0D3F9D0
:1054C0000446A8B10C4801F0CEF90546206028B981
:1054D0002146084801F0DBF9284638BDFFF708FFF0
:1054E00005F1B601A5F8800005F18200FFF784FF01
:1054F000204638BDA8400020B440002010B5044626
:105500000748214601F0D9F948B12168054801F062
:10551000BEF92146BDE81040014801F0B8B910BD00
:10552000A8400020B440002010B504460948214698
:1055300001F0C3F968B12468B4F880102046FFF781
:1055400045FF04F1820004F1B601BDE81040FFF709
:1055500067BF10BDA8400020014BDB68184700BFA3
:10556000C0722000014B5B69184700BF9472200095
:10557000014B9B69184700BF94722000024BD86909
:1055800000B10047704700BF9472200013B5044675
:1055900068B1006B01F017F9024640B12146054B96
:1055A0000548DB68019302B0BDE81040184702B01F
:1055B00010BD00BF94722000836C200070B590F87D
:1055C00029200F4B032A88BF04220124DB69944061
:1055D00005469847002808BF0120013C444305D0F8
:1055E000FFF7C6FBB0FBF4F303FB140405F108005E
:1055F00021462B46BDE87040024AFFF7EFB800BFD6
:10560000947220008D5520002DE9F04107461B20A3
:105610008846FFF733FF484B05461A78474C22B9B6
:1056200001221A70FFF7A4FB2080238813B9434B93
:1056300001221A8021880A204B1C2380FFF704FFD7
:105640003F4801F0C0F8044640B1201D294601F052
:1056500004FBD8B9204601F0F3F8F4E7394801F02B
:1056600002F9044640B32946201D01F0F3FA002355
:1056700004F12C00206384F8283084F82930E36298
:1056800001F09EF82E48214601F0BBF8206B01F096
:10569000D0F8072810DC2C4801F0E5F8054698B949
:1056A000206B01F0C6F838B92548214601F095F87D
:1056B0002448214601F0EBF838464146BDE8F04168
:1056C0000422012301F0F3BC204801F0CCF8A860CB
:1056D00058B3FFF7F1FE686018B30920AE68FFF712
:1056E000BBFE10B90823337203E00920FFF7B4FEB4
:1056F000307286E880010D20FFF7AEFE01282946B2
:10570000206B02D101F08CF801E001F07AF8206BF7
:1057100001F059F885420DD12046BDE8F041FFF770
:105720004DBF0A48A96801F0B2F82946064801F0C1
:10573000AEF8B5E7BDE8F081DD4D0020B04C0020AB
:1057400088450020CC400020D8400020C0400020E8
:1057500008B5054801F077F8044801F074F8BDE891
:105760000840034801F06FB8D8400020C040002036
:10577000CC4000202DE9F0470D4614468B680746C3
:10578000106BD3F80090D3F8048092F8286001F0F1
:1057900024F86868FFF7B2FEA968144801F077F8AA
:1057A0001348294601F073F8206B01F00CF840B162
:1057B000002384F8283084F829302046FFF7FEFEC5
:1057C0000BE004F10800FFF713F80A48214601F046
:1057D00004F80948214601F05AF8484641463A463D
:1057E0003346BDE8F04701F062BC00BFC040002076
:1057F000D840002088450020CC400020014B18886C
:10580000704700BFF44000202DE9F041012986B027
:1058100006460F46144640F3868003A901F0D2FBEA
:1058200003AB03CB1B88206123839DF8113061619A
:105830000BB1B51C02E0B378F51CA37603A801A94F
:1058400002AA01F083FA9DF81380B8F1000F23D06B
:10585000029B23B16A7815F8023B03EB0223B8F1EF
:10586000020FA38309D12046314901F0F3F96B7887
:10587000237015F8023B637014E0B8F1030F11D1E7
:1058800005F108021346611E13F8010DAB4201F841
:10589000010FF9D1154605E02046254901F0DAF956
:1058A000A4F81C809DF81580B8F1000F2BD0019B47
:1058B00053B16A7815F8023B03EB0223029A9BB2BC
:1058C000E3831AB9A38301E0A38BE383B8F1020F4A
:1058D0000AD104F10800164901F0BCF96B78237273
:1058E00015F8023B637215E0B8F1030F12D10835C9
:1058F0002A46E31D04F10F0112F8010D03F8010F10
:105900008B42F9D106E004F10800094901F0A2F93F
:10591000A4F81E80AE1BBB1BE363A563BE42D4BFCD
:105920003046002000E0002006B0BDE8F08100BF56
:10593000D872200030B591B00546FFF75FFF4FF6F3
:10594000FF73984202D14FF0FF3081E04022684659
:10595000002100F0F7FD3F4B1A782AB901221A7096
:10596000FFF706FA3C4B18701420FFF775FD8DF811
:1059700010001320FFF770FD8DF81200FFF786FD71
:10598000044628B100238DF813308DF8153006E059
:105990000B20FFF761FD8DF815408DF813000023F3
:1059A00001248DF814308DF81840ADB10A20FFF7AE
:1059B00053FD28B10A20FFF74FFD8DF81A000BE0C8
:1059C000254B1A7802B91C7019780A204A1C1A70E3
:1059D0008DF81A10FFF738FD02248DF81940FFF7F3
:1059E0000DFFADF81C00FFF751FD38B1FF238DF816
:1059F00017408DF800308DF8013008E01B20FFF7CC
:105A00003DFD0146684601F025F98DF81740FFF786
:105A1000F5FEADF81E001A20FFF730FD014602A882
:105A200001F018F9FFF75CFC0E90FFF721FC0F90D6
:105A3000684601F034FA04464DB1FFF783FC0028B4
:105A400081D0FFF711FC0146684601F072FA20464A
:105A500011B030BDE74D0020E64D002070B5FCF7D9
:105A60008FFF044600261A200E4DFFF707FD0C237A
:105A700003FB0655294601F0F0F878B10A20FFF73C
:105A8000EBFC2B7A834201D0002070BD6868201A9D
:105A9000B0F5206F8CBF0020012070BD0136102EA4
:105AA000E1D1F1E7EC45002070B500251A20164C35
:105AB000FFF7E4FC0C2101FB054101F0CEF86B1C63
:105AC00010B9102B1D46F1D10C225E1E02FB0343C0
:105AD000183B0C3B46B103F1180503F10C0207CA51
:105AE000013E85E80700F4E70A20FFF7B5FC2072C5
:105AF000FCF746FF60601A20FFF7C0FCBDE870406D
:105B00000146014801F0A6B8EC450020014B1B6A94
:105B1000184700BFEC7120002DE9F043054685B021
:105B20000E461A203F49FFF79DFC01210B20FFF78D
:105B30008BFC3D4B5B689847002868DBFFF794FBC4
:105B40003A4C90F802806768FFF78EFB8146FFF7BA
:105B5000EFFB01464846B847FFF798FCD4F8189089
:105B60000746C84700284FD15FB1A3680193FFF7EC
:105B7000DFFB019B984748B102280CBF0122042299
:105B800043E0E369984700283ED1EEE717B10022D1
:105B900001243EE0FCF740FF0746FDF7FFF8FCF765
:105BA0003BFF6FF00C03DB1BC342F8D4C84728B19E
:105BB000FCF732FF0746FDF7F1F809E0E369984783
:105BC0000028F5D1194B5B6998470028F0D019E0FF
:105BD000FCF722FF6FF01403DB1BC342F8D4E36928
:105BE000984778B1114B03A803211B6998470328F4
:105BF0000AD19DF80E20B2EB080218BF0122002A3C
:105C0000C5D002E0022200E00122002401E00522CA
:105C1000FBE728463146012301F049FA204605B04A
:105C2000BDE8F083584E0020B4722000EC712000D3
:105C300082B0044B08B11B6A00E05B6A019302B0BA
:105C4000184700BFEC71200007B5FFF711FB0328D0
:105C50001BD00F4B9B689847002816DB1B20FFF7D3
:105C60000DFC0C4900F0F9FF58B1FFF7F7FE60B9E1
:105C7000FFF71AFF084BDB68019303B05DF804EBF4
:105C80001847FFF703FC0028EFD103B05DF804FBD1
:105C9000B4722000584E00206C72200008B5024BF0
:105CA0001B689847023008BD8872200038B50C4B3D
:105CB0009B689847041E02DA4FF0FF3038BDFFF7AB
:105CC0000FFB03780546002BF6D10220FFF7B0FA50
:105CD0000028F1D06878FFF7C1FAA01C38BD00BFDA
:105CE0008872200070B50220FFF72CFB10B94FF02E
:105CF000FF3070BDFFF7B8FA002505700446FFF7C6
:105D0000B7FA6070FFF714FB0446FFF7C7FF2044A3
:105D10002A2812DCC0F12B00C4B2FFF7E1FA0646D4
:105D2000FFF7A6FA29462246304400F00BFCFFF7A5
:105D30009FFA204480B2FFF791FA044B5B689847C2
:105D4000041ED4DBFFF7A6FAA01C70BD88722000E9
:105D5000014B9B68184700BF6072200070B5054674
:105D60000C4614200121FFF76FFB034B2846214608
:105D7000BDE870409B6818476C72200038B50388F6
:105D80000446442B1DD017D8002B31D1284D0121BA
:105D9000AB68812098476B68012098474FF42071C9
:105DA000244800F0E2FCEB68812098470146224835
:105DB000FEF700F9442319E04A2B1DD04F2B21D0C8
:105DC00016E01C4800F0DAFCD0B1194D00206B68D9
:105DD00098474FF42071174800F0C7FCEB6881200A
:105DE000984701461548FEF7E5F84A23238007E067
:105DF00000232380032038BD0E4800F0BFFC88B983
:105E0000012038BD0B4800F0B9FC0028F8D0084D3F
:105E100002206B689847EB68812098470146084844
:105E2000FEF7C8F80348802100F09FFC4F23DDE710
:105E3000F4702000AC460020F97420001D7520008D
:105E40004275200053B94AB9002908BF00281CBF79
:105E50004FF0FF314FF0FF3000F03CB882B0EC461D
:105E60002DE9005000F01EF8DDF804E002B00CBC93
:105E7000704700BF2DE9F041069C904606460F464C
:105E80001D4600F029F808FB01FCA8FB002300FBDD
:105E900005C5B21A2B4467EB03038646C4E9002309
:105EA000BDE8F0812DE9F843089E174680468946F3
:105EB0001D4600F067F900FB05F3A0FB074507FB53
:105EC0000137B8EB04043D4469EB0505C6E900451C
:105ED000BDE8F883704700BF00292DE9F043C0F208
:105EE000A8800026002BC0F29E8081468E469046F8
:105EF0009C46174604460D46002B3DD18A4259D98F
:105F0000B2FA82F33BB1C3F120029D4020FA02F2C3
:105F10009F4015439C40390CB5FBF1F01FFA87FEFA
:105F200001FB10550EFB00F3220C42EA0545AB4283
:105F300009D9ED1900F1FF3280F00B81AB4240F23C
:105F4000088102383D44ED1AB5FBF1F301FB13550E
:105F50000EFB03FEA4B244EA0545AE4508D9ED198F
:105F600003F1FF3280F0F780AE4540F2F480023B4F
:105F700043EA0043002203E08B420FD9002213467C
:105F8000341C18BF012460424FF0000565EB450149
:105F90005840514000196941BDE8F083B3FA83F2DB
:105FA000002A40F089808B4202D3804500F2E280D3
:105FB0000123E5E712B90123B3FBF2F7B7FA87F83B
:105FC000B8F1000F3BD1ED1B4FEA174C1FFA87FECB
:105FD0000122B5FBFCF00CFB10550EFB00F3210C6D
:105FE00041EA0545AB4207D9ED1900F1FF3102D274
:105FF000AB4200F2C3800846ED1AB5FBFCF30CFB84
:1060000013550EFB03FEA4B244EA0545AE4507D97D
:10601000ED1903F1FF3102D2AE4500F2AD800B461F
:1060200043EA0043ACE752426FEA060663EB4303E0
:106030005BE7404261EB41014FF0FF3652E707FA60
:1060400008F7C8F1200225FA02F34FEA174CB3FB18
:10605000FCF11FFA87FE0CFB113324FA02F205FA59
:1060600008F50EFB01F92A43100C40EA0343994559
:1060700004FA08F407D9DB1901F1FF3078D2994509
:1060800076D902393B44C9EB0303B3FBFCF00CFBAC
:1060900010330EFB00F592B242EA03439D4207D94A
:1060A000DB1900F1FF325FD29D425DD902383B44DB
:1060B0005D1B40EA01428CE7C2F1200328FA03F19C
:1060C0000CFA02FC41EA0C0C4FEA1C402EFA03F1D8
:1060D000B1FBF0F51FFA8CF700FB151129FA03F359
:1060E0000EFA02FE07FB05F943EA0E0E4FEA1E43C5
:1060F00043EA0141894508FA02F808D911EB0C017D
:1061000005F1FF3332D2894530D9023D6144C9EBF4
:106110000101B1FBF0F300FB131107FB03F71FFABA
:106120008EFE4EEA014E774508D91EEB0C0E03F1A8
:10613000FF3117D2774515D9023BE64443EA0543C0
:10614000A3FB0889C7EB0E0ECE4509D305D000226C
:1061500016E71046F7E613460AE794404445F6D2A0
:10616000013BF4E70B46E9E71046A1E71D46CEE701
:10617000014688E7134603E7023B51E702383D44F6
:106180003AE700BF2DE9F043002B44D18A4215467F
:1061900004464FD9B2FA82F70E464FB1C7F1200339
:1061A000B94020FA03F602FA07F50E4300FA07F4A5
:1061B0002F0CB6FBF7F01FFA85FE07FB10620EFBF3
:1061C00000F1260C46EA0243994209D95B1900F115
:1061D000FF3280F0EE80994240F2EB8002382B448F
:1061E000591AB1FBF7F307FB13110EFB03FEA4B220
:1061F00044EA01418E4508D9491903F1FF3280F084
:10620000DA808E4540F2D780023B43EA0040002608
:106210003146BDE8F0838B4247D8B3FA83F6002EAF
:1062200048D18B4202D3824200F2CF800120314616
:10623000BDE8F08312B90125B5FBF2F5B5FA85FC8E
:10624000BCF1000F78D1491B2F0C1FFA85FE0126E7
:10625000B1FBF7F007FB10110EFB00F2230C43EA31
:1062600001418A4207D9491900F1FF3302D28A421B
:1062700000F2BC801846891AB1FBF7F307FB131133
:106280000EFB03FEA4B244EA0142964508D9521916
:1062900003F1FF3180F09180964540F28E80023B01
:1062A00043EA00403146BDE8F083002630463146DF
:1062B000BDE8F083C6F1200422FA04F5B3402B4375
:1062C00021FA04F74FEA1348B7FBF8FC1FFA83F9E9
:1062D00008FB1C7720FA04FE01FA06F509FB0CF412
:1062E0004EEA05054FEA154E4EEA0747BC4202FA50
:1062F00006F204D9FF180CF1FF3168D38C463F1B1E
:10630000B7FBF8F408FB147709FB04F9ADB245EAD2
:106310000741894504D9C91804F1FF355DD32C46DE
:1063200044EA0C44A4FB0223C9EB0101994249D37E
:1063300045D0204600266BE7CCF1200405FA0CF589
:1063400021FA04F32A0CB3FBF2F61FFA85FE02FBD6
:10635000163820FA04F701FA0CF10EFB06F90F4388
:106360003C0C44EA0843994500FA0CF407D95B1940
:1063700006F1FF3138D2994536D9023E2B44C9EB9C
:106380000303B3FBF2F002FB10330EFB00F1BFB2CC
:1063900047EA0343994207D95B1900F1FF3721D23D
:1063A00099421FD902382B441746591A40EA06462B
:1063B0004EE7104614E7134627E70B4670E7B04058
:1063C0009042B6D2601E002622E7304620E7BC424B
:1063D00094D9ACF1020C1F4491E789459FD9023C46
:1063E00019449DE73846DFE70E46C8E702382944DE
:1063F00041E700BF032A70B426D940EA01039B0796
:1064000011D004780D78AC4222D10244431C05E03F
:1064100013F8014B11F8015FAC4219D19342F7D147
:10642000002070BC70470C4603461E68256818465D
:10643000AE42214603F1040304F1040404D1043AFA
:10644000032A18462146F0D8002ADAD11046E8E798
:10645000601B70BC704700BF844641EA000313F024
:10646000030349D1403A23D30B6803604B68436070
:106470008B688360CB68C3600B6903614B694361C0
:106480008B698361CB69C3610B6A03624B6A4362A8
:106490008B6A8362CB6AC3620B6B03634B6B436390
:1064A0008B6B8363CB6BC36340304031403ADBD2AC
:1064B00030320BD30B6803604B6843608B6883609A
:1064C000CB68C36010301031103AF3D20C3205D3D0
:1064D00051F8043B40F8043B043AF9D2043208D0A6
:1064E000D2071CBF11F8013B00F8013B01D30B8818
:1064F00003806046704700BF082A13D38B07B1D0D2
:1065000010F00303AED0C3F10403D21ADB071CBFA3
:1065100011F8013B00F8013BA4D331F8023B20F80D
:10652000023B9FE7043AD9D3013A11F8013B00F846
:10653000013BF9D20B7803704B7843708B788370F2
:106540006046704770B4840746D0541E002A41D07C
:10655000CDB2034602E0621EE4B3144603F8015BC9
:106560009A07F8D1032C2ED9CDB245EA05250F2C78
:1065700045EA054519D9264603F11002103E0F2EB3
:1065800042F8105C42F80C5C42F8085C42F8045C8B
:1065900002F11002F2D8A4F1100222F00F0204F06E
:1065A0000F041032032C13440DD91E462246043A20
:1065B000032A46F8045BFAD8221F22F003020432B1
:1065C000134404F003042CB1C9B21C4403F8011BAA
:1065D000A342FBD170BC704714460346C2E700BF1C
:1065E000FEE708B5FBF752FE73B5064600242546C4
:1065F0003046FCF70BF800230193019BAB4203DA12
:1066000000BF019B0133F7E73046FCF707F8002392
:106610000193019AC5F5C8739A4203DA00BF019B42
:106620000133F5E70134B4F5487F05D0B4F5C87FF0
:10663000DDDDC4F54875DBE702B070BDFCF7A2B83C
:1066400070470020FCF766BA0120FCF763BAEFF34D
:10665000108062B67047EFF3108072B6704700206A
:10666000FCF76ABC0120FCF767BC0220FCF764BCA5
:106670000320FCF761BC10B50C46FCF7ABFD2046CF
:10668000BDE81040FCF798BF10B504460020E1B209
:10669000FCF76AFB204610BD70B505460446461857
:1066A000601B44B1237833B1B44204D0184601349E
:1066B000FFF7EAFFF4E770BD38B50546002415F88A
:1066C000010B20B1FFF7E0FF0134002DF7D10A20C4
:1066D000FFF7DAFF204638BD0020704701207047E1
:1066E00010B5044600210E203022FCF791FC84B145
:1066F000012C0CD142F210730011A0F28E505843BD
:106700002A2390FBF3F000F5C340283010BD4FF072
:10671000004010BD002070470120704710B50446AE
:1067200000210F203022FCF773FC5CB1012C07D153
:1067300040F6F253584347F6F07390FBF3F010BD68
:106740004FF0004010BD08B51AB108461146FFF7DA
:10675000A3FF002008BD10B5041F54F8040F18B1A2
:106760000021FEF74DFAF8E710BD10B5044600F021
:1067700012F82046BDE81040FEF7F8B8C068B0FA3D
:1067800080F040097047837BDB0701D5FEF730B905
:106790007047FFF755BF10B541600446FCF7F0F8AD
:1067A000206010BD10B50446FCF7EAF82368C3F179
:1067B00001030344606898422CBF0020012010BDF3
:1067C00000230360704700687047006800B9704795
:1067D00003680BB11846FBE77047036810B57BB13F
:1067E00000228B4207D10B680AB9036000E01360F6
:1067F00000230B6010BD1C681A460CB12346F0E75D
:1068000010BD38B505460C46FFF7E7FF00232360AF
:106810002846FFF7DAFF08B92C6038BD046038BDA0
:1068200038B504460D46FFF7D8FF23682B60256076
:1068300038BD0368002013B101301B68FBE77047C7
:1068400000B10068704710B50446002162884068B6
:10685000FFF778FE23886288A06800215A43BDE8CC
:106860001040FFF76FBE10B5418800238B420CDA51
:106870004268D418D25C32B9012222700188826841
:1068800001FB032010BD0133F0E7002010BD30B53F
:10689000826844880023A3420DDA8A4207D1416806
:1068A000CA5C0AB1013ACA544268D05C30BD05885E
:1068B00001332A44EFE7FF2030BD8268914208D3BC
:1068C0004388008800FB032081422CBF0020012068
:1068D0007047002070470023013A01600271437144
:1068E0008371704710B5427983790479D31A2340B4
:1068F000A3421FBF0368995443795A1C1FBF0379F1
:1069000013404371012008BF002010BD83794279F4
:106910000179D21A0A421FBF0268D25C01330B40D0
:106920001ABF837110464FF0FF307047FEF752BC1C
:1069300003691B6803B11847704703695B6803B1BB
:10694000184770477047F7B50F46FEF7C9FC038834
:106950000446ADF80030BDF80060FEF789FCB300D6
:10696000023383420FD802340025B5420BDA54F8C3
:10697000040B01350190BDF804103846BDF806201F
:10698000FEF7EAFAF1E703B0F0BD43695B6803B1D3
:106990001847704713B504461A20FEF76FFD0146ED
:1069A00001A800F057F963691B6813B1204601A9DB
:1069B000984702B010BD831C0020023313F8042C4A
:1069C0001AB113F8032C1044F7E77047072B2DE991
:1069D000F8430746884614461D4607DC084611461C
:1069E0001A46FEF76FFB3870BDE8F8834FEAE309FB
:1069F000AAB1002608EB060021460822FEF762FB3A
:106A0000B85501364E45F5D115F0070216D008EB02
:106A100006002146FEF756FBB855BDE8F88318F886
:106A200004303B5501344C45F9D115F0070205D02F
:106A300008EB04000021FEF745FB3855BDE8F8835C
:106A40002DE9F341FEF74CFC04460220FEF7F0FB73
:106A500008B9002044E06078237803EB002080B27E
:106A6000FEF774FB05460028F3D0FEF739FC80469C
:106A7000287B10F0070318BF012303EBD000FEF7BB
:106A8000D7FB0028E5D0AC680026023414F8023C9D
:106A90002BB3192B14F8017C08EBE60106F0070272
:106AA00009D901A83B46FFF791FF14F8020C01A990
:106AB000FEF7D8FC10E00023ADF8043001A83B46F7
:106AC000FFF784FF9DF805109DF8043014F8020CC0
:106AD00043EA0121FEF7B8FC3E440234D6E72846DB
:106AE00002B0BDE8F081072BF0B506DC1278C1F1E9
:106AF0001001CB1A02FA03F322E0DD1049B3571E4E
:106B000000EB050E70450FD017F8014FC1F10806D4
:106B1000B4400678C4F3072C4CEA0606067010F859
:106B2000016F34430470EDE713F007042AD0535D7E
:106B3000C4F1080211440B41DBB2C4F11004A340BC
:106B40000278C3F307210A4302704278134343706B
:106B5000F0BD545C44540131A942FAD113F007034B
:106B600010D0525CC3F108052A41C3F1100302FAA8
:106B700003F3425CC3F307252A4344184254627866
:106B800013436370F0BD2DE9F743047B054614F011
:106B9000070318BF012303EBD404A01CFEF7D2FBAC
:106BA00098B3FEF761FBAB880370AB881B0A437098
:106BB000FEF75AFB871C224638460021FFF7C2FC2D
:106BC000AC680025023414F8020CE8B1192814F856
:106BD000016C07EBE50905F0070805D9FEF74EFC47
:106BE00041460246484609E0FEF736FC8DF80400AF
:106BF000000A8DF805004146484601AA3346FFF7D2
:106C000072FF35440234DEE7012003B0BDE8F083B3
:106C1000FEF78EBA38B50D46FEF798FA044620B155
:106C200085602846FEF77EFA207338BD10B5FEF762
:106C300035FCFEF7BBFBFEF77DF9FFF7E9FFBDE88A
:106C4000104002204FF400714FF4F0524FF4E12352
:106C5000FEF7FEB90B880380704708B50222FFF7E4
:106C6000C9FBB0FA80F0400908BD016801F182005B
:106C7000B631FEF7C1BB036803EB4101B1F88200F6
:106C800070472DE9F0410E461746044600285BD0B8
:106C9000006BFFF798FD054668B10A216868FFF7A9
:106CA000EAFF80460A20FEF7D7FB804505D028463C
:106CB000FFF7C6FDEFE7BDE8F081AB68002B43D0DE
:106CC000032E3AD8DFE806F002190B4094F828208A
:106CD00000203A4484F8290084F828202EE000227D
:106CE00084F8292094F828203A44D2B284F8282045
:106CF0001B7A934219D8022020E094F829203A44C4
:106D0000D2B2052A83BF002284F8292094F82820D3
:106D100084F8292084BF013284F8282094F82820A0
:106D20001B7A9A4201D3012008E02046FEF746FC78
:106D30006868BDE8F041FFF798BF30462946224613
:106D4000BDE8F041FEF716BDBDE8F08130B5002882
:106D500053D0037A022B2FD1C479437A057914B921
:106D60009BB9012D0DE01BB9002D40D1012014E08D
:106D7000032C0CD1032B03D1002D3CD1012017E0B3
:106D8000022B14BF0020012006E0204604E0022C64
:106D9000F6D1181C18BF012005BB0CB1022C05D17F
:106DA000023B012B8CBF002301231BE0032C15D1D8
:106DB0009C1E6342634115E00378022B10D00379D7
:106DC0002BB9437A13F0030318BF012300E000231B
:106DD000C07910F0030018BF012003E0002301E098
:106DE0000020034601B10B603AB1106030BD032CA6
:106DF000CDD11846D0E70020CEE730BD37B50446E8
:106E00000D46084606220021FFF79CFB637DD9074B
:106E10005CBF01232B70237E012B0DD8E37D9A07E5
:106E200008D0637E9B0705D0E28BA38B9A4201D1E9
:106E3000012300E00023237504F11000694601AA34
:106E4000FFF784FF009B0BB10223EB70019B0BB19A
:106E500002236B70E37D03F00303022B03D0032BAB
:106E60000CBF08230023AB70637E03F00303022BE7
:106E700003D0032B0CBF082300232B7103B030BDBC
:106E800002280CBF022308230B448B4205D013F8C1
:106E9000012DFF2AF9D0002070470120704707B567
:106EA0006946FFF7ABFF9DF800009DF80130023006
:106EB00018449DF802309DF8032018449DF80430D2
:106EC000104403449DF80500184403B05DF804FB2A
:106ED0008378427803F001031B0102F0010243EAC8
:106EE000C202037830B503F0070342EA0304C37813
:106EF00003F0010344EA4312037903F0010342EA79
:106F000083130B704479457A827904F00104C379C4
:106F100002F0010244EA851503F0030345EA420446
:106F200044EA8302037A03F0030342EA03134B703B
:106F300030BD73B504460D466946FFF75FFF04F1A7
:106F400010002946FFF7C4FF9DF80030012B02BF57
:106F5000A37E0322AB709DF8013018BF0222022BE2
:106F600008D1A18B531CA954A18BDBB20232090AB0
:106F7000D2B2E9549DF8026031469319DBB2581A37
:106F8000C0B219B10139635C2B54F6E79DF80320B8
:106F9000022A08D1E18B5A1CE954E18BD2B20233A8
:106FA000090ADBB2A9549DF8046032469819C0B2B0
:106FB000811AC9B222B1013AA018007A6854F5E7E3
:106FC00002B070BD0278437802F007000870C2F387
:106FD000C0004870C2F300108870C2F34010C2F3C2
:106FE00080120A7103F001024A71C3F340028A71F0
:106FF000C3F38102CA71C3F301129B09C8700A72FC
:107000004B72704730B591B0FEF76AF90446FEF74F
:107010002FF96A4601462046FEF7F6FB044610B9F2
:107020004FF0FF303BE0FEF703F90028F8D01420C2
:107030009DF81010FEF708FA9DF81730ABB1BDF8B7
:107040001C50FEF7DBFB854205D04FF6FF73BDF801
:107050001C209A42E4D19DF817006946FFF710FF03
:1070600018B91B206946FEF7FDF902A91A20FEF7A0
:10707000F9F913209DF81210FEF7E6F99DF8153086
:107080000A2013B99DF81A1001E04FF6FF71FEF7C0
:10709000DBF90E209DF81A10FEF7D6F9204611B044
:1070A00030BD0120FEF746BC0020FEF743BC10B502
:1070B000044630B1084611461A462346BDE8104042
:1070C000184710BD00207047FEF720BD70B504467C
:1070D0000D4652B150681668FEF726FA204629463A
:1070E000FEF71AFD08B13246F3E770BDFEF714BD96
:1070F00070470000DA72200049232000F1222000AE
:10710000CD222000587320002D2620008926200043
:10711000000000000100000001000000010000006C
:1071200000C0004000410D400000000008000000C9
:107130002C00000000000001FFFFFFFF0500000021
:1071400002000000020000000200000000D0004029
:1071500008410D4002000000080000002C00000063
:1071600002010200FFFFFFFF06000000F373200092
:10717000F7732000067420000A7420000700000046
:10718000FF00000005000000ED000000030000000B
:10719000D500000001000000C50000000000000054
:1071A000B6000000FFFFFFFFB0000000FDFFFFFF83
:1071B000A1000000FBFFFFFF91000000F9FFFFFFAF
:1071C00088000000F7FFFFFF72000000F5FFFFFFDF
:1071D00062000000F3FFFFFF58000000F1FFFFFF17
:1071E00042000000E8FFFFFF0000000071392000AE
:1071F000D5312000B935200077662000813220008B
:107200007D3520006D312000853120009531200032
:10721000653320001934200089382000B936200059
:107220005132200031742000E1662000D966200030
:10723000DD662000457420001D67200015672000D2
:1072400019672000476920004569200095692000E2
:107250008B692000416A2000876B2000B7692000FD
:10726000DF7420002D6C2000A1512000E474200068
:10727000515720000956200059552000655520001F
:10728000715520007D552000A9702000A3702000BA
:1072900005702000E9742000C9702000ED70200006
:1072A000CD702000495C20000D5B2000315C200087
:1072B000C57020009D5C2000E55C2000AD5C2000D6
:1072C000F1742000F17020005D5D2000515D200010
:1072D000E440002000000000000047656E65726910
:1072E000632052656C617900436F6E74696B69202D
:1072F000332E78005A6F6C65727469612052452D87
:107300004D6F7465207265766973696F6E204220D7
:10731000706C6174666F726D0052696D6520636F89
:107320006E66696775726564207769746820616448
:1073300064726573732000253032783A002530324C
:10734000780A00204E65743A2000204D41433A20CF
:1073500000205244433A2000427574746F6E00431B
:1073600043323533383A2049443A20307825303496
:107370006C782C207265762E3A20504725642E2595
:10738000642C20466C6173683A20256C75204B692B
:10739000422C205352414D3A20256C75204B6942B6
:1073A0002C204145532F5348413A2025752C204528
:1073B00043432F5253413A2025750A53797374651C
:1073C0006D20636C6F636B3A20256C7520487A0AD8
:1073D000492F4F20636C6F636B3A20256C752048F2
:1073E0007A0A52657365742063617573653A202566
:1073F000730A00504F520045787465726E616C20BC
:1074000072657365740057445400434C44206F7296
:1074100020736F667477617265207265736574009E
:107420006363323533382052462064726976657260
:10743000004F6E2D436869702054656D70657261F0
:10744000747572650056444433003030303030304B
:10745000303030303030303030303031323334351D
:1074600036373839414243444546003031323334AF
:1074700035363738396162636465660030780030CC
:1074800058002D002B00286E756C6C2900250020FB
:1074900020202020202020202020202020202043C9
:1074A00074696D65722070726F63657373004576E1
:1074B000656E742074696D65720053657269616CE4
:1074C000206472697665720053656E736F72730023
:1074D00000001A1000000080C0E0F0F8FCFEFF522F
:1074E000696D650043534D41006E756C6C72646349
:1074F000006E756C6C736563000A52656C61793A55
:10750000207377697463682073686F756C64206298
:1075100065204F4E202D2D3E2025750A0052656CAA
:1075200061793A207377697463682073686F756C4A
:1075300064206265204F4646202D2D3E2025750A89
:107540000A0052656C61793A207377697463682028
:107550006973206E6F77202D2D3E2025750A004718
:10756000656E657269632072656C617920746573FC
:027570007400A5
:1075740034722000047120002472200000000000F6
:107584000000000020742000453A200000000000A4
:107594004767200000000000000000009F742000E6
:1075A400F14620000000000000000000AE7420003E
:1075B400D94820000000000000000000BA74200038
:1075C400714C20000000000000000000C87420007E
:1075D400094E20000000000004000800CB4D0020EC
:1075E400A0440020BE000800C34D0020C046002077
:1075F4000C000800D34D0020284500203400020070
:10760400DB4D0020C04400200C000800DE4D0020AB
:107614008C450020000000005F7520007D5D200087
:0876240000000000CDAB011ACB
:08762C00ACE8FF7F0100000043
:020000040027D3
:10FFD400FFFFFFF30000000000202000FFFFFFFFF1
:10FFE400FFFFFFFFFFFFFFFFFFFFFFFFFFFFFFFF1D
:0CFFF400FFFFFFFFFFFFFFFFFFFFFFFF0D
:040000050027FFD4FD
:00000001FF
