:020000040020DA
:10200000F07F00208D222000B3E02000B1E020000E
:10201000B1E02000B1E02000B1E0200000000000AD
:10202000000000000000000000000000B1E02000FF
:10203000B1E0200000000000B1E0200045292000B0
:102040002FE1200035E120003BE1200041E12000AC
:102050000000000013E1200019E12000B1E02000A1
:10206000B1E02000000000000000000000000000BF
:102070000000000000000000B1E0200000000000AF
:102080000000000000000000B1E02000B1E02000EE
:10209000B1E02000B1E02000B1E02000B1E020007C
:1020A000B1E02000B1E02000B1E02000B1E020006C
:1020B000B1E02000B1E02000B1E02000B1E020005C
:1020C000B1E02000B1E02000B1E02000B1E020004C
:1020D000B1E020000000000000000000000000004F
:1020E00000000000000000000000000000000000F0
:1020F0000000000000000000D13B2000E13B200078
:1021000000000000000000000000000000000000CF
:1021100000000000000000000000000000000000BF
:1021200000000000000000000000000000000000AF
:10213000000000000000000000000000000000009F
:10214000000000000000000000000000000000008F
:10215000000000000000000000000000000000007F
:10216000000000000000000000000000000000006F
:10217000000000000000000000000000000000005F
:10218000000000000000000000000000000000004F
:10219000000000000000000000000000000000003F
:1021A000000000000000000000000000000000002F
:1021B000000000000000000000000000000000001F
:1021C000000000000000000000000000000000000F
:1021D00000000000000000000000000000000000FF
:1021E00000000000000000000000000000000000EF
:1021F00000000000000000000000000000000000DF
:1022000000000000000000000000000000000000CE
:1022100000000000000000000000000000000000BE
:1022200000000000000000000000000000000000AE
:10223000000000000000000000000000000000009E
:10224000000000000000000000000000000000008E
:10225000000000000000000000000000000000007E
:10226000000000000000000000000000000000006E
:10227000B1E02000493A2000A13A20000D302000B2
:102280005D3E2000112A2000B1E0200008B5094B76
:10229000FF221A600848094A4824E3690849121ACB
:1022A00098470848084AA3690021121A984700F085
:1022B0000DF8FEE7B4200D404040002021420020F0
:1022C000B80F210028420020EB770020F7B500F07E
:1022D00027FD00F035FE00F077FD00F0D9FA01F09F
:1022E000ABFD0CF0AAF800F023FE00F035F9012058
:1022F0000BF0E2FE05F086F800F0FEFC002000F096
:102300000FFC012000F00CFC4C49002000F0DEFC2A
:1023100005F0CCF90BF003FF04200BF0CDFE48488C
:102320000BF032FF47480BF02FFF00F053FA00206C
:1023300005F0DEF901F0E6FB4348002105F0EEF878
:1023400004F06CFE0BF0E2FE00F09CFE00F0B8FE24
:102350000AF088FA6846082101F0ACFD9DF80730C4
:102360009DF80670394C43EA07276B4603CB206083
:102370006160374801F0D8FD0025615D35480135C1
:1023800001F0D2FD072D314EF7D1334DF1793348AD
:1023900001F0CAFDEC6A4FF47D410220A0473946A6
:1023A0000320A0471A210120A047694608226B6B31
:1023B0000B2098472A4801F0B7FD2A4B18680BF00C
:1023C000E3FE294801F0B0FD284B18680BF0DCFE55
:1023D000274801F0A9FD274B18680BF0D5FE264AC7
:1023E00033681360736853600AF078FB2348002158
:1023F00005F094F82248002105F090F8214B0121C6
:102400009B688120984704F097FE00F0BFFA1E4BAE
:10241000012218601D4B1E481A700BF0DBFF00F004
:1024200071FC02200BF048FE00F072FC05F002F88F
:1024300010F0FF0FF8D101F05BFCF5E769762000A2
:10244000A4FE2000BEFE2000DC400020E377002038
:10245000E3FE200001FF2000C4FD2000A6082100AB
:1024600007FF200038FE20000EFF20001CFE200089
:1024700015FF200050FE2000546C00204441002035
:10248000FC400020DCFC2000186C00200C6C0020BC
:1024900080FE2000F8B52C4C257820704540A90717
:1024A00018D500F0020000F0FF07284E30B100F010
:1024B0006DFA274BD8600123F3700BE0F3784BB132
:1024C00000F064FA234A2249D368C968F7705B1A9E
:1024D0001844D060AA0717D023781C4F13F00306C6
:1024E00006D000F053FA1A4B186101233B710BE040
:1024F0003B794BB100F04AFA164A1549136909694C
:102500003E715B1A18441061EB0717D523780F4E04
:1025100013F0010506D000F039FA0D4B5861012384
:1025200073710BE073794BB100F030FA094A084936
:102530005369496975715B1A184450612078BDE888
:10254000F84000F00BB900BF686100200C6C00205F
:10255000186C0020D86B002008B500F0DBF8024BA7
:1025600000221A7008BD00BF68610020024B1B7872
:102570001843FFF78FBF00BF68610020024B1B7834
:1025800023EA0000FFF786BF6861002020B1012820
:1025900005D1044B18787047034B1868704700202A
:1025A000704700BF6961002020900D4010B5094AB6
:1025B0000020137801331370074B197804F086FF5D
:1025C000BDE81040054B06481968064A002304F090
:1025D0005BBD00BF69610020DA7700206042002007
:1025E00038420020AD252000812810B50C462AD0A5
:1025F000B0F5807F39D0802839D104F0FBFE1D4B27
:102600001D4A18701368002023F00803136052F865
:10261000203C032123F0080342F8203C52F81C3CE4
:1026200023F0080342F81C3C52F8183C43F008031E
:1026300042F8183C042200F091FC104800210322CB
:1026400000F014FC13E00E4B1A6831B142F008029E
:102650001A60002000F082FB05E022F008021A60F8
:10266000084600F087FB204610BD064B196001208C
:1026700010BD00BFDA77002020940D40892620008D
:1026800010940D406042002008B50F480BF0F0FE9A
:10269000C0B108210C480BF0D9FE0C4B196861B190
:1026A0000B4B00221A700B4B0B481B681BB90B4AD3
:1026B00004F0EAFC01E004F029FDBDE80840084808
:1026C00005F0BCB808BD00BF5842002060420020A1
:1026D0006961002020900D4038420020AD25200087
:1026E000DCFC2000084A136823F00403136052F84E
:1026F000203C43F0040342F8203C044B00221A60C3
:10270000034B01221A70704720C40D4010C00D40C9
:102710006A6100200D4A0E49136823F0C00313605C
:1027200052F8203C43F0C00342F8203C094B002201
:102730001A600B6823F010030B6051F8203C43F043
:10274000100341F8203C044B1A60704720A40D4050
:1027500020C40D4000A30D4040C00D4000F0020217
:1027600002F0FF010B4B12B1FF221A6000E019606A
:1027700000F0040202F0FF01074B12B1FF221A60C1
:1027800000E0196010F00100044B1ABFFF221A602C
:102790001860704700A20D4000A10D4040C00D40E0
:1027A000044B1868C0F30720030904BF1030C0B2FF
:1027B000704700BF1C300D40054B1868C0F3C210B5
:1027C00001289ABFC0F1020040034FF40040704757
:1027D00014300D402DE9F04788B0FFF7E1FF174BAB
:1027E00048251C68AB68074698476B688046984741
:1027F0000646FFF7E1FF054600F020FB824600F0A9
:1028000029FB814600F0D6FAB60AC4F34003AD0AAC
:1028100004F0010402930690009601950394CDF80C
:1028200010A0CDF814904146C7F3071207F00F032C
:10283000034801F079FB08B0BDE8F0871C300D407B
:1028400023FF2000F8B500F0A1F80F4B0024D3E9D6
:1028500000673A46B04238BF7A1C15460443C3E9C4
:102860000045DFF828E0DEE90001821B61EB070389
:1028700012196B41CEE9002304F026FD18B1BDE822
:10288000F84004F0B1BCF8BD2842002030420020DE
:102890000F4B104A1A6053F8042C42F0050243F81B
:1028A000042C53F8042C42F0020243F8042C0A4A88
:1028B000136843F001031360084B00221A600422DE
:1028C00043F80C2C012243F8082C0F22DA627047DF
:1028D00014E000E047E8010008200D400C00034030
:1028E000034BD3E90023100A40EA0360704700BF9E
:1028F00028420020034BD3E90023D00B40EA434099
:10290000704700BF30420020054B18601C3B1A681E
:1029100042F001021A601A68D207FCD4704700BF67
:102920002800034010B5064C236823F00103236000
:10293000FFF788FF236843F00103236010BD00BF49
:1029400010E000E038B500F021F80A4C0A4D0123F0
:10295000A370A860FFF776FFA3784BB100F016F8DC
:10296000064AA96893685B1A184400239060A37014
:1029700038BD00BF0C6C0020186C0020D86B002004
:10298000014B1868704700BF64420020074B084A9B
:10299000196804331B681268120442EA0323054ACB
:1029A0000B43106843EA0060704700BF40500D4081
:1029B00048500D404C500D4010B50446114B1B685B
:1029C000DB07FBD50BF0AFFBFFF7E0FF231A062B6D
:1029D000D8BFC41D0C4B220E1A60C4F3074243F843
:1029E000042CC4F3072243F8082CE2B243F80C2C61
:1029F0000BF095FB054B91201C60BDE8104000F0EA
:102A0000ADB900BF50500D404C500D406442002005
:102A100070B501F037F9FFF7B9FF0E4C01230E4EE8
:102A2000A3700E4BB060002591201D6000F0AEF940
:102A3000912000F09FF904F0A7FDA37843B1FFF7C0
:102A4000A5FF074AB1689368A5705B1A18449060A7
:102A500070BD00BF0C6C0020186C00206442002088
:102A6000D86B0020064B1B681B075FBF054B18681F
:102A700080F00800C0F3C00048BF0020704700BFCE
:102A800018C0004018D00040F8B50646FFF77EFF9A
:102A90001E4A01231E4993702C2303FB06134FF695
:102AA000BF711C4DDC68A860236C61649BB213F09D
:102AB000500117460CD0A369DB0618D4164B53F807
:102AC00026301BB12068C0B29847F4E72368F2E7CC
:102AD00013F4D06F0BD04FF440732363FF23636074
:102AE000E36AE162E362236B43F001032363BB7893
:102AF00053B1FFF74BFF094AA96893685B1A184462
:102B0000024B906000229A70F8BD00BF0C6C002050
:102B1000ECFC2000186C002068420020D86B0020DC
:102B20002DE9F04F012885B0064600F2BF802C2425
:102B30004443604B1D1995F920A005F12007BAF117
:102B4000000F9946C0F2B28095F92230002BC0F2F6
:102B5000AD80594801F060F9584A59F804301168BD
:102B6000EC680B43136051686B6895F921B00B4317
:102B700053609168AB6895F822800B439360002303
:102B8000C4F8C83F2B690BEBCA021A6095F82330D2
:102B90005FFA88FC01939DF80430604619462A7D4F
:102BA000CDF80CC0029300F0E3F9029BDDF80CC0F5
:102BB00019466046082200F0D1F94FFA88F84049DA
:102BC0004FEA08389DF9042058F80100012303FA60
:102BD00002F2024348F801204FEA0A3A5AF801008B
:102BE00003FA0BF202434AF801205022A263A26BBF
:102BF00095F8240042F4D062A263022262634FF48B
:102C000040722263AA696262EA69A2627022E26289
:102C100042B2002A0C4614DB95F92510294D41EAF1
:102C2000C20129607979120315594FB2BB402B4379
:102C30001351002200F092F9234A136843F4004331
:102C400013602C2303FB069393F8265020336FB2B6
:102C5000002F1CDB93F807A0EDB25FFA8AF8284634
:102C6000414601223F0300F083F94FFA8AFA3A59AC
:102C7000012303FA0AF313433B5108222846414635
:102C800000F06CF9104A136843F4804313602C235E
:102C900003FB0696F26896F82800136B43F00103D5
:102CA000136305B0BDE8F04F00F058B805B0BDE8BB
:102CB000F08F00BFECFC2000652A200028200D408A
:102CC00020940D4004410D4030D0004001289CBFAD
:102CD000014B43F82010704768420020012808D8B3
:102CE000044B2C2202FB0030C3689A699206FCD484
:102CF00019607047ECFC2000014B00221A607047FD
:102D000000500D40014B08221A60704700500D40E2
:102D1000024BA0221A6050221A60704700500D40EA
:102D2000074A084B1A60084B80321A60074B803202
:102D30001A60074B80321A60064B074A1A607047C8
:102D400000E100E07C42002070420020744200203C
:102D50007842002008ED00E000202000044B4109EB
:102D60001A6800F01F000123834042F821307047A9
:102D70007C420020044B41091A6800F01F00012327
:102D8000834042F82130704770420020044B4109D3
:102D90001A6800F01F000123834042F82130704779
:102DA00078420020024B1868C0F38150704700BF82
:102DB00004200D4008B5FFF7F5FF024B53F8200043
:102DC00008BD00BF44FD200038B5164D164C2B68D9
:102DD000032023F040032B602368062123F04003E7
:102DE0002360012200F0BAF82B68012223F080034F
:102DF0002B602368032023F080032360072100F069
:102E0000ADF80A4A0A4B1A600A4B0B4A19680A4085
:102E1000002AF9D11A685101FCD41A685201FCD574
:102E200038BD00BF20C40D4000C40D4001010200A8
:102E300000200D4004200D4000000101034B044818
:102E40001B6803F007031841704700BF04200D40C2
:102E50000048E801034B04481B68C3F302231841F0
:102E6000704700BF04200D400048E801024B02EB10
:102E7000C10243F82200704780420020F8B507469F
:102E80000E46094D002405EB411547FA04F3DB0714
:102E9000E1B204D555F824300BB1304698470134DF
:102EA000082CF2D1F8BD00BF804200202DE9F74F79
:102EB000019000F0E7FEFFF769FD0199184E4FEA17
:102EC0000139184F0123DFF864A009F18045B8608B
:102ED000B37005F55925D5F8188459F80A404FEA1A
:102EE000C10B24FA0BF448EA0400C0B2E4B2FFF7C5
:102EF000C5FF04FA0BF45FFA88F3C5F81C3449F8EF
:102F00000A40B3784BB1FFF741FD074AB9689368AF
:102F10005B1A184400239060B37003B0BDE8F08FD3
:102F20000C6C0020186C0020D86B002018970D4006
:102F30000248002180220BF00FB800BF8042002021
:102F4000034A044B1A60044B803A1A60704700BF72
:102F500080400D400443002000430020034B01EB60
:102F6000C0011B6843F82120704700BF04430020C4
:102F7000034B01EBC0011B6843F82120704700BFE1
:102F8000004300200E2870B50BD1164B164E1C685E
:102F900044F002051D60356825F03F0343F001034E
:102FA0003360124E336823F0FF031A431143014389
:102FB00031600F4B1B681B06FBD50E4B0E4A1B687E
:102FC00012680E2803F0FC0343EA022308BF064AF6
:102FD0009BB204BF1560034A9BB208BF146018B2CD
:102FE00070BD00BF34000144F486084008700D40F5
:102FF00000700D400C700D4010700D40024B1868B1
:10300000B0FA80F04009704700B7084070B5FFF78C
:10301000BDFC104E104C0123B060104D8F20A370EA
:10302000FFF7B4FE8F20FFF7A5FE286818B104F063
:103030008DFA00232B60A37853B1FFF7A7FC084A51
:10304000B16893685B1A1844034B906000229A7031
:1030500070BD00BF186C00200C6C002008430020DD
:10306000D86B0020064A136843F0020313605368CC
:1030700043F002035360936843F002039360704788
:1030800048200D4007B50C4800F0C6FEFFF7EAFFE8
:103090000A4B1A6842F002021A6000220192019A59
:1030A0000F2A02DC019A0132F8E71A6822F00202C4
:1030B0001A6003B05DF804FBFD2F200054200D4082
:1030C000064A136823F002031360536823F00203D7
:1030D0005360936823F002039360704748200D40CB
:1030E000044B186800F02200A0F120035842584118
:1030F000704700BF4C860840024B186800F0400043
:10310000704700BF4C86084008B50B4B93F9002070
:10311000002A09DB094AED2111601160E3211160E9
:103120001A7862F07F021A70FFF730FC044BD86106
:10313000044B0120D87108BD6E610020388808401A
:10314000186C00200C6C002038B505460C46134B5B
:103150001B689B07FBD4124B93F90030002B01DB5B
:10316000FFF7D2FF0F4BEE221A60691E1A60A21CF5
:1031700043F8102C2144022000F0DCFC013C0A49F9
:1031800024012143022000F0E7FC022000F0EEFCC5
:10319000022000F003FD002038BD00BF4C8608402F
:1031A0006E6100203888084002C001C0044B1A68D4
:1031B00010B142F0010201E022F001021A607047F2
:1031C000008608400B280DD1082A0DD161B1074BAC
:1031D000083111F8012D43F8042F054A9342F8D124
:1031E000002070470120704702207047A4850840E6
:1031F000C485084070B5304E336813F0400308D0E2
:103200002E4D2B68DCB21B0605D52D4BED221A6026
:103210001A60002070BD042CF7D9023C8C42F4DC0B
:10322000E4B2032C21D001190139032000F08AFCFB
:10323000631E24491B010320194300F08DFC032069
:1032400000F094FC032000F0A9FC032000F0B2FC85
:103250000028FAD129681C4B4939C9B219702B686A
:103260001A4D18062B70D0D506E02B6803702B681A
:1032700043702B688370EDE749B289B2042009F0EE
:1032800003FC2978032001F07F0109F0FDFB104BBE
:103290001B7873B933685A060BD5074B1B681B069E
:1032A00003D50C4804F052F903E0054BED221A60F7
:1032B0001A60204670BD00BF4C8608402888084030
:1032C0003888084002C0010C6C6100206B6100204E
:1032D0006D6100205040002010B5134B1A68920712
:1032E000FBD41B685B065FBF104BED221A601A60AF
:1032F0000F4B1B6813B10D4BEF221A600D4A0E4C99
:10330000137803F07F031370E37953B1FFF73EFBAB
:103310000A4A0B49D369C9695B1A18440023D06172
:10332000E371012010BD00BF4C860840388808407A
:103330002C8608406E6100200C6C0020D86B0020A9
:10334000186C002038B5A0F10B04E3B20F2B054632
:1033500013D80B4B1B6813F03F0302D0FFF7BCFFE1
:10336000012304EB8404074A0B3414600BB1FFF70C
:10337000CBFE054BE8B21D7000E0FF2040B238BD27
:10338000488608403C8608401F42002038B50C465D
:10339000002900F08880102800F28780DFE800F024
:1033A000090F1A1C23394253586F738585787A7C2C
:1033B0007F003F4B1B68003318BF012370E03D4B7B
:1033C00005221B6803F07F030B3B93FBF2F30B33E7
:1033D000DBB265E0384B00E0384B1A68043B1B68F1
:1033E00043EA02235CE000230B60354B354A1B683F
:1033F00003F001030B601268900644BF43F0020320
:103400000B60314B1B78002B4BD00B6843F004034F
:1034100046E02E4B00201B780860002B41D0012392
:103420000B6038BD2A4B1A680023D2B2294901EB40
:10343000C3000079904202D851F8333030E00133B4
:103440000E2BF3D128E0244B1B685BB2493B27E0ED
:10345000224B1B68990603D1FFF756FE012300E0BB
:1034600000231F4A1268D207FBD51E4A1568493D42
:10347000EDB20BB1FFF730FF6DB2256011E01A4BD2
:1034800093F900300CE0194B1B7803F07F0307E041
:103490000B2305E01A2303E06FF0170300E0072376
:1034A0002360002038BD022038BD012038BD00BF98
:1034B0002C8608403C860840CC850840D4850840CE
:1034C00000860840248608406D6100201E420020CE
:1034D0004086084054FD2000588608404886084031
:1034E00064860840608608406C6100206B610020A3
:1034F00010B50B4B1B68990603D1FFF705FE01239E
:1035000000E00023074A1268D207FBD5064A146878
:10351000C4F300140BB1FFF7DFFE204610BD00BF5F
:1035200048860840648608404C8608402DE9F843E8
:10353000374B93F90030002B0EDBFFF727FA0446D8
:10354000FFF7E2FDFFF722FA6FF009031B1BC342EE
:10355000F8D44FF0010801E04FF000082D4B1B7824
:103560002BB92D4E336813F0200404D106E0FFF789
:10357000BFFF0028F5D10220BDE8F883274D284F72
:10358000EB7943B1FFF702FA264AF969D369EC7186
:103590005B1A1844D061FFF7F9F9234C0123AB7192
:1035A000E923B8614FF00409236033689A0708D40F
:1035B00009F1FF3919F0FF0903D00620FFF7A4F93C
:1035C000F3E733689B0704D4EE23236023600124D0
:1035D00003E0346814F00204FBD1AB7953B1FFF778
:1035E000D5F9104AB96993695B1A18440B4B90617D
:1035F00000229A71FFF7CAF90123F861EB71B8F163
:10360000000F01D0FFF768FE2046BDE8F88300BF39
:103610006E6100201E4200204C8608400C6C002089
:10362000186C0020D86B0020388808400B282DE942
:10363000F84F8A4611D1082A40F0828000297FD0B5
:10364000414B01F1FF3A53F8042D0AF8012F3F4A8C
:103650009342F8D10020BDE8F88F0C286DD1042AE0
:103660006ED100296CD03A493A480B68DFF8EC90EB
:1036700023F007030B600368DFF8E4B043F00803AE
:103680000360DBF80040D9F800200B68DFF8D4C0F5
:10369000DFF8D48023F070030B60D8F80050DCF81A
:1036A0000030E4B2120244EA036392B2DFF8BCE0F5
:1036B0001A43EBB242EA03430024DEF8002044EA56
:1036C00003060B68D5B223F0070343F001030B6038
:1036D00003682F4643F008030360DBF80000D9F8C5
:1036E00000200B68120223F0700343F010030B60FC
:1036F000D8F80050DCF80030C1B241EA036392B25E
:103700001A43EBB242EA0343DEF8002044EA03081E
:103710005FFA82F9FFF73AF9B6EB080667EB09079B
:10372000F903054641EA5641F0030B4A00230AF02B
:103730002FF8281ACAF800008CE70120BDE8F88F9E
:103740000220BDE8F88F00BFC8850840A885084062
:1037500010880840048808400048E801188808409C
:103760001488084020880840248808401C880840A5
:103770001E4B1870002831D01D4B1B681B03FBD556
:103780001C4B1A6842F002021A601A6842F00102E9
:103790001A601A6817495007FBD50A6822F001021F
:1037A0000A601968134A4907FBD4116841F0020105
:1037B0001160116841F0010111601A685207FCD5CF
:1037C0000D4A8D20136823F004031360D2F8A8314A
:1037D00023F00403C2F8A831FFF7CCBA064A8D20C3
:1037E000136843F004031360FFF7B8BA6D6100205B
:1037F00004200D40048808408C86084010B50C4613
:1038000007285CD8DFE800F0040F1B1F263C425657
:10381000012903D1FFF778FC002010BD002950D109
:10382000FFF75AFDF8E7A1F10B030F2B49D8C8B2F7
:10383000FFF788FD431C0CBF0320002010BD8CB295
:10384000E2B2214B02E08CB2204BE2B2240A1A60B1
:103850005C60E1E731F0070333D101F00100FFF7CD
:10386000A5FC1B4B14F0020F1A68C4F3800014BFB0
:1038700042F0200222F020021A60FFF779FFCBE726
:1038800031F001001DD1134B197010BD01F1180367
:103890001F2B16D80D231049DA0051F8330084424B
:1038A00004DC8B181A790D4B1A60B5E713F1FF335E
:1038B000F1D2B1E7CCB20A4B49341C60ACE701202D
:1038C00010BD022010BD00BFC8850840D08508404B
:1038D000248608401E42002054FD200040860840F7
:1038E00058860840F8B52B4F3D7815F001054FD1AB
:1038F000294B01241C605C609C60A3F59323A3F515
:103900001473F8221A600922C3F89021152270332B
:103910001A6003F59B230B2203F59E731A60A3F52F
:103920009B23A3F5F07340221A601A687F2642F0A9
:1039300020021A6043F81C5CDE62DD61174B1878C8
:10394000FFF700FD164B8E201E60FFF707FA0220DE
:1039500000F018F91349022000F0F4F8032000F0F9
:1039600011F91049032000F0E5F80F4B1878FFF724
:10397000FFFE29460D4803F0D1FD3B7823433B7001
:10398000FFF704F80A4BD8610A4B2046DC71F8BDFA
:103990000020F8BD6E610020A8200D401F420020CD
:1039A00094860840288808406D610020504000201F
:1039B000186C00200C6C002038B503880446CBB18D
:1039C00040F20542934203D000230380032038BD18
:1039D000194B18781A4628B11B7873B1174B1B780E
:1039E00058060AD5822908D1137843B1134B1A78A7
:1039F000520614D440F205432380012038BD08F05C
:103A0000E9FF08F07DFF8021FFF7F4FB0028EDDDE2
:103A100080B208F059FF0A4B1B699847E6E700227D
:103A20001A70084B1D68FFF757FCFFF75BFFAB06EA
:103A3000E0D0FFF769FBDDE76D6100206E610020DB
:103A400050FE20004886084070B5FEF79FFF0E4BE1
:103A5000012199700D490E4A0978906016461C465E
:103A600011B90C4803F072FD0B4B00251D60A378C3
:103A70004BB1FEF78BFF094AB16893685B1A184493
:103A8000014B90609D7070BD0C6C00206D6100203A
:103A9000186C00205040002034880840D86B00206B
:103AA00070B5FEF773FF114B01221D46104C9A7042
:103AB000104AA06011680026042918BF0E490F485B
:103AC0001EBF0B7843F040030B70166003F03EFD01
:103AD000AB784BB1FEF75AFF094AA16893685B1AAD
:103AE0001844024B90609E7070BD00BF0C6C0020AB
:103AF000186C00202C8808406E6100205040002087
:103B0000D86B002010B5094C0021204640220AF055
:103B100023FA074B01221A602E205C60FFF71EF982
:103B2000BDE810402F20FFF719B900BF004000206A
:103B300004F00F4003289EBF014B0001195070474D
:103B40000040002003289EBF024B03EB00104160A1
:103B5000704700BF0040002003289EBF024B03EBCC
:103B600000108160704700BF0040002003289FBF05
:103B7000034901230A6883409CBF13430B607047CD
:103B800028F00F4003289FBF034901230A688340A0
:103B90009CBF13430B60704720F00F4003289FBF6A
:103BA000034901230A6883409CBF13430B6070479D
:103BB00014F00F4003289FBF044B03EB00108068F4
:103BC00000F0070088BF0020704700BF00400020C1
:103BD000024B4FF0FF321A60704700BF04F50F40F0
:103BE000014B01221A6070474CF00F40094B1A68D4
:103BF00012F4801F1A46F9D1043B196821F4803170
:103C000019601168C903FCD41A6842F400321A60C2
:103C1000704700BF04200D4070B5164CFEF7B6FE8D
:103C20002378154D3BB1154A296813685B1A034484
:103C3000136000232370124E686001230220316854
:103C4000637003F0A9FA30BF022003F089FA3060F4
:103C5000FEF79CFE63784BB1084A074953684968F0
:103C60005B1A03445360034B00225A7001232860FF
:103C7000237070BD0C6C0020186C0020D86B0020E5
:103C80000C43002070B5144B1A681C4612F0030F49
:103C900021D0124B1A685101FBD41A685201FCD58D
:103CA0000025FEF73FFEFFF7A1FF2560022003F08D
:103CB00057FA0B4B1860FEF769FE0A4B0A495A780F
:103CC00032B10A4C4E6862685D70921B02446260B9
:103CD000012208601A7070BD58200D4004200D406C
:103CE0000C4300200C6C0020186C0020D86B0020C6
:103CF0002DE9F0413E4B1C6814F03F0413D13D4BBD
:103D000053F8243023B1984768B10134052CF6D11B
:103D1000394D2B783BB1FEF733FE0446FEF736FEF5
:103D2000201A092803D8BDE8F041FFF775BF002C21
:103D3000F9D0324B1A6822F400321A60304A116806
:103D4000C902FBD4196841F4803119601368DB03A0
:103D5000FCD5FEF71BFE201A092803D8BDE8F04168
:103D6000FFF744BF6328274F02D92B78022B00D0DE
:103D70000123254E3B60254C0220316803F00CFAEC
:103D8000FEF704FE2378224D3BB1224A29681368CE
:103D90005B1A03441360002323700123686063707F
:103DA00003F08AFBB8B14FF00008FFF71FFFC7F818
:103DB0000080022003F0D4F93060FEF7E7FD63785D
:103DC00083B1144A696853685B1A034453600F4B0C
:103DD00083F8018006E0FEF7D3FD0028E3D030BF72
:103DE000BDE8F081012328602370BDE8F08100BFA9
:103DF00048860840104300206F61002000200D40DD
:103E000004200D4058200D400C4300200C6C002075
:103E1000186C0020D86B00200023064A52F82310AB
:103E2000814206D011B942F8230070470133052BB7
:103E3000F3D1704710430020054B00221A60054A59
:103E4000136843F004031360034B02221A70704797
:103E500058200D4010ED00E06F61002070B5FEF7B6
:103E600095FD104E104C0123B060104D9020A370B2
:103E7000FEF78CFF9020FEF77DFF286818B103F055
:103E800065FB00232B60A37853B1FEF77FFD084A42
:103E9000B16893685B1A1844034B906000229A70D3
:103EA00070BD00BF186C00200C6C00202443002063
:103EB000D86B002030B5184B1A78431E3AB9174A10
:103EC0001278122A03D1164A12784B2A03D001F530
:103ED0002011273117E04A0802F12814B4F1281FF5
:103EE00004D014F8015D03F8015FF7E701F5201134
:103EF00027310023934205DA11F801598418E5545B
:103F00000133F7E730BD074A914204D011F8012987
:103F100003F8012FF7E730BD2B0028002A00280006
:103F200029002800270028000FB407B504AA52F87A
:103F3000041B0448019200F035F803B05DF804EB6F
:103F400004B07047604000201FB5084C8DE80300A6
:103F5000114602A81A460294CDF80CD000F022F8BF
:103F6000009B00221A7004B010BD00BF27E22000A1
:103F700070B505460C46102C07D92B6868680849AF
:103F80001022984750B9103CF5E734B12B686868A7
:103F90002246BDE8704002491847204670BD00BF68
:103FA000510021002DE9F04F80468FB00691079215
:103FB0000026069B1B78002B00F05F83069B1C46A7
:103FC00013F8012B1AB9069B9C4203D10FE0252A56
:103FD000F5D1F8E7069BD8F80400E51A0699D8F859
:103FE00000302A469847002840F02A832E44237840
:103FF000002B00F042836378611C002B00F03D83AE
:1040000000240A4611F8013B2B2B11D006D8202B97
:1040100011D0232B12D144F00804F2E72D2B04D049
:10402000302B0BD144F01004EBE744F00104E8E737
:1040300044F00604E5E744F00204E2E7A3F13101AD
:1040400008290DD8134600251A4613F8011BA1F1C3
:104050003000092811D80A2202FB0515303DF3E78C
:104060002A2B09D1079B01321D68191D002D0791CC
:10407000B8BF44F0010400E0002513782E2B1CD1BA
:104080005178531CA1F1300009280ED81946002799
:104090000A780B46A2F13000092801F101010FD87E
:1040A0000A2303FB0727303FF2E72A2906D1931C96
:1040B000079A111D0791176802E013464FF0FF376A
:1040C0001A786C2A09D15A786C2A02D144F08004FB
:1040D0000AE0013344F060040BE0682A09D15A7801
:1040E000682A03D144F02004023302E0013344F093
:1040F00040041A78642A3CD01FD8462A48D00DD8EC
:10410000252A5AD003D8002A00F0B78257E0412A66
:104110004AD0452A53D144F4424450E0582A31D081
:1041200004D8472A4BD144F4A13448E0612A38D05E
:10413000632A44D144F4A06441E06E2A3AD007D8FF
:10414000662A22D027D3672A28D0692A11D036E0E0
:10415000732A2CD006D86F2A11D0702A2FD144F49C
:1041600040742CE0752A07D0782A28D144F4C8542A
:1041700025E044F4245422E044F410641FE044F4A5
:1041800088541CE044F4B24419E044F4007416E08E
:1041900044F4844413E044F4024410E044F48134D1
:1041A0000DE044F4C1340AE044F4E13407E044F49F
:1041B000806404E044F4E06401E044F4C06401334A
:1041C000069304F4E063B3F5806F00F0AA8116D87B
:1041D000B3F5807F2BD0B3F5407F7FF4EAAE079B29
:1041E000A04914F4804F03F104029F4818BF084609
:1041F0000DF1330107920F461A680023C5E1B3F5AC
:10420000C06F08D0B3F5E06F00F03182B3F5A06F56
:104210007FF4CFAE00E2D8F80030D8F8040093491C
:1042200001229847002840F00B820136C1E6002F9A
:10423000ACBF24F01004012714F40053039304F0DE
:10424000E00337D0402B17D008D8DBB1202B2AD180
:10425000079B1A1D079293F9002017E0602B11D0DD
:10426000802B20D1079B073323F0070303F10802BB
:104270000792D3E900230AE0079B1A1D0792B3F9BE
:10428000002003E0079B1A1D07921A68D317002A23
:1042900073F1000109DA524263EB4303CDE90023D5
:1042A0004FF0010933E000220023CDE900234FF055
:1042B00000092CE0402B16D007D8CBB1202B20D101
:1042C000079B1A1D07921A78EEE7602B10D0802BFF
:1042D00017D1079B073323F0070303F10802079266
:1042E000D3E90023E1E7079B1A1D07921A88DBE751
:1042F000079B00211A1D07921B681846CDE9000193
:10430000D5E700220023CDE900234FF0000904F493
:10431000C053B3F5805F0CD0B3F5C05F33D0B3F5B5
:10432000006F4FD1DDE900230DF1360ACDE90423FA
:1043300004E0DDE900230DF1360A15E0DDE9042390
:1043400013433AD0DDE904010A22002309F020FAE0
:10435000DDE9040130320AF8012D00230A2209F0B8
:1043600017FACDE90401E9E752EA030125D002F08A
:10437000070130310AF8011DD10841EA4371D8081C
:104380000A460346F0E7384B14F4804F0DF1360A25
:10439000344908BF1946DDE9002352EA03000CD076
:1043A00002F00F00085C4FEA131E0AF8010D100915
:1043B00040EA037002467346EFE70DF1360BCAEB95
:1043C0000B0B03E00DF1360A4FF0000B41F608022B
:1043D00041F208035F4502EA04028CBFCBEB0707FA
:1043E00000279A4202D1002F08BF012741F6080199
:1043F0008A4207EB0B030DD1DDE9000150EA01020F
:1044000008D01B4914F4804F1A4A4FF0020C18BF11
:104410000A4602E04FF0000C62460399A1B1B9F1DF
:10442000000F0AD104F0060102290AD00629124918
:1044300004BF4FF0010C0A4606E04FF0010C0F4A92
:1044400002E00F4A4FF0010C63449D428CBFED1A0D
:10445000002514F0010922D1E30613D52F444D465F
:104460001DE000BF1E0021002F0021004F00210091
:104470004300210040002100460021001F0F2100C1
:104480003C0F210040462946CDF80CC00092FFF7B2
:104490006FFD009ADDF80CC0002840F0D180BCF11F
:1044A000000F0DD01146D8F800306246D8F804004D
:1044B000CDF800C09847DDF800C0002840F0C0806B
:1044C0003C465E44102CD8F800300DD9D8F80400D2
:1044D0006C491022CDF800C09847002840F0B08009
:1044E000103CDDF800C0EDE75CB1D8F80400654988
:1044F0002246CDF800C09847DDF800C0002840F003
:104500009F80D8F80030D8F8040051465A466644D7
:104510009847002840F094803E44B9F1000F79D0CC
:1045200073E0079BD3F800A01A1D0792BAF1000FA1
:1045300009D05346994699F800200133002AF9D151
:10454000CAEB090903E0DFF840A14FF00609002F8C
:1045500002DBB94528BFB9464D458CBFC9EB0505FF
:10456000002514F0010405D140462946FFF700FD5F
:10457000002865D1D8F80030D8F8040051464A46E2
:10458000984700285CD14E443EE052EA030E0ED01C
:1045900002F00F0E10F80EE04FEA131C01F801EDC7
:1045A0004FEA121E4EEA037E72466346EDE70B4663
:1045B0007F1A01BF3022012701F1FF3301F8012CDE
:1045C00003377822BD4203F8012C4FF0300203F884
:1045D000022C88BFED1B4FF0230298BF002514F07A
:1045E0000104A3F1030903F8032C04D14046294632
:1045F000FFF7BEFC20BBD8F80030D8F804004946CD
:104600003A469847E0B93E4424B140462946FFF770
:10461000AFFCA8B92E44CCE4079B012D03F10402A2
:104620001B688CBF05F1FF35002514F001040792CB
:104630008DF8203008D140462946FFF799FC10B18B
:104640004FF0FF301AE02E44D8F80030D8F80400BC
:1046500008A9012298470028F2D16F1C2CB14046CE
:104660002946FFF785FC0028EAD13E44A1E4079BD8
:104670001A1D1B6807921E609BE430460FB0BDE810
:10468000F08F00BF0E002100480021002DE9F0410D
:10469000304B314D1C688442304C06D0304A186093
:1046A000002313602F4A13704DE02E6823680E44D8
:1046B000B6F5C87F2E60134449D32B48DFF8B88085
:1046C00083FB0001294BDA6A7243264ED31709F0A7
:1046D00043F833780BB988F80030254A98F8001071
:1046E000072B42F82100174602D80133337003E04C
:1046F0004FF4F05000F072FB98F8003000220133C4
:1047000003F0070388F80030134631788A4204DA50
:1047100057F8220001320344F8E793FBF1F3104EFF
:10472000336000F055FF68B10223366800F8103B93
:104730004FF4807330210F4A96FBF3F309F087FDA5
:1047400000F06AFF002323602B60BDE8F081236046
:10475000BDE8F081384F0020304300205443002052
:1047600028430020706100200040420F1C69002097
:104770003443002061002100716100202DE9F743DE
:10478000384B1C68002C69D0374B1B68002B64D059
:10479000364D4FF480420023E5FB0023D60B46EA5A
:1047A0004346E1177143002304FB0313A6FB0401F6
:1047B0002F4C194423682F4A10EB030841EBE3798F
:1047C00040460023494608F0C7FF2B4B2B4903FB0B
:1047D00000832360B1F90030C0184FEAC03455BFE0
:1047E00004F5F424A4F5F42404F59074A4F590746D
:1047F00094FBF5F42B466343002CBDBFA3F5804228
:104800004FF4004392FBF3F303F58043ACBFC3F3D3
:10481000CF339BB280B2C31A0B8084EAE473A3EB5C
:10482000E473B3F5807F13DD00F0D2FE50B10223B4
:1048300000F8103B3021124A2346009609F007FD8C
:1048400000F0EAFE002CCCBF4FF480746FF0FF0440
:104850000C4A13682344136000E01C46204603B052
:10486000BDE8F08328430020384F002040420F006D
:104870002C4300200040420F00C0BDF0F059002042
:104880006B0021005443002008B54FF6FF7008F07C
:104890009BF900221448822102F036FE01F0DAF979
:1048A00001F0F2F9002001F0E1F8104BFF221A703C
:1048B0000F4A0023136013710E4A13600E4A0F490A
:1048C00032F81320D20302F5F42202F5907292FB23
:1048D000F1F20B4941F8232001330C2BEED1BDE856
:1048E000084009F01BBD00BF684000201869002087
:1048F0005C690020284F00208CFE200040420F0001
:104900001C690020F7B503880446B3F5347F1AD03C
:1049100007D8002B40F0848044480C2109F064FD46
:104920000BE040F2D722934238D040F20732934254
:1049300034D075E03D4809F060FD3D4B1B684BB934
:104940004FF434732380394809F069FD0028F1D110
:10495000002068E0374B1B682BBB02F0B9FEC0F3A8
:104960000A01324809F040FD40F2D72315E03B68C8
:10497000FBB93968002950D0A1EB910502F0A8FEDF
:104980002D4B1B689B08B0FBF3F101FB13002918AA
:10499000264809F029FD40F207332380234809F017
:1049A0003EFD0028D4D0224B234F1B68002BE0D0C3
:1049B000DDE7224809F05AFC05460028D9D102AEAD
:1049C00006F8020D08F006F829460E2008F05CF8FB
:1049D00007F096FF324680210DF1070300F0D2FE6A
:1049E000061EC6DDB0B207F06FFF29462A461348FF
:1049F00001F074F8054618B9114809F0C5FBB8E78D
:104A0000104831469DF80620FFF78EFA9DF80730D2
:104A1000EB739DF80630AB73ABE74FF40061B7E77B
:104A200000232380032003B0F0BD00BF6C430020AF
:104A3000644300208C430020584300209B00210049
:104A4000A3002100C6002100244B13B59B689847A2
:104A5000002808DA07F042FF0146214802B0BDE80D
:104A60001040FFF761BA0A2008F016F84FF6FF73FE
:104A7000984219D008F036FAA0B10F2008F01EF8BD
:104A800020B10F2008F01AF8C47900E004460A208B
:104A900008F002F821460246124802B0BDE8104074
:104AA000FFF742BA08F044FA0F2008F007F890B177
:104AB0000F2008F003F8C4790A2007F0EDFF214623
:104AC00002460948FFF730FA084BDB68019302B051
:104AD000BDE8104018470446EEE700BF44FE200042
:104AE000E5002100000121002501210070FE2000C9
:104AF0002DE9F043064685B010200F4607F0DEFF93
:104B00003A4B04461B6883B9394B1B680BB93948CB
:104B100000E0394809F038FB3046394604220123C9
:104B200005B0BDE8F0430BF0C3B834490AF03FFCD0
:104B300088B9334B0A201A78511C11F0FF010ABFC3
:104B4000023219701A70197807F09EFF01210B20AC
:104B500007F09AFF00E02B4C01210E2007F094FF94
:104B6000204609F083FB284980460F2007F09AFF72
:104B7000264B5B689847B0F1000901DA2448C9E781
:104B8000204631463A4600F0A9FF1D4B054680B944
:104B90000CB1E57900E02546204693F8009009F035
:104BA00065FB294600904A4643461A48FFF7BCF980
:104BB000B2E780F80E900CB1E67900E02646204678
:104BC0001F7809F053FB81462868AC7B0AF0A5FCEE
:104BD000CDF800900290019431463A4643460E4883
:104BE000FFF7A2F905B0BDE8F08300BF64430020E1
:104BF000604300204B0121008B012100DD0D2100CD
:104C00007261002093002100E377002044FE200021
:104C1000B7012100E40121001F0221007FB5254CCE
:104C20000420A66A0DEB0001B04708B1224828E035
:104C30000199E56A21F0030141F00401019104208A
:104C4000A84708B11D481CE0052002A9B04708B1DB
:104C50001B4816E00299052021F001010291A847A6
:104C600008B118480DE001200F21A84708B11648E7
:104C700007E00C20236B0DEB00010422984718B1CC
:104C8000124809F081FA12E0FFF7FEFD01F072F818
:104C900001F07AFA00F0CEFC0D48042109F0B3FCD3
:104CA0000C48082109F0AFFC0B4B01221A6004B03C
:104CB00070BD00BFC4FD20005E022100A5022100DE
:104CC000F50221003C0321008C032100C7032100D1
:104CD00090690020936900206043002008B5044BD0
:104CE00008B11B6A00E05B6A9847012008BD00BF5D
:104CF000C4FD200038B50E4B1B68BBB100F0A2FE0E
:104D000005462C1D07F066FE2146102007F0CAFE5E
:104D1000084B094800219B6898470CB1E97A00E0EC
:104D20002146BDE838400548FFF7FEB838BD00BF52
:104D30006443002070FE2000554E20001004210026
:104D400038B5114B1C68012C1BD1104B1D68C5B91F
:104D500029460F481C6002F0E1FB29460D4802F08D
:104D6000DDFB29460C4802F0D9FB0C4B0C4A1968B4
:104D70000C4B0D48002914BF11461946FFF7D4F813
:104D800000E00024204638BD604300206843002036
:104D90006840002088400020784000208C4300209C
:104DA000280421003404210039042100034B4FF46E
:104DB00000621860024B1A60704700BF8C430020ED
:104DC00058430020014B00221A60704744440020E1
:104DD000014B1870704700BF18690020014B186024
:104DE000704700BF40440020B0F5C85F024B28BFA9
:104DF0004FF4C85018607047584300202DE9F04127
:104E00000F4B1D68D5B90F4B1B68BBB10E4F3868EF
:104E1000A0B10A26B0FBF6F4041B02F059FC3A6874
:104E20002B46B2FBF6F2B0FBF2F101FB1201074890
:104E30002144074ABDE8F04102F026B9BDE8F081FF
:104E40008C43002064430020404400209043002015
:104E5000F54C200038B508460D461146144604F0BE
:104E60008FFF102007F02AFE20B1102007F026FE49
:104E7000C17900E001462A4623460348FFF754F86B
:104E8000BDE83840FFF7BABF4F04210008B5084B12
:104E90001A68012A0AD10022064882211A6002F00B
:104EA00015FBBDE80840044809F06EB908BD00BF15
:104EB00064430020784000206E0421002DE9F04773
:104EC0000388BAB080464BB140F2133293420AD005
:104ED00000230380032093E000F0C6FA40F213336E
:104EE000A8F8003001E0822933D0012088E0464F45
:104EF000902606FB097603AA3046D6F8881007F0FC
:104F0000C3FEC0B270B39DF824309DF81C40022B44
:104F10000ABFB4FA84F500256D09012C23D1902332
:104F200003FB0973304603F1880AB3F8881007F0D1
:104F300061FDBAF80410042007F0A6FD20469AF897
:104F4000061007F0A1FD314809F07DFB6CB1FFF7B9
:104F50007BFD2E4809F084FB0FFA80F9B9F1FF3F81
:104F6000C5D132E005460024EDE7002DF1D09023B5
:104F700003FB09770123019300943046D7F888108A
:104F800013AA23AB00F09EFC0028E2D000F05AFDEB
:104F900001460028DDD015A804310AF008FA0028DF
:104FA000D7D0D7F880302599591A04D01848FEF781
:104FB000BBFFFFF76BFF9DF89C101F29C9D915484F
:104FC000FEF7B2FFFFF762FFC3E7134809F048FBA3
:104FD00000B2431C80D0114B53F82040206807F0EA
:104FE000C9FDA168627B237B60680AF061FE2046F0
:104FF00000F0FCFD00F048FE074809F024FBE4E760
:105000003AB0BDE8F08700BF9869002090690020A1
:1050100088042100B80421009369002070690020F1
:105020002DE9F04F0388B7B007461BB1B3F5277FD2
:1050300015D098E0964A974801211371136009F042
:10504000D3F9FDF74DFC944B18600EE0DAF8003010
:105050005BB9904809F0D1F94FF427733B808D4834
:1050600009F0DDF9002800F08881DFF87882D8F8AF
:105070000030002B77D1DFF870A2DAF80030002B77
:1050800071D1FDF72DFCDFF81C92064699F800302F
:10509000DFF804B2814C23B1DBF80030C31A802B57
:1050A0001AD97F4B18680D9002F012FB36AB00F056
:1050B0000300184410F8A45C99F80030AB4209D002
:1050C000E36A294601209847764B774829461D70A8
:1050D000FEF72AFFCBF80060236A9847E569A847E6
:1050E00090B96E4B9B699847002834D0FDF74EFC71
:1050F0000C90A84740B9FDF749FC0C9A6FF4A373D4
:105100009B1AC342F5D426E0684E23697F213046BE
:105110009847236BC6F888000CA904220C209847F6
:10512000D6F8881099F800206148FEF7FDFE0C9B28
:10513000002507930DF12F03009301953046D6F813
:1051400088100FAA1FAB00F0BDFB80B95948D6F8F4
:105150008810FEF7E9FED8F80030002B3FF476AF58
:10516000636A984781E700233B80032005E121AB78
:1051700093E803009DF88C30DFF864B15A1C8BF87B
:1051800000209DF84D20424E012A86E8030001D1FF
:105190004948EFE0FF2B01D14848EBE02B469DF852
:1051A0008D10DFF8489111B9454A9A5A02E01FAABA
:1051B0001A44528AD20302F5F422424802F5907250
:1051C00092FBF0F249F813200233182BE9D19DF835
:1051D000C42052B9324B042118683B4B0E900E98F4
:1051E00018603A4B19805A8019E0BDF8C650102D4E
:1051F00012D82A4632A9344808F0D4FD4FF0FF33C4
:10520000B3FBF5F36B435B42B3FBF5F12F4A15801B
:1052100005FB1135558002E02D48294699E79DF898
:10522000A6302BB92B4808F0AFFF00F0C5FF5FE0B8
:1052300000F0A4FE9DF8AA30042B25DCBDF8A810D0
:105240009DF8A700089300F0E1FD8446089B062224
:105250001FA902FB03133A332CAD0893089B0635B4
:105260009D4245D035F80A3C15F8061C009335F8E8
:10527000083C604601930122174BCDF824C000F092
:105280008BFEDDF824C0E9E71448194661E700BF4A
:105290005C6900207C4300205C430020C4FD2000AA
:1052A0008F00210073610020E7042100B04300203B
:1052B000C3062100050521002905210068052100FC
:1052C0008CFE200040420F004C69002064690020E1
:1052D0008A052100BB05210093002100F40521006F
:1052E00018690020644300208C4300201C690020C2
:1052F0009BF800301F2B3CD811A800F065FB00285C
:1053000037D011A800F0B2FBBDF85A0007F05CFCE2
:10531000079BD9F808001A49181A01F029FE012341
:10532000C8F80030174D9DF84D302B60FFF766FD33
:1053300008F0F3FF3168337900911349BDF85A2022
:105340000978124801919DF88D1002919DF8C410C2
:105350000391BDF8A81004919DF8AA100591296841
:10536000FEF7E2FD11A807F063FA0A2008F0F4FE48
:10537000F1E6074808F008FFEDE637B0BDE8F08F2A
:105380005C690020444400201869002026062100A2
:10539000A906210040F2B32273B503880446934264
:1053A0000AD0B3F52F7F44D0002B3AD109E0254A2B
:1053B000138040F2B32323802248FFF731FE0128F7
:1053C00033D9214E356835BB204B1B68002BEED0FE
:1053D0004FF47D4007F0F8FB1D4B042218681D4B6D
:1053E0000190019818601C4B1A805D8000F0E4FE6B
:1053F00001233360194B1D7007F0E0FB184D014687
:105400002A792B681748FEF78FFDFDF7BFFA29466A
:1054100001F0AEFDD5E701F073FD4FF42F7323804B
:1054200005E00023038003200AE0002008E00120BB
:1054300006E0054B1B68002BF9D1FFF725FAC0E702
:1054400002B070BDF2590020644300208C4300205C
:105450008F0021004C690020646900201869002039
:105460005C690020000721002DE9F04F4B4D4C4CAA
:105470002968236887B0994238D04A48FEF754FD1E
:105480002B68236032E0484F84013D1905F108087C
:10549000D8F804303E46002B2FD14448297A6A6858
:1054A000FEF742FD3B5D3519012B54D04BD26C69A0
:1054B000697FEB7FAA7F8DE8120029693C4E02913B
:1054C000297F3C4803913C49002C08BF3146FEF738
:1054D0002BFD95F820301BB13848A969FEF724FD53
:1054E0000A2008F039FE364809F0ADF8344809F0D2
:1054F000B7F800B2431CC6D14CE0D88900F070FC6C
:10550000D8F8041095F808A0D5F80490B1F80EB0BA
:1055100008B1C58800E00546B1F812800B8A301941
:105520005FFA88F10430059301F084F9059B03903C
:1055300001930095CDF8088051464A465B462148C4
:10554000FEF7F2FCAEE7022BCDD117481034204411
:1055500008F01AFEC7E7297F95F81DC0EB7FAA7FE8
:1055600000912969DFF848E0019113491648BCF120
:10557000000F08BF7146FEF7D7FC95F820301BB12D
:105580000E486969FEF7D0FC3444A1690F48FEF764
:10559000CBFCA8E707B0BDE8F08F00BF484400206F
:1055A0004C460020870721004C4400209F07210023
:1055B00081072100E8072100840721000408210059
:1055C00074610020BD0721000C0821001E08210085
:1055D00008B50C4809F02BF8431C0CD00A4B0B49BA
:1055E00003EB80131A1D03C982E80300084A18461A
:1055F0001268DA6008BD074A00201368013313609F
:1056000008BD00BF746100204C4400205C6900208C
:10561000284F00204844002008B5044808F0F9FF4E
:10562000BDE80840024801F091BF00BF746100204E
:10563000684000200148082108F0E5BF746100209F
:10564000F0B51F461446A9B0402205460E4601A8F3
:10565000002108F081FC012302228DF81A304FF45A
:105660007D438DF814208DF81C20ADF820308DF886
:105670001E7034B1032301A821468DF81B3009F0B8
:1056800091FE03238DF81D3003A84FF47D4312498A
:10569000ADF8223009F086FE01A829460AF039F853
:1056A000C4B2ACB100215C2211A808F055FCBDF9D0
:1056B000B8302819ADF844302F9B311B11AA8DF852
:1056C00046300AF08FF8431C03D02044C0B200E0FB
:1056D000204629B0F0BD00BFE37700202DE9F34755
:1056E0000A9F8146884692460B9E1D460BB90020B4
:1056F00040E00029FBDB1A4607F0C6FA0228044600
:10570000F5DD06B13070AB7E5345F0D1284607F089
:1057100061FA0028EBD0284600216A4607F076FAA5
:105720000028E4D06846154909F041FE30B167B160
:10573000384600215C2208F00FFC06E0684610495C
:1057400009F035FE0028F2D1D1E7AB7DE4B25BB1C0
:10575000C4EB080109EB0400C9B23A460AF036F975
:10576000431CC4D00444E4B21EB13278FB78134425
:105770003370204602B0BDE8F08700BFE377002019
:10578000DD0D21002DE9F0417E29A8B007460E4627
:105790001446984601DC002075E00021402201A853
:1057A00008F0DAFB0123022203218DF81A308DF86C
:1057B0001C208DF81B208DF819308DF81D1007F076
:1057C000FDF9ADF8220007F0F9F93049ADF82000F5
:1057D00003A809F0E7FDFF2301A839468DF804303E
:1057E0008DF8053009F095FFC5B2002DD3D000210A
:1057F0005C2211A808F0B0FB11AA7819711B0AF0FD
:1058000007F8421C02D14FF0FF303CE02844C5B2FB
:1058100004B12570A81CC4B2B8F1000F01D088F8FB
:1058200000403819311B11AA0AF00FF8431CEAD0C6
:105830002044C4B2311B381911AA0AF06AF8411C7D
:10584000E1D02044C4B211AA3819311B0AF085F8FE
:10585000421CD8D02044C4B23819311B11AA0AF016
:105860000DF8431CCFD02044C5F57F43C4B2FE33AE
:1058700023447819711B11AAADF8483009F0D4FF00
:105880000130C0D0204628B0BDE8F081E377002089
:1058900030B505460C4699B0084903AB03C983E807
:1058A0000300074BA8181B78A11A01AA8DF8143021
:1058B00009F0CBFF012019B030BD00BF5C690020AA
:1058C000186900202DE9F7430A9E814688461F4645
:1058D0001446002A4DD000294DDB07F0D5F90546C6
:1058E00018B9274808F050FC41E0217E227C0129AC
:1058F00000D9D2B199F8010099F800300090214800
:10590000FEF712FBE18B2048FEF70EFB04F10800C6
:1059100006F08EFFA18B1D48FEF706FB204606F021
:1059200087FF0A2008F018FC25E006B13070EDB2C0
:1059300037B1384600215C2208F00EFBFF233B7490
:10594000A37D7BB1C5EB080109EB0500C9B23A465E
:105950000AF03CF8431C03D10D4808F015FC0AE09E
:105960002844C5B21EB13278FB7813443370284600
:1059700002E0104600E0002003B0BDE8F08300BF65
:10598000280821004F082100AC082100D20821007E
:10599000DC08210038B5054600F0FAFE08B1002009
:1059A00038BD084808F075FD04460028F7D0201DD2
:1059B000294609F0FCFC18B9204608F0A0FDF3E7E1
:1059C000204638BDD046002038B50546FFF7E2FF37
:1059D000044668BB00F0E2FE50B3164808F0A2FD92
:1059E000044618B33822002108F0B6FA04F1340056
:1059F000082108F008FE201D294609F0D3FC28469E
:105A00000D4909F0D4FC38B928460C4909F0CFFCFF
:105A1000003018BF012000E001200023E3730123C0
:105A20002073A3730648214608F051FD00F0FCFEE8
:105A3000204638BDA44000209B0021009300210097
:105A4000D046002008B500F0A3FE08B1002008BD34
:105A5000054808F01EFD0028F8D0437B13B908F074
:105A60004EFDF8E708BD00BFD046002070B50446E3
:105A700000F08EFE08B1002070BD164B1E68002E8F
:105A8000F9D1FFF7DFFF05462CB12046FFF79CFF59
:105A9000044608B9EFE73446AC4215D00DB1E97AB7
:105AA00000E0294604B1E67A0B483246FEF73CFA9C
:105AB00064B1012363734FF4C060FFF78FF9FFF700
:105AC0009DF90DB100236B73012070BD2046FFF7D7
:105AD00085F9F6E78C430020010921002DE9F04FFC
:105AE00085B004468B46039200F052FEDFF8C48076
:105AF000064628B14FF0000A4FF6FF75544638E0CD
:105B00002046FFF761FF04460028F3D000F1340976
:105B1000484608F08CFD85B22FB27B1C28D0224865
:105B200008F000FD824620B306F0ECFFCAF8000042
:105B3000C8B1039B032204EB8704CAF808308AF833
:105B40000D20CAF804B08AF80C604846C4F814A0C6
:105B500008F05FFD154839465246FEF7E5F9C8F8EA
:105B6000006050461CE051460F4808F0EFFC00E092
:105B7000B24600F00DFE2DB20146BAF1000F02D080
:105B8000DAF8002000E0524601922B46CDF800A042
:105B900007482246FEF7C8F90123C8F80030002064
:105BA00005B0BDE8F08F00BF984000202509210016
:105BB0005A092100D446002038B5044600F0E8FD1B
:105BC00008B1002038BD002CFBD004F1340008F0EF
:105BD0003AFD05B26B1CF4D0294604EB850402485B
:105BE000FEF7A2F9606938BD8A09210010B50446A4
:105BF00040B1006806F0A8FF2146BDE81040024809
:105C000008F0A4BC10BD00BF9840002038B5054680
:105C1000284608F03CFBB8B92846FFF7CDFF0446FC
:105C200068B104234373094808F0AEFA6068A168BC
:105C3000627B237B0AF03CF82046FFF7D7FF214622
:105C40000348FEF771F9E3E738BD00BFB70921004B
:105C5000D409210038B500F09BFD88B9094808F047
:105C600018FC044664B1204608F049FC054620466D
:105C7000FFF7CCFF0023E3730123A3732C46F1E766
:105C800038BD00BFD046002038B500F081FD10BB04
:105C9000114808F0FEFB0446ECB1204608F02FFC4A
:105CA000A3890546ABB9637C9BB9204608F0EFFA9F
:105CB00078B100F073FD60B12146074808F0F3FBAE
:105CC00000F0B2FD2046FFF7A1FF0448214608F08E
:105CD0003DFC2C46E0E738BDD0460020A440002023
:105CE00070B505460E4600F053FD08B1002070BDAA
:105CF0000B4808F0CEFB04460028F7D0237B4BB9B5
:105D0000637C3BB92046314608F0D1FA10B12DB181
:105D10002C6070BD204608F0F2FBECE770BD00BFC0
:105D2000D046002070B5054600F032FDE0B92846A7
:105D30000E4909F03CFB06460D4808F0AAFB044654
:105D400090B1E37B63B1637C23B94EB1E37B013B4C
:105D5000E37305E02846211D09F029FB0028F5D151
:105D6000204608F0CCFBEAE770BD00BF930021009D
:105D7000D046002008B50A4808F088FB094808F01A
:105D8000C1FB094808F0BEFB0848FFF71DFE084BA1
:105D900018600848FFF718FE074B186008BD00BFE1
:105DA000D0460020A4400020984000209B00210005
:105DB0006C690020930021006869002008B5074B3A
:105DC0001B68012B08D1084608F045FD08F0DFFCF0
:105DD000BDE80840FFF74ABE08BD00BF644300208D
:105DE00010B5044600F0D4FC08B1002010BD0648F0
:105DF00008F04FFB0028F8D08388A34202D008F0B7
:105E00007EFBF7E710BD00BFC84A0020F8B5064684
:105E10000D4609B90020F8BDFFF7E2FF074600284C
:105E2000F8D100F0BBFC0028F4D0124808F07AFB4F
:105E30000446A8B14FF0FF33B3FBF5F36B435B426D
:105E4000B3FBF5F205FB12338680C58003810C306D
:105E50002061E76008F01AFB0748214608F037FB8D
:105E600031462A460548FEF75FF800F0DDFC204683
:105E7000F8BD00BFB0400020C84A0020FD09210045
:105E80007FB50C46064600283ED000293ED0CA8980
:105E900083889A423CD100F081FC054600282FD02F
:105EA00002A8A11D257D09F07DFA1B4B608A1A68A6
:105EB000B188944204BF00221A600090607B227D6A
:105EC000238A01901548FEF72FF83069214608F023
:105ED000EAFA2146124808F039FB00F0A5FCEA076F
:105EE0000CD502A8FFF770FD40B1437C013B437421
:105EF0006B075EBF837C03F1FF338374012508E0E9
:105F0000084808F041F904E0054602E00D4600E0CB
:105F10000025284604B070BD284F0020210A21002A
:105F2000BC4000204C0A210010B5044608B90020EE
:105F300010BD206908F0ADFA014618B12046FFF700
:105F40009FFFF6E700F02AFC0028F0D0E288A18845
:105F50000748FDF7E9FF2146064808F0F7FA06482A
:105F6000214608F0A0FA00F05FFC012010BD00BF40
:105F7000860A2100B0400020C84A002008B5054824
:105F800008F087FA20B1FFF7CFFF0028F7D100E033
:105F9000012008BDC84A00202DE9F04F85B08A468F
:105FA00091461D46BDF83870BDF83CB00646002845
:105FB00050D0394608F000FA00F0F0FB044618B95A
:105FC000274808F0E1F846E0264808F0ABFA044616
:105FD00028B9254808F0D8F800F026FC3BE03069E5
:105FE000214608F074FA214A84F814A0136884F852
:105FF0001590A380591CB38804F10608E38100239F
:10600000A3611B4B1160002D08BF1D464046294669
:106010002782A4F812B009F0C5F9B1888DE880088C
:10602000EB795246029313484B46FDF77DFF00F093
:10603000FBFB237DDA070ED54046FFF7C5FC50B1C8
:10604000437C01334374237D5B0704D4837C013399
:10605000837400E00446204605B0BDE8F08F00BF21
:10606000AD0A2100BC400020E40A2100CC4A0020F7
:10607000DD0D21000F0B21002DE9F74F074601919F
:10608000914600F085FB0446002857D13D4808F0B2
:1060900000FA25468246A346BAF1000F49D0BAF865
:1060A00006003A683979B2FBF0F300FB1323BAF823
:1060B00008209BB24A4392FBF0F100FB112292B2FE
:1060C000134493FBF0F200FB1233DAF810001FFACE
:1060D00083F808F0DEF938B3068A46459CBFBAF863
:1060E0000620B618C8EB0606B6B29DB15E4513D3BE
:1060F00015D1297D027D82EA010E1EF0010F06D125
:10610000B0F80EC0B5F80EE0F44528D31EE0D30772
:1061100025D41BE02C462EE00546002400E05E4618
:1061200008F0EDF9B346D6E7504608F0E8F98246A4
:10613000B2E7019B23B1A3F800B001E0002425469B
:10614000B9F1000F19D0C9F8004016E0002CE7D1D2
:1061500012F0020F224614BF0446002403E054B993
:10616000A842DDD0024611F0020F18BF2C46002ACB
:1061700018BF1546D4E70546D2E7284603B0BDE868
:10618000F08F00BFC84A002008B500F007FB58B1E7
:10619000064808F0B7F9064808F0B4F9054808F0D1
:1061A00075F900F041FB012008BD00BFBC40002094
:1061B000B0400020C84A002007B5FFF7DFFE0321EA
:1061C0000020FFF723FE0023009301930F210122FB
:1061D000024BFFF7E1FE03B05DF804FB93002100E2
:1061E0000138012882B004D8034B5B6A019302B0E6
:1061F000184702B0704700BFC4FD20002DE9F341ED
:106200000C4617461E468046FCF7C0FB0546A31EFB
:10621000D819A5422CBF00230123A0422CBF002285
:1062200001229A4203D1A8428CBF002301238BB1E3
:10623000FFF7CEF9C0B102232C1B00F8103B302130
:106240000B4A33468DE8900008F001F8FFF7E4F9B7
:10625000002009E00093404639190122054B01F066
:1062600081F9B0FA80F0400902B0BDE8F08100BFCA
:10627000EC0B21007D68200013B50446237D00202F
:10628000DB07019001D400201EE0637D013B012B60
:1062900005D8104B21461868019008F008F8637D76
:1062A000022B11D080B9A01DFFF774FB214601908D
:1062B00007F0FDFF40B9084B019A1B689A42E2D1F2
:1062C00001A82146FFF70CFD019A044B1A6002B0A9
:1062D00010BD00BF6C69002068690020B84E002026
:1062E00040F237222DE9F04FAB4DCFB02B8804465A
:1062F00093425CD040F25622934200F0A380002BE0
:1063000040F02282A54808F092F9A54B18600130B0
:1063100000F01A82DFF8DC92D9F800300BB118686F
:1063200018B9A04B05221A7097E106F03BFC9E4E6F
:10633000D9F800303060186809F0EFF89B4A9C4BA0
:1063400012680146177B18709A48984607703068A3
:10635000994F90F802E087F800E0984F3F68BA4202
:106360003746974E07D1D9F80030C9B2DA7BFFF72C
:106370008FFA306001E0012333603368002B00F0B6
:106380006C81904B386898F800105B68984700283B
:1063900040F063818C4B204619688C4B9A688C4B7B
:1063A0000E3AFFF72BFF10B140F2372347E0FCF71E
:1063B000EDFA854F854E3A68B3681344C3F10C0378
:1063C000C342F4D4DFF8E8A17E4B9AF800009B6842
:1063D0009847B2683B68DFF8CC8113447D4ADFF808
:1063E000049213609AF800207B4B120513447B4AF9
:1063F00088F8000093FBF2F3B26A0120934294BF45
:10640000C9F80030C9F80020FFF7EAFE98F800301C
:10641000002B40F01F81674A1278002A40F01B8150
:10642000B268D9F800303968134432690A3B1A441B
:1064300020466B4BFFF7E2FE20B140F256232B8043
:1064400001208BE1FCF7A2FA604C5F4B654F1968A5
:10645000A2683B681344C3F108022369D31A5B1A8C
:10646000C342EFD4574E336A9847B046D8F8186005
:10647000B04718B1FCF78AFA074614E0FCF786FA31
:1064800023693A681A44E3691A44524B1B6813445F
:10649000C01A0028EADBEDE7FCF778FA636A3B44B0
:1064A000C01A002802DAB0470028F5D10120FFF712
:1064B00097FED8F810302EA87F219847B0F1000938
:1064C000384F40F3C380394E336823B15B7B1C1CCB
:1064D00018BF012400E01C46374B49461A7817AB19
:1064E00000930DF10B0301932EA807ABFFF7F6F80D
:1064F000002808BF4FF0000904F052FAD8F82880AD
:1065000003A982460920C04704A90120C04707A863
:1065100005A9354A06F07AFB10B105A804F078F910
:10652000BAF1000F04D0DAF8180008B104F078F9D5
:1065300005A8BDF90C109DF8102005F0A3FEB9F1D7
:10654000000F00F08480002C7ED0BDF95C20234C2D
:10655000002A4FEAC232ABBF02F5F422A2F5F422C0
:1065600002F59072A2F5907292FBF4F41F4B204A50
:1065700019681068122CC1EB000A91469846DFF8A2
:1065800078B001DD122304E014F1120F36DA6FF057
:106590001103CBF8003033E0F45900209369002058
:1065A000BC4E0020506200203C4F0020B84E00201E
:1065B000366200203F620020346200206C690020B7
:1065C000C8400020C4FD2000C44E00201C690020EB
:1065D000FE0B2100184F002020A1370040420F0081
:1065E000090C2100CC4E0020486200202C4F0020D6
:1065F0005C690020C84E0020204F0020CBF80040EE
:10660000DBF80030A3420FD0FEF7E2FF60B10223B7
:1066100000F8103B534B30211B68534A009323462C
:1066200007F015FEFEF7F8FF504B01221A70306894
:106630001FFA8AF1DBF80020FEF728F899E803003A
:1066400088E80300FEF7DAFB002301E0FCD1022317
:106650003B7002E0042388F80030454E0020FFF72D
:10666000BFFD32684348137B01780133DBB21373FB
:106670005173414A8146D2F80080404A98F80C7024
:106680001268B7FA87F7147D7F0904F00404E4B2B6
:1066900071B94046FFF790FAB7B11CB1404607F018
:1066A00023FE11E0404607F0F2FD0028F6D10BE092
:1066B000082B4DD94046FFF77FFA2FB124B10024B3
:1066C000404607F016FE44B92D4B31681A682D4B31
:1066D0002D4843F8221007F09CFFFEF779FF04468F
:1066E00000282ED099F80030002703613368077026
:1066F0001A7B0277186808F010FF1A4B60771B6846
:10670000A3611A4B1B7884F820303368186806F0B0
:1067100049FA0378E77703F007035A1E53425341BF
:10672000A37733681021186808F0FBFE30B1104BD6
:1067300010211B68186808F0F4FEC0796061FEF74C
:106740006BFF124800F002FF00232B80032005E0BE
:10675000002FC2D0002CC0D00124B1E74FB0BDE85B
:10676000F08F00BF204F0020150C21003562002063
:10677000C84E002050620020B84E0020284F002054
:10678000BC4E002070690020936900206840002002
:10679000014B1868704700BFA44E0020F8B51D4B90
:1067A0001A681F464ABB1C4C1C49012323600A6817
:1067B00026460C464AB1FCF7E9F805462368002B4B
:1067C000FCD1FCF7E3F80122451B3968A9B9114B4C
:1067D00001241C6031600AB90120F8BDFEF7F8FE03
:1067E0000028F9D0022330210D4A00F8103B2B4637
:1067F00007F02DFDFEF710FFEEE7FEF7E9FE40B1D2
:10680000022300F8103B074907F0F4FBFEF704FFF2
:106810000020F8BDA44E0020C04E0020404F0020B4
:10682000290C21003C0C2100014B00221A6070470A
:10683000A44E002030B50F4D04682B880079B4FBBE
:10684000F3F203FB124294B26A88424392FBF3F0E4
:1068500003FB102292B2224492FBF3F003FB1022BE
:1068600092B2114491FBF3F203FB1211024B89B275
:10687000585C30BD646900204C69002040F225421C
:106880002DE9F04F5A4D87B02B888046934241D076
:1068900001D84BB1EEE140F22942934246D040F29A
:1068A0006142934240F0E681524B1B68002B00F09E
:1068B000E181514C2068002800F0AF814F4B1B68EC
:1068C000002B40F0AA814E4A012111604D4A13600D
:1068D0004D4A1370FFF7D0FC4C4B18601E46002841
:1068E00000F0B3813368002B00F0BE812368484874
:1068F000997CFFF79FFF474B01461870464B0120DC
:10690000DB6A9847336863B1444B00221A8040F237
:1069100025432B804046FFF7E3FC012800F20B8162
:10692000A7E23F4A138040F229432B803C4E3D4C66
:106930003788B346B7F54E7F2FD040F2B5339F422C
:1069400000F08480002F40F0F380374807F06FFE9E
:10695000364B80B2188000B2471C04D1344A136809
:1069600001331360E4E0334AA36811680B443249F1
:106970000B6032490B60324B902101FB0030314BF0
:106980001168E26818600A3A40462F4BFFF736FC60
:1069900018B14FF44E7333806BE2FBF7F7FF254AD3
:1069A000E368116891460B44C3F10803C342F4D471
:1069B000194E336A9847D6F818A0D047002840F0FF
:1069C0005A82F3699847002840F05582D04710F06A
:1069D000FF0F40F05082FBF7D9FFE168A369D9F8B7
:1069E00000200B441344C01A0028EFDB02208AE089
:1069F000F659002064430020284F0020C04E00209C
:106A0000404F0020204F002035620020C84E00205B
:106A10005C69002051620020C4FD2000F459002070
:106A2000FA5900201C69002090690020F8590020C4
:106A3000A84E0020C44E0020D04E00201C4F002045
:106A400098690020444F0020630C2100FBF79EFF53
:106A50008A4B1A6863691344894AC3F10C031268AC
:106A60009B1AC342F2D4874B1888874B9B68984780
:106A70000120FFF7B5FB8548FEF78CFF0646C0B145
:106A8000437BB3B1824A834B14681968641A92E855
:106A9000030083E80300804B01211A687F4B5242B8
:106AA0001A607F4B30461970A1B2FDF7EFFDFEF77B
:106AB000A5F97C4807F0ADFDFEF78AFDF8B17A4AEA
:106AC00001230370D37B0361D37C4377774B1B682F
:106AD000D3F888300377714B1B684361704B1B7888
:106AE00080F82030137C591E4B424B41837792F83B
:106AF0002030C377684B1B688361FEF78DFD6C48BF
:106B000000F024FD0020FFF76BFB6A4B1A681C465F
:106B100072B1FEF75DFD48B1022300F8103B302151
:106B2000654A236807F093FBFEF776FD0023236098
:106B30000023ABF80030614BDFF8AC911B68544F79
:106B400013BB544C3B682268D9F82C109A1A4FF4A6
:106B50001943B3FBF1F164234B439A4214D9FEF776
:106B600037FD58B1022300F8103B3E6823683021FE
:106B7000534AF31A07F06BFBFEF74EFD514B002210
:106B80001A60FEF783F940E00023ADF814304E4C54
:106B9000206838B1037D03F00503052B02D10630D0
:106BA000FFF7C0F83A4805A9484AFFF765FA2060A0
:106BB00010B90123ADF81430BDF814303A683448E8
:106BC0009A1828BF01793A6024BF01310171334915
:106BD000D9F82C600A683E4C06FB0326304A002395
:106BE000D4F800A00B601370236830463344236050
:106BF000FDF7C4FD236851461844206032464046E4
:106C0000344BFFF7FBFA0028C1D0334B00221A6047
:106C100040F2614301202B8049E1FEF7D9FC0028B6
:106C200089D0022300F8103B2C4A2D4B30211B68E1
:106C3000126800922268B2FA82F252090192294A3D
:106C400007F005FBFEF7E8FC75E723681B7D9A0754
:106C50003FF548AE1D4B186800283FF443AE206056
:106C6000FFF70AFB30603DE623681B7D9B073FF57D
:106C70003DAE60E700232B80032018E14C4F00203D
:106C80001C4F0020144F0020C4FD2000376200205C
:106C90005C6900202C4F0020344F0020204F002042
:106CA0003562002090690020D44E0020444F00201F
:106CB00068400020A84E00207E0C21008C4300205C
:106CC000950C2100384F0020284F0020A04E0020B6
:106CD000C44E0020B90C2100404F0020C04E0020BF
:106CE000A44E00204C0C21001C690020FBF74EFE36
:106CF000A269E368D9F800101344A26A1A44531831
:106D0000C01A002802DAD0470028EFD10120FFF78F
:106D100067FAF369DFF8DC91984700283FF4F2AE98
:106D2000DFF8D4A1D9F81030DAF800207F2110461E
:106D300002929847029AD9F82830C2F8880005A92B
:106D400009209847DAF800E05A4A0EF1800392E8E9
:106D5000030083E80300DFF8A491059B7046AEF8BA
:106D60008C3099F80030DEF888108EF88E30524A58
:106D700005F08AFF514B0028CDF808A01860DFF815
:106D800038A17DDC00204E4B99F800201860BDF939
:106D900014104C48039305F075FA029BDFF83CE1B0
:106DA0001A68039BD2F88810C81C01F103014FEA4E
:106DB00001511846ADBF01F5F422A1F5F423A3F566
:106DC000907302F59072ACBF92FBFEF393FBFEF35F
:106DD0003D4A136003689146002B3FF493AE3B4855
:106DE0003B4908F0E4FA002859D03A4B3A681B684E
:106DF000991A394B19609AF81330002B3FF43BAEC7
:106E0000364A002902FB01F2BDBF4FF40041A2F552
:106E1000804292FBF1F202F58042ACBFC2F3CF3266
:106E200092B2254B12B24FF0000A9B7E7F21009256
:106E3000CDF804A02A48234AFEF702FC294B50450E
:106E4000014618607FF717AE736889B224489847E7
:106E50006369D9F8002040461A4439680E3A224B3B
:106E6000FFF7CCF900283FF4F1AD40F2B533ABF8B1
:106E7000003000201BE0FBF789FD1C4F386042E723
:106E8000504605F0A7FE00283FF47CAF50460D4960
:106E90000E4A05F0BBFE003018BF012073E70B4817
:106EA000134908F084FA00283FF429AE9DE707B0A3
:106EB000BDE8F08F5C690020D44E0020484F0020D0
:106EC000244F0020376200204C4F002040620020F9
:106ED000E3770020D04E0020344F002040420F00C6
:106EE000B5610020144F0020720C21001C4F0020BF
:106EF000DD0D2100C4FD2000444F00205162002020
:106F000007B514480DF10601134AFFF7B5F8134B06
:106F1000186010B90123ADF806300E4BBDF80620FD
:106F20001968511828BF1879196024BF01301871E9
:106F30000B4BDB6A5A430B4B1968186810441860F6
:106F400009480A4BFFF75AF90028DAD003B05DF878
:106F500004FB00BF5C690020A04E0020284F0020E9
:106F60001C690020C44E0020AC4E0020BE0C210045
:106F7000064B074A1860074B03C983E80300064B1A
:106F800082E8030000221A60704700BFC44E002050
:106F90002C4F00205C690020284F0020F8B50388A2
:106FA000064615462BB14A2B15D00023038003203B
:106FB000F8BD174807F06DFA04462CB1201DA168F2
:106FC00007F012FA2468F8E7124B01221A704A23DC
:106FD00033800120F8BD8829FBD10D4807F059FA0C
:106FE0000446002CF3D0231D9D420ED108482146B3
:106FF00007F059FA084B62691F681A60A2691D46BA
:107000000AB1E06990472F60E1E72468E9E700BF33
:10701000504F0020526200205C4F002010B5064BFC
:10702000002406481C7007F031FA2146BDE81040E4
:10703000034800F073BA00BF52620020504F002096
:10704000CC40002070B50446E3610B4B049D1B78D7
:107050006561A26143B1094D094B2E68201D2B606B
:1070600007F0C2F92E6000E0A1602146BDE8704043
:10707000044807F02CBA00BF526200205C4F002089
:10708000CC400020504F002013B5034C24680094DE
:10709000FFF7D8FF02B010BD5C4F002070B5094B60
:1070A00005461B783BB1084C084B2668043023602A
:1070B00007F0A3F926602946BDE87040044807F0B0
:1070C00006BA00BF526200205C4F0020CC40002076
:1070D000504F002070B5094B05461B783BB1084C5A
:1070E000084B26680430236007F090F92660294693
:1070F000BDE87040044807F0EAB900BF52620020C2
:107100005C4F0020CC400020504F002010B5084BB1
:1071100004461B781BB1043000F0DEF801E0C360C8
:1071200003612146BDE81040024807F0BCB900BF2A
:1071300052620020504F002000230649002241F8EF
:107140002320054941F8232004495A5401330C2BCC
:10715000F3D17047186C0020D86B00200C6C002015
:1071600038B50A4B04461B5C094D63B1FBF70EFCB6
:10717000084A55F8243052F8241042F824005B1ACB
:10718000034445F8243055F8240038BD0C6C002029
:10719000D86B0020186C0020014B43F8201070477A
:1071A000D86B002010B50E4C236813B90D4A13603C
:1071B00010BDFBF795FB216891E80C001A44131AE7
:1071C0008A6842B192E812002144091A8B4228BF12
:1071D0000B469268F5E71844024B186010BD00BFDB
:1071E000544F0020584F0020014800F0AFB900BFB5
:1071F000DC400020F8B5038805462BB1592B09D097
:10720000002303800320F8BD1E4A136059232B80FE
:107210000120F8BD872920D08229F7D1194F0026F7
:107220003C68002CF2D0204607F022F990B1E068CB
:107230008821224600F04AF950B9E060A3680EB1F7
:10724000B36000E03B600023A360FFF7ABFFE5E71E
:10725000FFF7CAFF2646A468E3E70A490B680BB9A3
:107260000B60D3E7D868904201D19B68F7E70B60C9
:1072700099680029CAD0C86890420ABF89680B463D
:107280009960F5E7544F002010B50446FFF7ACFFB6
:10729000E3680B4A4BB113683BB1A34203D1094ADF
:1072A0001268DA6007E09B68F6E7064B1B68E3604C
:1072B00013681460A360BDE81040FFF773BF00BF00
:1072C000544F00205C4F0020024B1868003018BF5C
:1072D00001207047544F002010B50B4A0446136834
:1072E000984206D18368136008E09A68A24203D0EE
:1072F0001346002BF9D103E0A2689A60FFF752FF12
:107300000023A360E36010BD544F002038B58368AC
:1073100004460D469BB10A4804600220A07304F1A4
:107320000C0098470238012801D9832D05D1204649
:107330002146BDE8384000F005B80123A37338BDED
:107340005C4F00202DE9F8431C4A04461568894625
:107350002B4690461A4E3768A34204D00BB11B68E7
:10736000FAE7BDE8F88334B3A37BABB10023A37382
:1073700045B1AC4204D028468721224607F057F891
:107380002D68F5E7A3683BB14C4505D0346004F1A6
:107390000C0083212A469847D8F800309C4203D13C
:1073A0002268064B05E0134623B11A68A242FAD1BF
:1073B00022681A603760BDE8F88300BF604F002084
:1073C0005C4F002010B5094B00221A70084B1C6856
:1073D0005CB1E37B3BB101230022A373E27320463F
:1073E0008221FFF793FF2468F2E710BD5562002069
:1073F000604F0020024B1878421C1A70704700BF83
:1074000056620020064B8A221A70064A0023137027
:10741000054A1370054A1360054A1360704700BFA0
:10742000566200205362002054620020604F00200A
:107430005C4F00202DE9F0411A4D2B780BB1FFF77E
:10744000C1FF194C22783AB3184E0C213378184FEB
:107450005943781817F8018001334768806803F0B2
:107460001F03013A3370227068B9124B1E689EB137
:107470002B780BB1FFF7A6FF304641463A4606F09F
:10748000D6FF3668F3E7B8F1810F04BF0123837399
:1074900041463A4606F0CBFF2B7820781844BDE8E9
:1074A000F08100BF5562002054620020536200202A
:1074B000644F0020604F0020024A034B10781B7875
:1074C000184470475462002055620020F0B50B4EFE
:1074D0003378202B0FD00A4C0C252478094F1C44FC
:1074E00004F01F046C4301333D19A86039556A60EC
:1074F00033700020F0BD0120F0BD00BF54620020B9
:1075000053620020644F002038B5034C256806F014
:107510008EFF256038BD00BF5C4F002010B50A46C5
:1075200009490C68234683420DD00BB11B68FAE76A
:1075300048B1046008600121817383818121BDE825
:107540001040FFF7E1BF10BD604F002038B1837BD2
:10755000013B012B9FBF024A0123C3731370704785
:1075600055620020024610B5064853600468029B2D
:1075700011609360026014B90846FBF71DFA002001
:1075800010BD00BFE450002010B5084C206858B171
:1075900000232360816843689847236823B1BDE8CE
:1075A00010401868FBF708BA10BD00BFE450002077
:1075B00010B50446FBF79EF994E80C001344C01A7A
:1075C000024B98428CBF0020012010BDFEFFFF7FC0
:1075D00038B505880446672D09D0792D2ED0002DA9
:1075E00032D1FFF707FF1B4B18701B4B1D601B4868
:1075F00006F0F9FF431C01D167231DE00A28164B52
:1076000007D01A687E2AF2DC511C1960144B98547A
:10761000EDE7196800254A1C1A60114A0D4B5554B4
:1076200028461978FFF752FF0E4B852118682A4625
:10763000FFF74CFF20B97923238009E0852907D182
:10764000054B00221A60D2E700230380032038BDD7
:10765000012038BDDF770020E8500020EC500020EA
:10766000D86200205C4F00200D2810B5014615D0CF
:107670000B4C23782BB90B4806F0A1FF48B9012326
:1076800006E00A2805D1074806F099FF08B1002353
:1076900023700548FFF75AFF012010BD002010BDE0
:1076A000D7620020EC500020EC40002008B50548CF
:1076B0000549802206F07CFFBDE808400348002110
:1076C000FFF72CBFEC50002057620020EC40002058
:1076D000054A136843F004031360044B1B68906968
:1076E00043EA002080B2704700700D4014700D40D6
:1076F000174A136823F00C031360164B01221A601B
:107700001A68012AFCD1144B08221A60E322C3F83C
:10771000142203F505731946104B1B68DB07FBD5D4
:10772000102000230E4A0138126802F0010243EAD9
:1077300002034FEA43039BB2F4D1002BF0D0094A75
:10774000180A03F0FE0310601360EF230B6070470C
:1077500000700D40A8200D40248608406486084033
:107760009C86084014700D4070B505880446772D3E
:1077700030D07E2D3FD0002D4DD1FFF73BFE294B61
:107780001870294B1D601D462B68284A264E52F85A
:1077900023204AB126480021C1549368802098478D
:1077A000336801333360EFE7224A1370772320E018
:1077B0001F4AD256002A12DB1B4A1368013313609A
:1077C000194B1C4A1B6812789342F1DB1A4B1B6859
:1077D000002BEBD0184A00231360134AEFE7114A3D
:1077E00000201178114A52F82320FFF76FFE30B9BC
:1077F0007E23238013E00B4B1B788B420FD10A4B67
:107800000B491A688B5C03F07F038B540A4A136898
:1078100001331360D0E700230380032070BD0120F3
:1078200070BD00BFE0770020F850002040400020ED
:10783000DB77002058630020F4500020094B1A78B1
:107840000023934204DA084951F82310814207D1FA
:1078500006490748CA5C62F07F02CA54FFF776BE49
:107860000133EEE75863002040400020DB77002022
:10787000FC4000200C4AB82303FB0022002330B553
:1078800053821A46094CE1188D782DB11C5D844253
:1078900002BF00248C70013240F24C5171338B4294
:1078A000F0D1104630BD00BF1851002064630020A5
:1078B00008B5064802F0F6FC054B01221A70FD21BE
:1078C00000225A709970DA7008BD00BF197B200041
:1078D0005A63002010B513780446087A83F0020337
:1078E00098421DD1487A5378984219D1887A937872
:1078F000984215D1C87AD378984211D1087B137970
:1079000098420DD1487B5379984209D1887B93796D
:10791000984205D1C87BD379984201D103201BE05E
:107920000B890F4A6BB94B89B3F57F4F09D18B890E
:10793000FE2B06D11368C989022023F8021B1360AD
:107940000AE0136851F8080F083343F8080C486838
:1079500043F8040C13600120A040C0B210BD00BF6A
:107960000451002010B50F4C0220A17905F08CF8CD
:10797000A379112B01D0062B05D1238D618D99425E
:10798000A8BF194608E03A2B05BF94F8281094F8D0
:107990002930002143EA01210120BDE8104005F013
:1079A00073B800BF5C6C002010B5084C014623780A
:1079B000012B08D1A01C082206F0C2F900280CBF38
:1079C0002046002010BD002010BD00BF5A630020DB
:1079D00008B50146102005F065F8044B04489B6883
:1079E00000219847BDE80840FBF792B970FE2000DF
:1079F000F579200010B508460C46114602F0C0F992
:107A0000044B1B6813B19B6820469847024B1C60CF
:107A100010BD00BF1451002010510020F8B50546DC
:107A20000023114A712404FB0324A278B2B96170C7
:107A300004F054FF26460D4F0D4A3B7806F8035BD1
:107A4000C01A1568A0701D4404F048FF3A78294612
:107A5000821A304606F0A6F9A078F8BD01330C2B47
:107A6000DFD14FF0FF30F8BD64630020B068002024
:107A7000085100202DE9F8434FEA1219B9F10F0F10
:107A800080461D4602F00F040BD00F2C05D1B9F132
:107A9000000F0AD11024274619E0B9F1000F09D0D0
:107AA00004E00F2C4FF0100900D1102440464A4644
:107AB00006F078F909EB04020F2A274606DC08EBEA
:107AC00009000021C2F1100206F046FABCB1114DC6
:107AD000C7F110002E6840443146224606F062F994
