:020000040020DA
:10200000404300208D222000BFEE2000BDEE2000C6
:10201000BDEE2000BDEE2000BDEE2000000000005F
:10202000000000000000000000000000BDEE2000E5
:10203000BDEE200000000000BDEE20007D2D200040
:102040005FEF200065EF20006BEF200071EF2000B4
:102050000000000043EF200049EF2000BDEE20000B
:10206000BDEE2000000000000000000000000000A5
:102070000000000000000000BDEE20000000000095
:102080000000000000000000BDEE2000BDEE2000BA
:10209000BDEE2000BDEE2000BDEE2000BDEE200014
:1020A000BDEE2000BDEE2000BDEE2000BDEE200004
:1020B000BDEE2000BDEE2000BDEE2000BDEE2000F4
:1020C000BDEE2000BDEE2000BDEE2000BDEE2000E4
:1020D000BDEE200000000000000000000000000035
:1020E00000000000000000000000000000000000F0
:1020F00000000000000000000940200019402000FE
:1021000000000000000000000000000000000000CF
:1021100000000000000000000000000000000000BF
:1021200000000000000000000000000000000000AF
:10213000000000000000000000000000000000009F
:10214000000000000000000000000000000000008F
:10215000000000000000000000000000000000007F
:10216000000000000000000000000000000000006F
:10217000000000000000000000000000000000005F
:10218000000000000000000000000000000000004F
:10219000000000000000000000000000000000003F
:1021A000000000000000000000000000000000002F
:1021B000000000000000000000000000000000001F
:1021C000000000000000000000000000000000000F
:1021D00000000000000000000000000000000000FF
:1021E00000000000000000000000000000000000EF
:1021F00000000000000000000000000000000000DF
:1022000000000000000000000000000000000000CE
:1022100000000000000000000000000000000000BE
:1022200000000000000000000000000000000000AE
:10223000000000000000000000000000000000009E
:10224000000000000000000000000000000000008E
:10225000000000000000000000000000000000007E
:10226000000000000000000000000000000000006E
:10227000BDEE2000813E2000D93E200045342000E4
:1022800095422000492E2000BDEE200008B5094BE4
:10229000FF221A600848094A4824E3690849121ACB
:1022A00098470848084AA3690021121A984700F085
:1022B00029FAFEE7B4200D4040000020C1020020B2
:1022C000DC1E2100C80200203C3B002010B5104C51
:1022D0002368DBB9D0B902200AF032FF3A2815D1C1
:1022E00001200AF02DFF49F6023398420ED1094829
:1022F00009490DF0E2FF48B910200AF033FF01460A
:1023000004480DF0DAFF08B10123236010BD00BFBF
:10231000D8020020223B0020951B210038B50F4831
:1023200006F090FC0E480F490DF0C2FF00240E4D40
:1023300055F824301B6843B10C48214602F0E0F9FF
:1023400055F82430A0B21B6898470134032CEED115
:10235000BDE8384006480CF027BE00BF4C00002006
:10236000223B0020951B210040000020A40D2100ED
:10237000C50D210010B1044B1B88038009B1002357
:102380000B800120704700BF861A002013B5084A51
:10239000084C1F211080208004F020F823880022A0
:1023A000019300920721044B04F0DEF802B010BD47
:1023B000861A0020841A0020D20F210038B5054665
:1023C0000E200C460AF0BCFE70B915B1084B1B88F4
:1023D0002B805CB1074BD97940F28D1391FBF3F25E
:1023E00003FB1213238001E0002038BD012038BD1B
:1023F0008A1A0020343B002007B50F4A40F28D11A5
:1024000010800E4A108003F0E9FF0D4B18600D4B51
:10241000D97940F28D1391FBF3F203FB12139BB2B7
:1024200000930023019301210222074B04F09CF842
:1024300003B05DF804FB00BF8A1A0020881A002050
:10244000DC020020343B0020D20F210013B500280D
:1024500044D040F28D13C07A90FBF3F203FB1203D9
:102460009BB200293DD14FF6FF744FF6FF729342A5
:1024700019D0224AD07940F28D1290FBF2F102FB82
:10248000110292B293421E4A09D100930023019394
:102490001068012102221B4B04F066F803E010686B
:1024A00019460CF09DFE4FF6FF739C4223D040F27C
:1024B0008D12124BD979009491FBF2F302FB1311A8
:1024C000002301930E4B89B218688C4214BF02217D
:1024D000032102220B4B04F047F80CE059B14FF6F0
:1024E000FF73C87A40F28D1190FBF1F201FB1201EB
:1024F0008CB29C42B9D102B010BD00BF343B002069
:10250000DC020020D20F210070B5064610200D46D7
:102510000AF028FE04460E200AF012FE01281BD104
:10252000D4B120460D490DF0C8FEA8B90C4821468B
:102530000DF0C3FE28B90B4B214618680DF04DFF76
:1025400050B116B1084B1B8833801DB120460CF0EA
:10255000BAFC2880012070BD002070BD951B2100B1
:10256000223B0020A00100208E1A002013B50E4A45
:102570000E4C11211080208003F030FF0C4B1122F3
:1025800018600C4B0221DB7993FBF2F202EB021292
:102590009B1A9BB20093238800220193064B03F001
:1025A000E3FF02B010BD00BF8E1A00208C1A00207D
:1025B000E0020020343B0020D20F210007B5C8B153
:1025C0000CF081FC0D4B1122DB79014693FBF2F2FA
:1025D00002EB02129B1A0A4A009012889BB20192E7
:1025E000084A994214BF052107211068064B0022B2
:1025F00003F0BAFF03B05DF804FB00BF343B0020DA
:102600008C1A0020E0020020D20F21002DE9F341B6
:10261000002849D00CF057FC0546254C2946206877
:102620000CF0C8FD064600283ED0224B1122DB7973
:1026300093FBF2F202EB02129B1A9BB29D4233D043
:10264000DFF87480D8F800000AF054FB074670B138
:102650003946D8F800000DF0D9FE0CF034FC854264
:1026600022D0154B394618680DF09EFEEEE7134B4D
:102670001121DB7993FBF1F101EB01115B1A9BB2A4
:102680009D420AD10E4B00951B88206801930221C0
:102690003A460C4B03F068FF06E03146206802B072
:1026A000BDE8F04103F0D4BE02B0BDE8F08100BF48
:1026B000E0020020223B0020A0010020343B00204B
:1026C0008C1A0020D20F2100814238B50C4614D05C
:1026D00008B1051D00E0054664B1043421460748F1
:1026E0000DF0E6FD2846FFF791FF2046BDE8384093
:1026F000FFF764BF01480249F2E738BD223B0020E2
:10270000951B2100F7B500F027FD00F035FE00F025
:1027100077FD00F0D9FA01F0ABFD0CF0A2FD00F05E
:1027200023FE00F035F901200CF0DEFB05F048F83F
:1027300000F0FEFC002000F00FFC012000F00CFC7B
:102740004C49002000F0DEFC05F08EF90CF0FFFB98
:1027500004200CF0C9FB48480CF026FC47480CF05C
:1027600023FC00F053FA002005F0A0F901F0E6FB8D
:102770004348002105F0B0F804F02EFE0CF0DEFB1B
:1027800000F09CFE00F0B8FE0AF0C0FB684608218D
:1027900001F0CCFD9DF807309DF80670394C43EAF6
:1027A00007276B4603CB20606160374801F0A8FF24
:1027B0000025615D3548013501F0A2FF072D314E3E
:1027C000F7D1334DF179334801F09AFFEC6A4FF4B9
:1027D0007D410220A04739460320A0471A2101204D
:1027E000A047694608226B6B0B2098472A4801F0E6
:1027F00087FF2A4B18680CF0D7FB294801F080FFAF
:10280000284B18680CF0D0FB274801F079FF274BC4
:1028100018680CF0C9FB264A33681360736853606C
:102820000AF0B0FC2348002105F056F822480021A8
:1028300005F052F8214B01219B688120984704F054
:1028400059FE00F0BFFA1E4B012218601D4B1E48B6
:102850001A700CF0D3FC00F071FC02200CF044FB69
:1028600000F072FC04F0C4FF10F0FF0FF8D101F08B
:102870005BFCF5E7257A2000E40D2100F00D210036
:1028800040010020343B0020150E2100330E2100B2
:10289000BC0C210060172100390E2100300D2100F1
:1028A000400E2100140D2100470E2100480D21008B
:1028B000B02F0020D401002060010020D40B2100A3
:1028C000742F0020682F0020780D2100F8B52C4CC3
:1028D000257820704540A90718D500F0020000F0C7
:1028E000FF07284E30B100F06DFA274BD860012366
:1028F000F3700BE0F3784BB100F064FA234A2249FD
:10290000D368C968F7705B1A1844D060AA0717D05B
:1029100023781C4F13F0030606D000F053FA1A4B2D
:10292000186101233B710BE03B794BB100F04AFA8F
:10293000164A1549136909693E715B1A18441061FA
:10294000EB0717D523780F4E13F0010506D000F0E2
:1029500039FA0D4B5861012373710BE073794BB158
:1029600000F030FA094A08495369496975715B1AE0
:10297000184450612078BDE8F84000F00BB900BF62
:10298000CE1E0020682F0020742F0020342F00203E
:1029900008B500F0DBF8024B00221A7008BD00BF3A
:1029A000CE1E0020024B1B781843FFF78FBF00BFDD
:1029B000CE1E0020024B1B7823EA0000FFF786BFE3
:1029C000CE1E002020B1012805D1044B1878704795
:1029D000034B186870470020704700BFCF1E0020CF
:1029E00020900D4010B5094A002013780133137070
:1029F000074B197804F048FFBDE81040054B064826
:102A00001968064A002304F01DBD00BFCF1E002038
:102A10002A3B00200C030020E4020020E5292000CE
:102A2000812810B50C462AD0B0F5807F39D0802897
:102A300039D104F0BDFE1D4B1D4A187013680020EB
:102A400023F00803136052F8203C032123F008030D
:102A500042F8203C52F81C3C23F0080342F81C3C8E
:102A600052F8183C43F0080342F8183C042200F0E6
:102A700091FC10480021032200F014FC13E00E4BDF
:102A80001A6831B142F008021A60002000F082FB9F
:102A900005E022F008021A60084600F087FB204695
:102AA00010BD064B1960012010BD00BF2A3B00205D
:102AB00020940D40C12A200010940D400C030020EA
:102AC00008B50F480CF0E8FBC0B108210C480CF029
:102AD000D1FB0C4B196861B10B4B00221A700B4BE8
:102AE0000B481B681BB90B4A04F0ACFC01E004F076
:102AF000EBFCBDE80840084805F07EB808BD00BF03
:102B0000040300200C030020CF1E002020900D4065
:102B1000E4020020E5292000D40B2100084A1368B4
:102B200023F00403136052F8203C43F0040342F8FE
:102B3000203C044B00221A60034B01221A7070479C
:102B400020C40D4010C00D40D01E00200D4A0E497B
:102B5000136823F0C003136052F8203C43F0C00315
:102B600042F8203C094B00221A600B6823F0100346
:102B70000B6051F8203C43F0100341F8203C044B1B
:102B80001A60704720A40D4020C40D4000A30D40E2
:102B900040C00D4000F0020202F0FF010B4B12B1E9
:102BA000FF221A6000E0196000F0040202F0FF0149
:102BB000074B12B1FF221A6000E0196010F001000B
:102BC000044B1ABFFF221A601860704700A20D4024
:102BD00000A10D4040C00D40044B1868C0F3072011
:102BE000030904BF1030C0B2704700BF1C300D4055
:102BF000054B1868C0F3C21001289ABFC0F102004B
:102C000040034FF40040704714300D402DE9F04769
:102C100088B0FFF7E1FF174B48251C68AB680746F3
:102C200098476B68804698470646FFF7E1FF0546E0
:102C300000F020FB824600F029FB814600F0D6FA26
:102C4000B60AC4F34003AD0A04F0010402930690EF
:102C5000009601950394CDF810A0CDF8149041464C
:102C6000C7F3071207F00F03034801F049FD08B04E
:102C7000BDE8F0871C300D40550E2100F8B500F07E
:102C8000A1F80F4B0024D3E900673A46B04238BFA1
:102C90007A1C15460443C3E90045DFF828E0DEE965
:102CA0000001821B61EB070312196B41CEE900237F
:102CB00004F0E8FC18B1BDE8F84004F073BCF8BDBE
:102CC000C8020020D00200200F4B104A1A6053F8AF
:102CD000042C42F0050243F8042C53F8042C42F073
:102CE000020243F8042C0A4A136843F001031360FC
:102CF000084B00221A60042243F80C2C012243F8EE
:102D0000082C0F22DA62704714E000E047E8010067
:102D100008200D400C000340034BD3E90023100AA8
:102D200040EA0360704700BFC8020020034BD3E9AC
:102D30000023D00B40EA4340704700BFD002002080
:102D4000054B18601C3B1A6842F001021A601A68B1
:102D5000D207FCD4704700BF2800034010B5064CD2
:102D6000236823F001032360FFF788FF236843F003
:102D70000103236010BD00BF10E000E038B500F093
:102D800021F80A4C0A4D0123A370A860FFF776FFD3
:102D9000A3784BB100F016F8064AA96893685B1A4D
:102DA000184400239060A37038BD00BF682F002036
:102DB000742F0020342F0020014B1868704700BF8B
:102DC00010030020074B084A196804331B68126877
:102DD000120442EA0323054A0B43106843EA0060E9
:102DE000704700BF40500D4048500D404C500D40C2
:102DF00010B50446114B1B68DB07FBD50CF0ABF894
:102E0000FFF7E0FF231A062BD8BFC41D0C4B220E80
:102E10001A60C4F3074243F8042CC4F3072243F8B2
:102E2000082CE2B243F80C2C0CF091F8054B9120E1
:102E30001C60BDE8104000F0ADB900BF50500D401F
:102E40004C500D401003002070B501F037F9FFF72A
:102E5000B9FF0E4C01230E4EA3700E4BB06000253F
:102E600091201D6000F0AEF9912000F09FF904F070
:102E700069FDA37843B1FFF7A5FF074AB1689368DE
:102E8000A5705B1A1844906070BD00BF682F0020C9
:102E9000742F002010030020342F0020064B1B68E5
:102EA0001B075FBF054B186880F00800C0F3C00027
:102EB00048BF0020704700BF18C0004018D0004035
:102EC000F8B50646FFF77EFF1E4A01231E499370A0
:102ED0002C2303FB06134FF6BF711C4DDC68A86062
:102EE000236C61649BB213F0500117460CD0A369A8
:102EF000DB0618D4164B53F826301BB12068C0B23D
:102F00009847F4E72368F2E713F4D06F0BD04FF43F
:102F100040732363FF236360E36AE162E362236B30
:102F200043F001032363BB7853B1FFF74BFF094A1A
:102F3000A96893685B1A1844024B906000229A704B
:102F4000F8BD00BF682F0020E40B2100742F002083
:102F500014030020342F00202DE9F04F012885B004
:102F6000064600F2BF802C244443604B1D1995F99E
:102F700020A005F12007BAF1000F9946C0F2B280F7
:102F800095F92230002BC0F2AD80594801F060F96C
:102F9000584A59F804301168EC680B4313605168C3
:102FA0006B6895F921B00B4353609168AB6895F855
:102FB00022800B4393600023C4F8C83F2B690BEBBE
:102FC000CA021A6095F823305FFA88FC01939DF8D5
:102FD0000430604619462A7DCDF80CC0029300F0FB
:102FE000E3F9029BDDF80CC019466046082200F0A8
:102FF000D1F94FFA88F840494FEA08389DF9042082
:1030000058F80100012303FA02F2024348F80120B4
:103010004FEA0A3A5AF8010003FA0BF202434AF85F
:1030200001205022A263A26B95F8240042F4D062E2
:10303000A263022262634FF440722263AA69626251
:10304000EA69A2627022E26242B2002A0C4614DBF4
:1030500095F92510294D41EAC201296079791203B9
:1030600015594FB2BB402B431351002200F092F987
:10307000234A136843F4004313602C2303FB069395
:1030800093F8265020336FB2002F1CDB93F807A073
:10309000EDB25FFA8AF82846414601223F0300F06C
:1030A00083F94FFA8AFA3A59012303FA0AF31343D0
:1030B0003B5108222846414600F06CF9104A13683B
:1030C00043F4804313602C2303FB0696F26896F8C2
:1030D0002800136B43F00103136305B0BDE8F04F04
:1030E00000F058B805B0BDE8F08F00BFE40B210038
:1030F0009D2E200028200D4020940D4004410D40BD
:1031000030D0004001289CBF014B43F8201070478D
:1031100014030020012808D8044B2C2202FB0030A5
:10312000C3689A699206FCD419607047E40B2100C9
:10313000014B00221A60704700500D40014B0822DD
:103140001A60704700500D40024BA0221A605022B6
:103150001A60704700500D40074A084B1A60084B30
:1031600080321A60074B80321A60074B80321A6037
:10317000064B074A1A60704700E100E02803002070
:103180001C030020200300202403002008ED00E0A1
:1031900000202000044B41091A6800F01F000123A1
:1031A000834042F82130704728030020044B410936
:1031B0001A6800F01F000123834042F82130704755
:1031C0001C030020044B41091A6800F01F00012372
:1031D000834042F82130704724030020024B1868D6
:1031E000C0F38150704700BF04200D4008B5FFF7C1
:1031F000F5FF024B53F8200008BD00BF3C0C210036
:1032000038B5164D164C2B68032023F040032B6075
:103210002368062123F040032360012200F0BAF85E
:103220002B68012223F080032B602368032023F006
:1032300080032360072100F0ADF80A4A0A4B1A60A8
:103240000A4B0B4A19680A40002AF9D11A68510141
:10325000FCD41A685201FCD538BD00BF20C40D4013
:1032600000C40D400101020000200D4004200D406B
:1032700000000101034B04481B6803F007031841D9
:10328000704700BF04200D400048E801034B04488C
:103290001B68C3F302231841704700BF04200D4090
:1032A0000048E801024B02EBC10243F822007047DC
:1032B0002C030020F8B507460E46094D002405EB07
:1032C000411547FA04F3DB07E1B204D555F8243081
:1032D0000BB1304698470134082CF2D1F8BD00BF3D
:1032E0002C0300202DE9F74F019000F0E7FEFFF7D7
:1032F00069FD0199184E4FEA0139184F0123DFF893
:1033000064A009F18045B860B37005F55925D5F87A
:10331000188459F80A404FEAC10B24FA0BF448EA22
:103320000400C0B2E4B2FFF7C5FF04FA0BF45FFA81
:1033300088F3C5F81C3449F80A40B3784BB1FFF75D
:1033400041FD074AB96893685B1A184400239060EE
:10335000B37003B0BDE8F08F682F0020742F0020F9
:10336000342F002018970D400248002180220BF0D6
:103370004DBC00BF2C030020034A044B1A60044BD1
:10338000803A1A60704700BF80400D40B0030020B3
:10339000AC030020034B01EBC0011B6843F8212064
:1033A000704700BFB0030020034B01EBC0011B6856
:1033B00043F82120704700BFAC0300200E2870B5F1
:1033C0000BD1164B164E1C6844F002051D60356883
:1033D00025F03F0343F001033360124E336823F0BE
:1033E000FF031A431143014331600F4B1B681B0657
:1033F000FBD50E4B0E4A1B6812680E2803F0FC0327
:1034000043EA022308BF064A9BB204BF1560034A81
:103410009BB208BF146018B270BD00BF34000144F5
:10342000F486084008700D4000700D400C700D408F
:1034300010700D40024B1868B0FA80F040097047D8
:1034400000B7084070B5FFF7BDFC104E104C0123CB
:10345000B060104D8F20A370FFF7B4FE8F20FFF7F0
:10346000A5FE286818B104F04FFA00232B60A3785A
:1034700053B1FFF7A7FC084AB16893685B1A184478
:10348000034B906000229A7070BD00BF742F002023
:10349000682F0020B4030020342F0020064A136850
:1034A00043F002031360536843F0020353609368D0
:1034B00043F002039360704748200D4007B50C4865
:1034C00000F0C6FEFFF7EAFF0A4B1A6842F002025C
:1034D0001A6000220192019A0F2A02DC019A01323D
:1034E000F8E71A6822F002021A6003B05DF804FBE4
:1034F0003534200054200D40064A136823F002039F
:103500001360536823F002035360936823F00203AF
:103510009360704748200D40044B186800F022006B
:10352000A0F1200358425841704700BF4C86084024
:10353000024B186800F04000704700BF4C860840FE
:1035400008B50B4B93F90020002A09DB094AED214D
:1035500011601160E32111601A7862F07F021A7025
:10356000FFF730FC044BD861044B0120D87108BD33
:10357000D41E002038880840742F0020682F0020B7
:1035800038B505460C46134B1B689B07FBD4124B02
:1035900093F90030002B01DBFFF7D2FF0F4BEE2237
:1035A0001A60691E1A60A21C43F8102C21440220E4
:1035B00000F0DCFC013C0A4924012143022000F018
:1035C000E7FC022000F0EEFC022000F003FD0020EA
:1035D00038BD00BF4C860840D41E00203888084003
:1035E00002C001C0044B1A6810B142F0010201E0B0
:1035F00022F001021A607047008608400B280DD1A6
:10360000082A0DD161B1074B083111F8012D43F89B
:10361000042F054A9342F8D10020704701207047DB
:1036200002207047A4850840C485084070B5304E1C
:10363000336813F0400308D02E4D2B68DCB21B0614
:1036400005D52D4BED221A601A60002070BD042CA8
:10365000F7D9023C8C42F4DCE4B2032C21D00119EE
:103660000139032000F08AFC631E24491B0103205A
:10367000194300F08DFC032000F094FC032000F0BF
:10368000A9FC032000F0B2FC0028FAD129681C4BE9
:103690004939C9B219702B681A4D18062B70D0D54C
:1036A00006E02B6803702B6843702B688370EDE78E
:1036B00049B289B2042009F03BFD2978032001F0CA
:1036C0007F0109F035FD104B1B7873B933685A063A
:1036D0000BD5074B1B681B0603D50C4804F014F9E7
:1036E00003E0054BED221A601A60204670BD00BF52
:1036F0004C860840288808403888084002C0010CE1
:10370000D21E0020D11E0020D31E0020A4000020C5
:1037100010B5134B1A689207FBD41B685B065FBF9A
:10372000104BED221A601A600F4B1B6813B10D4B42
:10373000EF221A600D4A0E4C137803F07F031370CA
:10374000E37953B1FFF73EFB0A4A0B49D369C969D4
:103750005B1A18440023D061E371012010BD00BF43
:103760004C860840388808402C860840D41E00202B
:10377000682F0020342F0020742F002038B5A0F1CE
:103780000B04E3B20F2B054613D80B4B1B6813F049
:103790003F0302D0FFF7BCFF012304EB8404074A78
:1037A0000B3414600BB1FFF7CBFE054BE8B21D7074
:1037B00000E0FF2040B238BD488608403C86084003
:1037C000BF02002038B50C46002900F08880102880
:1037D00000F28780DFE800F0090F1A1C23394253FA
:1037E000586F738585787A7C7F003F4B1B68003368
:1037F00018BF012370E03D4B05221B6803F07F03D7
:103800000B3B93FBF2F30B33DBB265E0384B00E08C
:10381000384B1A68043B1B6843EA02235CE0002330
:103820000B60354B354A1B6803F001030B601268CF
:10383000900644BF43F002030B60314B1B78002B12
:103840004BD00B6843F0040346E02E4B00201B785E
:103850000860002B41D001230B6038BD2A4B1A6849
:103860000023D2B2294901EBC3000079904202D86B
:1038700051F8333030E001330E2BF3D128E0244BE4
:103880001B685BB2493B27E0224B1B68990603D1BA
:10389000FFF756FE012300E000231F4A1268D207FB
:1038A000FBD51E4A1568493DEDB20BB1FFF730FF5D
:1038B0006DB2256011E01A4B93F900300CE0194B02
:1038C0001B7803F07F0307E00B2305E01A2303E0D6
:1038D0006FF0170300E007232360002038BD0220AB
:1038E00038BD012038BD00BF2C8608403C8608400A
:1038F000CC850840D48508400086084024860840CE
:10390000D31E0020BE020020408608404C0C21003F
:10391000588608404886084064860840608608400B
:10392000D21E0020D11E002010B50B4B1B6899063B
:1039300003D1FFF705FE012300E00023074A1268C8
:10394000D207FBD5064A1468C4F300140BB1FFF785
:10395000DFFE204610BD00BF488608406486084050
:103960004C8608402DE9F843374B93F90030002B83
:103970000EDBFFF727FA0446FFF7E2FDFFF722FA16
:103980006FF009031B1BC342F8D44FF0010801E09C
:103990004FF000082D4B1B782BB92D4E336813F0D8
:1039A000200404D106E0FFF7BFFF0028F5D1022074
:1039B000BDE8F883274D284FEB7943B1FFF702FAB2
:1039C000264AF969D369EC715B1A1844D061FFF794
:1039D000F9F9234C0123AB71E923B8614FF00409D5
:1039E000236033689A0708D409F1FF3919F0FF09F9
:1039F00003D00620FFF7A4F9F3E733689B0704D44C
:103A0000EE2323602360012403E0346814F00204F1
:103A1000FBD1AB7953B1FFF7D5F9104AB969936976
:103A20005B1A18440B4B906100229A71FFF7CAF998
:103A30000123F861EB71B8F1000F01D0FFF768FEC8
:103A40002046BDE8F88300BFD41E0020BE0200203F
:103A50004C860840682F0020742F0020342F00204F
:103A6000388808400B282DE9F84F8A4611D1082ADA
:103A700040F0828000297FD0414B01F1FF3A53F89A
:103A8000042D0AF8012F3F4A9342F8D10020BDE8E7
:103A9000F88F0C286DD1042A6ED100296CD03A49D8
:103AA0003A480B68DFF8EC9023F007030B600368DB
:103AB000DFF8E4B043F008030360DBF80040D9F816
:103AC00000200B68DFF8D4C0DFF8D48023F0700347
:103AD0000B60D8F80050DCF80030E4B2120244EA7F
:103AE000036392B2DFF8BCE01A43EBB242EA03434D
:103AF0000024DEF8002044EA03060B68D5B223F068
:103B0000070343F001030B6003682F4643F00803EB
:103B10000360DBF80000D9F800200B68120223F0E4
:103B2000700343F010030B60D8F80050DCF800304D
:103B3000C1B241EA036392B21A43EBB242EA0343D1
:103B4000DEF8002044EA03085FFA82F9FFF73AF949
:103B5000B6EB080667EB0907F903054641EA56414B
:103B6000F0030B4A00230AF06DFC281ACAF8000083
:103B70008CE70120BDE8F88F0220BDE8F88F00BF78
:103B8000C8850840A8850840108808400488084077
:103B90000048E80118880840148808402088084038
:103BA000248808401C8808401E4B1870002831D01B
:103BB0001D4B1B681B03FBD51C4B1A6842F002020D
:103BC0001A601A6842F001021A601A681749500711
:103BD000FBD50A6822F001020A601968134A4907F6
:103BE000FBD4116841F002011160116841F001013C
:103BF00011601A685207FCD50D4A8D20136823F016
:103C000004031360D2F8A83123F00403C2F8A831EA
:103C1000FFF7CCBA064A8D20136843F00403136003
:103C2000FFF7B8BAD31E002004200D4004880840D6
:103C30008C86084010B50C4607285CD8DFE800F0F9
:103C4000040F1B1F263C4256012903D1FFF778FCC5
:103C5000002010BD002950D1FFF75AFDF8E7A1F16F
:103C60000B030F2B49D8C8B2FFF788FD431C0CBFCC
:103C70000320002010BD8CB2E2B2214B02E08CB2D6
:103C8000204BE2B2240A1A605C60E1E731F00703DE
:103C900033D101F00100FFF7A5FC1B4B14F0020F1C
:103CA0001A68C4F3800014BF42F0200222F0200200
:103CB0001A60FFF779FFCBE731F001001DD1134BFC
:103CC000197010BD01F118031F2B16D80D231049D0
:103CD000DA0051F83300844204DC8B181A790D4B5A
:103CE0001A60B5E713F1FF33F1D2B1E7CCB20A4B5A
:103CF00049341C60ACE7012010BD022010BD00BF9C
:103D0000C8850840D085084024860840BE020020AF
:103D10004C0C21004086084058860840F8B52B4FCF
:103D20003D7815F001054FD1294B01241C605C60E2
:103D30009C60A3F59323A3F51473F8221A6009225B
:103D4000C3F89021152270331A6003F59B230B22D0
:103D500003F59E731A60A3F59B23A3F5F07340222D
:103D60001A601A687F2642F020021A6043F81C5C31
:103D7000DE62DD61174B1878FFF700FD164B8E20D1
:103D80001E60FFF707FA022000F018F9134902201D
:103D900000F0F4F8032000F011F91049032000F0BE
:103DA000E5F80F4B1878FFF7FFFE29460D4803F0A2
:103DB00093FD3B7823433B70FFF704F80A4BD8612F
:103DC0000A4B2046DC71F8BD0020F8BDD41E00204F
:103DD000A8200D40BF020020948608402888084093
:103DE000D31E0020A4000020742F0020682F002084
:103DF00038B503880446CBB140F20542934203D064
:103E000000230380032038BD194B18781A4628B1C7
:103E10001B7873B1174B1B7858060AD5822908D135
:103E2000137843B1134B1A78520614D440F2054369
:103E30002380012038BD09F021F909F0B5F880216F
:103E4000FFF7F4FB0028EDDD80B209F091F80A4B92
:103E50001B699847E6E700221A70084B1D68FFF7B8
:103E600057FCFFF75BFFAB06E0D0FFF769FBDDE730
:103E7000D31E0020D41E0020480D21004886084093
:103E800070B5FEF79FFF0E4B012199700D490E4A48
:103E90000978906016461C4611B90C4803F034FDB1
:103EA0000B4B00251D60A3784BB1FEF78BFF094A31
:103EB000B16893685B1A1844014B90609D7070BDA7
:103EC000682F0020D31E0020742F0020A4000020A3
:103ED00034880840342F002070B5FEF773FF114B73
:103EE00001221D46104C9A70104AA06011680026ED
:103EF000042918BF0E490F481EBF0B7843F040033A
:103F00000B70166003F000FDAB784BB1FEF75AFF63
:103F1000094AA16893685B1A1844024B90609E702E
:103F200070BD00BF682F0020742F00202C8808402F
:103F3000D41E0020A4000020342F002010B5094C0E
:103F40000021204640220AF061FE074B01221A6040
:103F50002E205C60FFF71EF9BDE810402F20FFF710
:103F600019B900BF0000002004F00F4003289EBFD5
:103F7000014B0001195070470000002003289EBF2C
:103F8000024B03EB00104160704700BF00000020AF
:103F900003289EBF024B03EB00108160704700BFF7
:103FA0000000002003289FBF034901230A688340C3
:103FB0009CBF13430B60704728F00F4003289FBF3E
:103FC000034901230A6883409CBF13430B60704779
:103FD00020F00F4003289FBF034901230A68834054
:103FE0009CBF13430B60704714F00F4003289FBF22
:103FF000044B03EB0010806800F0070088BF00202E
:10400000704700BF00000020024B4FF0FF321A60E3
:10401000704700BF04F50F40014B01221A60704742
:104020004CF00F40094B1A6812F4801F1A46F9D160
:10403000043B196821F4803119601168C903FCD46C
:104040001A6842F400321A60704700BF04200D4025
:1040500070B5164CFEF7B6FE2378154D3BB1154AE8
:10406000296813685B1A0344136000232370124EFF
:104070006860012302203168637003F06BFA30BF7F
:10408000022003F04BFA3060FEF79CFE63784BB1E0
:10409000084A0749536849685B1A03445360034B55
:1040A00000225A7001232860237070BD682F002001
:1040B000742F0020342F0020B803002070B5144B5B
:1040C0001A681C4612F0030F21D0124B1A685101D6
:1040D000FBD41A685201FCD50025FEF73FFEFFF71E
:1040E000A1FF2560022003F019FA0B4B1860FEF7C0
:1040F00069FE0A4B0A495A7832B10A4C4E68626826
:104100005D70921B02446260012208601A7070BDEB
:1041100058200D4004200D40B8030020682F0020D7
:10412000742F0020342F00202DE9F0413E4B1C68F5
:1041300014F03F0413D13D4B53F8243023B198477A
:1041400068B10134052CF6D1394D2B783BB1FEF71F
:1041500033FE0446FEF736FE201A092803D8BDE8D0
:10416000F041FFF775BF002CF9D0324B1A6822F4EA
:1041700000321A60304A1168C902FBD4196841F450
:10418000803119601368DB03FCD5FEF71BFE201A93
:10419000092803D8BDE8F041FFF744BF6328274F43
:1041A00002D92B78022B00D00123254E3B60254CF1
:1041B0000220316803F0CEF9FEF704FE2378224D89
:1041C0003BB1224A296813685B1A03441360002339
:1041D000237001236860637003F04CFBB8B14FF0AB
:1041E0000008FFF71FFFC7F80080022003F096F9D0
:1041F0003060FEF7E7FD637883B1144A696853685D
:104200005B1A034453600F4B83F8018006E0FEF70E
:10421000D3FD0028E3D030BFBDE8F0810123286042
:104220002370BDE8F08100BF48860840BC03002031
:10423000D51E002000200D4004200D4058200D40C8
:10424000B8030020682F0020742F0020342F002096
:104250000023064A52F82310814206D011B942F8D1
:10426000230070470133052BF3D17047BC030020B6
:10427000054B002205491A600B6843F004030B60EC
:10428000034B1A70704700BF58200D4010ED00E03E
:10429000D51E002070B5FEF795FD104E104C012381
:1042A000B060104D9020A370FEF78CFF9020FEF7B9
:1042B0007DFF286818B103F027FB00232B60A3784B
:1042C00053B1FEF77FFD084AB16893685B1A184442
:1042D000034B906000229A7070BD00BF742F0020C5
:1042E000682F0020D0030020342F002070B50E4C22
:1042F000054626784EB93046C021FEF70BFF304602
:104300000D21FEF707FF012323700020E9B2FEF71D
:1043100001FF0A2D05D10020C021FEF7FBFE00237E
:104320002370284670BD00BFD61E002030B5184B44
:104330001A78431E3AB9174A1278122A03D1164A3C
:1043400012784B2A03D001F52011273117E04A08D3
:1043500002F12814B4F1281F04D014F8015D03F809
:10436000015FF7E701F5201127310023934205DAB9
:1043700011F801598418E5540133F7E730BD074AB5
:10438000914204D011F8012903F8012FF7E730BD5D
:104390002B0028002A0028002900280027002800D8
:1043A00000200149FEF7AEBE4D4620002DE9F74F33
:1043B0000388064633B1B3F5A67F11D000230380EE
:1043C0000320F2E07A4A13807A4A13807A4A1380F3
:1043D0007A4B01221A704FF4A67333800120E4E077
:1043E00082294FF0010AF9D1754BDFF8CCB175483D
:1043F00083F800A000F084F97348BBF80050DFF8A0
:10440000B081425DD946432A07462AD1694B1A88B2
:10441000954226D2521B052A23DD00EB050C60468F
:104420006A490622CDF804C00AF0E4FADDF804C0B7
:104430000446B0B96046214606220AF0E7FB5D4B10
:10444000A8F800401C805D4BABF8004083F800A04A
:104450005F4B185D01340AF0B7FD0D2CF8D1002434
:1044600097E0B8F800209542F9D002D300231C460B
:104470002EE000247B5DDB2B04D056490B55013424
:10448000A4B201E0012300E000230135ADB2954262
:1044900055D2B4F5A06F01D9002450E0002BE9D02B
:1044A0007B5DDD2B01D1DB2102E0DC2BECD1C021D7
:1044B000484B1955E3E7B4F5A06F1DD863B9795D92
:1044C000DB2917D0434801550134A4B20135ADB200
:1044D000B5F5A26FEFD310E07B5DDD2B01D1DB21C1
:1044E00002E0DC2B04D1C0213A4B19550134A4B2AF
:1044F0000023EBE70123E9E70024002188B2904282
:104500001DD2B4F5A06FC7D863B17B5CDD2B01D1A0
:10451000DB2002E0DC2B0DD1C0202E4B18550134DE
:10452000A4B207E0785CDB2806D02A4D2855013478
:10453000A4B202E0002300E001230131DEE70132F2
:1045400092B2B2F5A26F04BF0023A8F80030194B55
:1045500018BFA8F80020B8F8002019888A4216D0A1
:10456000104603468B4212D0F85CC02807D11A4887
:10457000A8F80030A9F8002003F0C6F909E00133DB
:104580009BB2B3F5A26F4FF00000EBD1E9E7A9F8B9
:104590000020124B1C80002C3FF41DAF104B1B68F9
:1045A00003B1984706F0EAFA15E703B0BDE8F08FCB
:1045B000921A0020901A0020941A0020D71E002082
:1045C0002F3B0020270F2100D81E0020410F210083
:1045D000480F2100B82F0020B4000020A42F002095
:1045E000D4030020014B1860704700BFD4030020A3
:1045F00038B5C0200AF0E8FC114B00241149A2B2E2
:104600000988914216D93C2A04BF0F4B1B681878C1
:104610005D1CC02804D1DB200AF0D6FCDC2004E0BD
:10462000DB2802D10AF0D0FCDD200AF0CDFC0134F9
:104630002B46E3E7C0200AF0C7FC002038BD00BFCE
:10464000B82F0020A42F0020C434002038B5264BFA
:104650001A781C46022A06D0032A12D1C02804BFA9
:1046600001221A703DE000F12402D2B2012A06D9DB
:1046700003221A701D4B1A881D4B1A8031E001234A
:1046800002E0DB2801D102232370194B184D1A8850
:10469000511C89B2B1F5A26F08BF002119801549DC
:1046A0001B8809888B4205D1032323700F4B1B887D
:1046B0002B8016E0104B5428985407D15B5C432B99
:1046C0000FD10E4803F020F9012038BDC02808D1D1
:1046D000064B1888824203D08142F2D11A80F0E75B
:1046E0002A80002038BD00BFD71E0020921A00206B
:1046F000901A0020941A0020D81E0020B400002038
:104700000FB407B504AA52F8041B0448019200F044
:1047100035F803B05DF804EB04B07047C400002026
:104720001FB5084C8DE80300114602A81A460294F2
:10473000CDF80CD000F022F8009B00221A7004B0D3
:1047400010BD00BF4FF0200070B505460C46102C80
:1047500007D92B68686808491022984750B9103C5F
:10476000F5E734B12B6868682246BDE8704002491D
:104770001847204670BD00BFC00F21002DE9F04F43
:1047800080468FB0069107920026069B1B78002B6F
:1047900000F05F83069B1C4613F8012B1AB9069B99
:1047A0009C4203D10FE0252AF5D1F8E7069BD8F803
:1047B0000400E51A0699D8F800302A4698470028E0
:1047C00040F02A832E442378002B00F04283637844
:1047D000611C002B00F03D8300240A4611F8013BC8
:1047E0002B2B11D006D8202B11D0232B12D144F023
:1047F0000804F2E72D2B04D0302B0BD144F0100429
:10480000EBE744F00104E8E744F00604E5E744F090
:104810000204E2E7A3F1310108290DD8134600256F
:104820001A4613F8011BA1F13000092811D80A22F9
:1048300002FB0515303DF3E72A2B09D1079B013216
:104840001D68191D002D0791B8BF44F0010400E058
:10485000002513782E2B1CD15178531CA1F1300068
:1048600009280ED8194600270A780B46A2F1300015
:10487000092801F101010FD80A2303FB0727303F64
:10488000F2E72A2906D1931C079A111D0791176890
:1048900002E013464FF0FF371A786C2A09D15A7894
:1048A0006C2A02D144F080040AE0013344F0600431
:1048B0000BE0682A09D15A78682A03D144F0200411
:1048C000023302E0013344F040041A78642A3CD0F9
:1048D0001FD8462A48D00DD8252A5AD003D8002AF6
:1048E00000F0B78257E0412A4AD0452A53D144F418
:1048F000424450E0582A31D004D8472A4BD144F4DE
:10490000A13448E0612A38D0632A44D144F4A06439
:1049100041E06E2A3AD007D8662A22D027D3672AE8
:1049200028D0692A11D036E0732A2CD006D86F2AF5
:1049300011D0702A2FD144F440742CE0752A07D08E
:10494000782A28D144F4C85425E044F4245422E0C1
:1049500044F410641FE044F488541CE044F4B2446E
:1049600019E044F4007416E044F4844413E044F481
:10497000024410E044F481340DE044F4C1340AE010
:1049800044F4E13407E044F4806404E044F4E06477
:1049900001E044F4C0640133069304F4E063B3F52A
:1049A000806F00F0AA8116D8B3F5807F2BD0B3F5C5
:1049B000407F7FF4EAAE079BA04914F4804F03F1D7
:1049C00004029F4818BF08460DF1330107920F46B5
:1049D0001A680023C5E1B3F5C06F08D0B3F5E06FE6
:1049E00000F03182B3F5A06F7FF4CFAE00E2D8F8CB
:1049F0000030D8F80400934901229847002840F07D
:104A00000B820136C1E6002FACBF24F01004012751
:104A100014F40053039304F0E00337D0402B17D075
:104A200008D8DBB1202B2AD1079B1A1D079293F9D6
:104A3000002017E0602B11D0802B20D1079B07337B
:104A400023F0070303F108020792D3E900230AE0E9
:104A5000079B1A1D0792B3F9002003E0079B1A1D5C
:104A600007921A68D317002A73F1000109DA52423B
:104A700063EB4303CDE900234FF0010933E000224B
:104A80000023CDE900234FF000092CE0402B16D085
:104A900007D8CBB1202B20D1079B1A1D07921A787B
:104AA000EEE7602B10D0802B17D1079B073323F044
:104AB000070303F108020792D3E90023E1E7079B0C
:104AC0001A1D07921A88DBE7079B00211A1D07921F
:104AD0001B681846CDE90001D5E700220023CDE987
:104AE00000234FF0000904F4C053B3F5805F0CD0ED
:104AF000B3F5C05F33D0B3F5006F4FD1DDE90023CC
:104B00000DF1360ACDE9042304E0DDE900230DF1BF
:104B1000360A15E0DDE9042313433AD0DDE9040148
:104B20000A22002309F08EFCDDE9040130320AF884
:104B3000012D00230A2209F085FCCDE90401E9E7F3
:104B400052EA030125D002F0070130310AF8011DB5
:104B5000D10841EA4371D8080A460346F0E7384BCA
:104B600014F4804F0DF1360A344908BF1946DDE9C7
:104B7000002352EA03000CD002F00F00085C4FEA59
:104B8000131E0AF8010D100940EA0370024673462D
:104B9000EFE70DF1360BCAEB0B0B03E00DF1360A14
:104BA0004FF0000B41F6080241F208035F4502EAAC
:104BB00004028CBFCBEB070700279A4202D1002FDB
:104BC00008BF012741F608018A4207EB0B030DD10C
:104BD000DDE9000150EA010208D01B4914F4804FBE
:104BE0001A4A4FF0020C18BF0A4602E04FF0000CC0
:104BF00062460399A1B1B9F1000F0AD104F0060190
:104C000002290AD00629124904BF4FF0010C0A46B6
:104C100006E04FF0010C0F4A02E00F4A4FF0010C82
:104C200063449D428CBFED1A002514F0010922D186
:104C3000E30613D52F444D461DE000BF8B0F210026
:104C40009C0F2100BE0F2100B00F2100AD0F2100ED
:104C5000B50F2100B30F2100450E21004046294623
:104C6000CDF80CC00092FFF76FFD009ADDF80CC084
:104C7000002840F0D180BCF1000F0DD01146D8F8CB
:104C800000306246D8F80400CDF800C09847DDF83F
:104C900000C0002840F0C0803C465E44102CD8F88C
:104CA00000300DD9D8F804006C491022CDF800C0AE
:104CB0009847002840F0B080103CDDF800C0EDE7D8
:104CC0005CB1D8F8040065492246CDF800C0984789
:104CD000DDF800C0002840F09F80D8F80030D8F8F8
:104CE000040051465A4666449847002840F0948094
:104CF0003E44B9F1000F79D073E0079BD3F800A0D0
:104D00001A1D0792BAF1000F09D05346994699F837
:104D100000200133002AF9D1CAEB090903E0DFF8CA
:104D200040A14FF00609002F02DBB94528BFB94664
:104D30004D458CBFC9EB0505002514F0010405D1D4
:104D400040462946FFF700FD002865D1D8F800301D
:104D5000D8F8040051464A46984700285CD14E4492
:104D60003EE052EA030E0ED002F00F0E10F80EE0F5
:104D70004FEA131C01F801ED4FEA121E4EEA037EC2
:104D800072466346EDE70B467F1A01BF30220127CA
:104D900001F1FF3301F8012C03377822BD4203F8FB
:104DA000012C4FF0300203F8022C88BFED1B4FF0AE
:104DB000230298BF002514F00104A3F1030903F8AE
:104DC000032C04D140462946FFF7BEFC20BBD8F88F
:104DD0000030D8F8040049463A469847E0B93E44C6
:104DE00024B140462946FFF7AFFCA8B92E44CCE4D5
:104DF000079B012D03F104021B688CBF05F1FF35F1
:104E0000002514F0010407928DF8203008D14046A7
:104E10002946FFF799FC10B14FF0FF301AE02E44FD
:104E2000D8F80030D8F8040008A9012298470028D3
:104E3000F2D16F1C2CB140462946FFF785FC0028B3
:104E4000EAD13E44A1E4079B1A1D1B6807921E602D
:104E50009BE430460FB0BDE8F08F00BF7B0F210010
:104E6000B70F21002DE9F041284B294E1C688442E0
:104E7000284C06D0284A186000231360274A137074
:104E80003CE0356823680D44B5F5C87F35601344B0
:104E900038D32348DFF8948083FB0001214BDA6A82
:104EA0006A431E4DD31709F0B1FA2B780BB988F875
:104EB00000301D4A98F80010072B42F821001746D1
:104EC00002D801332B7003E04FF4F05000F04CFB9C
:104ED00098F800300022013303F0070388F800300F
:104EE000134629788A4204DA57F822000132034433
:104EF000F8E793FBF1F3084A136000232360336063
:104F0000BDE8F0812360BDE8F08100BF040C002003
:104F1000DC030020E4030020D8030020E823002065
:104F20000040420F882C0020E8030020E9230020E5
:104F3000F8B5324B196800295BD0314B1B68002B48
:104F400059D0304C4FF480460027E4FB0067F20B49
:104F500042EA4742CF1702FB07F0002301FB03039D
:104F6000A2FB0101284D19442B68284AC61841EBC1
:104F7000E37730460023394609F048FA23462449AE
:104F8000244A0C4602FB0066B1F900202E6082180C
:104F90004FEAC23055BF00F5F420A0F5F42000F52B
:104FA0009070A0F5907090FBF3F04343002891B20D
:104FB000BDBFA3F580424FF4004392FBF3F303F52A
:104FC0008043ACBFC3F3CF339BB2CB1A238080EABC
:104FD000E073A3EBE073B3F5807F05DD0028CCBF61
:104FE0004FF480706FF0FF000B4A136803441360A6
:104FF000F8BD0846F8BD1846F8BD00BFD80300202C
:10500000040C002040420F00E00300200040420F4B
:10501000961A002000C0BDF0E403002008B54FF64A
:10502000FF7008F025F900221448822102F04AFCA2
:1050300001F0F8F801F010F9002000F0FFFF104B2C
:10504000FF221A700F4A0023136013710E4A136077
:105050000E4A0F4932F81320D20302F5F42202F56A
:10506000907292FBF1F20B4941F8232001330C2B93
:10507000EED1BDE808400AF065B800BFCC000020C2
:10508000842C0020C82C00203C0C00208C0D21001A
:1050900040420F00882C0020F7B503880446B3F582
:1050A000347F1AD007D8002B40F0898046480C2165
:1050B0000AF0AEF80BE040F2D72293423DD040F226
:1050C0000732934239D07AE03F480AF0AAF83F4BC2
:1050D0001B684BB94FF4347323803B480AF0B3F894
:1050E0000028F1D100206DE0394B1B6853BB02F062
:1050F000CDFC4FF4A063B0FBF3F101FB1301324888
:1051000089B20AF085F840F2D72315E03B68FBB975
:105110003968002950D0A1EB910502F0B7FC2D4B66
:105120001B689B08B0FBF3F101FB1300291826480C
:105130000AF06EF840F20733238023480AF083F820
:105140000028CFD0214B234F1B68002BE0D0DDE798
:10515000214809F09FFF05460028D9D102AE06F884
:10516000020D07F08BFF29460E2007F0E1FF07F044
:105170001BFF324680210DF1070300F0EBFD061EF8
:10518000C6DDB0B207F0F4FE29462A46124800F008
:105190008DFF054618B9114809F006FFB8E7104819
:1051A00031469DF80620FFF7ABFA9DF80730EB7308
:1051B0009DF80630AB73ABE74FF4A061B7E700236F
:1051C0002380032003B0F0BDE40400202404002069
:1051D0002C04002008040020DA0F2100E20F210037
:1051E00005102100244B13B59B689847002808DA66
:1051F00007F0C8FE0146214802B0BDE81040FFF7A5
:105200007FBA0A2007F09CFF4FF6FF73984219D02F
:1052100008F0BCF9A0B10F2007F0A4FF20B10F20C7
:1052200007F0A0FFC47900E004460A2007F088FFD9
:1052300021460246124802B0BDE81040FFF760BAAE
:1052400008F0CAF90F2007F08DFF90B10F2007F08A
:1052500089FFC4790A2007F073FF214602460948F6
:10526000FFF74EFA084BDB68019302B0BDE810402F
:1052700018470446EEE700BF3C0D21002410210032
:105280003F10210064102100680D21002DE9F0433A
:10529000064685B010200F4607F064FF3A4B0446DF
:1052A0001B6883B9394B1B680BB9394800E0394892
:1052B00009F07AFE304639460422012305B0BDE8E4
:1052C000F0430BF071BC34490AF0F7FF88B9334B57
:1052D0000A201A78511C11F0FF010ABF023219701E
:1052E0001A70197807F024FF01210B2007F020FF26
:1052F00000E02B4C01210E2007F01AFF204609F098
:10530000C9FE284980460F2007F020FF264B5B6826
:105310009847B0F1000901DA2448C9E72046314630
:105320003A4600F0C3FE1D4B054680B90CB1E57945
:1053300000E02546204693F8009009F0ABFE294690
:1053400000904A4643461A48FFF7DAF9B2E780F878
:105350000E900CB1E67900E0264620461F7809F051
:1053600099FE81462868AC7B0BF058F8CDF8009088
:105370000290019431463A4643460E48FFF7C0F981
:1053800005B0BDE8F08300BF240400202004002005
:105390008A102100CA102100951B2100EA23002059
:1053A000D20F2100343B00203C0D2100F6102100DB
:1053B000231121005E1121007FB5244C0420A66A30
:1053C0000DEB0001B04708B1214828E00199E56ADA
:1053D00021F0030141F0040101910420A84708B124
:1053E0001C481CE0052002A9B04708B11A4816E085
:1053F0000299052021F001010291A84708B1174840
:105400000DE001201421A84708B1154807E00C2041
:10541000236B0DEB00010422984718B1114809F0E5
:10542000C3FD10E0FFF7FAFD00F08CFF01F094F9E6
:105430000D4804210AF002F80C48042109F0FEFF8F
:105440000B4B01221A6004B070BD00BFBC0C2100E0
:105450009D112100E4112100341221007B12210052
:10546000CB12210006132100EC2C0020EF2C002091
:105470002004002008B5044B08B11B6A00E05B6AF9
:105480009847012008BD00BFBC0C210038B50E4B69
:105490001B68BBB100F0BEFD05462C1D07F0EEFDFC
:1054A0002146102007F052FE084B094800219B6856
:1054B00098470CB1E97A00E02146BDE8384005483C
:1054C000FFF71EB938BD00BF24040020680D21007D
:1054D000E15520004F13210038B5114B1C68012CF9
:1054E0001BD1104B1D68C5B929460F481C6002F03E
:1054F000F3F929460D4802F0EFF929460C4802F06D
:10550000EBF90C4B0C4A19680C4B0D48002914BFE1
:1055100011461946FFF7F4F800E00024204638BD94
:105520002004002028040020CC000020EC000020F3
:10553000DC0000202C0400206713210073132100DD
:1055400078132100034B4FF4A0621860024B1A60DD
:10555000704700BF2C04002008040020014B187085
:10556000704700BF842C0020014B1860704700BFBB
:10557000E0040020B0F5C85F024B28BF4FF4C850CC
:1055800018607047080400202DE9F0410F4B1D689A
:10559000D5B90F4B1B68BBB10E4F3868A0B10A26B6
:1055A000B0FBF6F4041B02F071FA3A682B46B2FB2A
:1055B000F6F2B0FBF2F101FB120107482144074A61
:1055C000BDE8F04101F03EBFBDE8F0812C040020B1
:1055D00024040020E0040020300400208D5420002A
:1055E00038B508460D461146144604F0C3FD102098
:1055F00007F0B8FD20B1102007F0B4FDC17900E03C
:1056000001462A4623460348FFF77AF8BDE83840AA
:10561000FFF7BABF8E13210008B5084B1A68012A9C
:105620000AD10022064882211A6002F02DF9BDE855
:105630000840044809F0B8BC08BD00BF240400209D
:10564000DC000020AD1321002DE9F0470388BAB03B
:1056500080463BB140F21332934208D000230380CE
:10566000032091E040F21333A8F8003001E08229D2
:1056700033D0012088E0464F902606FB097603AA26
:105680003046D6F8881007F053FEC0B270B39DF8CC
:1056900024309DF81C40022B0ABFB4FA84F5002583
:1056A0006D09012C23D1902303FB0973304603F1CC
:1056B000880AB3F8881007F0F1FCBAF80410042047
:1056C00007F036FD20469AF8061007F031FD314804
:1056D00009F0D4FE6CB1FFF785FD2E4809F0DBFE22
:1056E0000FFA80F9B9F1FF3FC5D132E00546002439
:1056F000EDE7002DF1D0902303FB097701230193FF
:1057000000943046D7F8881013AA23AB00F0C2FBF0
:105710000028E2D000F07EFC01460028DDD015A86C
:1057200004310AF0CAFD0028D7D0D7F88030259977
:10573000591A04D01848FEF7E3FFFFF76DFF9DF8F4
:105740009C101F29C9D91548FEF7DAFFFFF764FF3F
:10575000C3E7134809F09FFE00B2431C82D0114BEF
:1057600053F82040206807F059FDA168627B237B35
:1057700060680BF019FA204600F020FD00F06CFD87
:10578000074809F07BFEE4E73AB0BDE8F08700BFC8
:10579000F42C0020EC2C0020C7132100F71321006B
:1057A000EF2C0020DC2C00202DE9F04F0388B7B04F
:1057B00007461BB1B3F5277F15D07AE09C4A9D4878
:1057C00001211371136009F023FDFDF7A5FA9A4B2F
:1057D00018600EE0DAF800305BB9964809F021FD58
:1057E0004FF427733B80934809F02DFD002800F00B
:1057F0009681DFF89482D8F80030002B59D1DFF879
:105800008CA2DAF80030002B53D1FDF785FADFF8CF
:105810003492064699F80030DFF81CB2874C23B169
:10582000DBF80030C31A802B1BD9854B1B88ADF8E1
:10583000303002F02BF936AB00F00100184410F8BC
:10584000A85C99F80030AB4209D0E36A29460120F0
:1058500098477C4B7C4829461D70FEF751FFCBF8DA
:105860000060236A9847E569A84730BB734B9B6982
:105870009847B8B1FDF7A6FA0E90A847E8B9FDF72A
:10588000A1FA0E9A6FF4A3739B1AC342F5D409E0F0
:10589000BDF85A10B1F57D4F48D06C484FF47D42A9
:1058A000FEF72EFFD8F80030002B93D0636A98479C
:1058B0009FE700233B80032031E1654E23697F2170
:1058C00030469847236BC6F888000EA904220C20A6
:1058D0009847D6F8881099F800205E48FEF710FF28
:1058E0000E9B002507930DF12F0300930195304681
:1058F000D6F888100FAA1FAB00F0CCFA18B956489A
:10590000D6F8881090E021AB93E803009DF88C3026
:10591000DFF870B15A1C8BF800209DF84D20444EE2
:10592000012A86E80300B3D14C48F5E0FF2B01D1F2
:105930004B48F1E02B469DF88D10DFF8549111B9DA
:10594000484A9A5A02E01FAA1A44528AD20302F520
:10595000F422454802F5907292FBF0F249F81320C8
:105960000233182BE9D19DF8C42062B9344B1B884F
:10597000ADF83430BDF834103C4B19803C4B02215B
:1059800019805A8019E0BDF8C650102D12D82A4649
:1059900032A9364809F060F84FF0FF33B3FBF5F356
:1059A0006B435B42B3FBF5F1314A158005FB1135C2
:1059B000558002E02F48294636E09DF8A6302BB9E5
:1059C0002D4809F0F1FA00F0DFFE63E000F0BEFDC3
:1059D0009DF8AA30042B25DCBDF8A8109DF8A7007F
:1059E000089300F0FBFC8446089B06221FA902FBDB
:1059F00003133A332CAD0893089B06359D4249D0DA
:105A000035F80A3C15F8061C009335F8083C60464A
:105A100001930122194BCDF824C000F0A5FDDDF85B
:105A200024C0E9E719461648FEF76AFE3AE700BFC8
:105A3000C82C002010040020F4040020BC0C21001D
:105A4000D00F2100EB23002026142100A7142100F1
:105A50005004002024162100441421006814210061
:105A6000C91421008C0D210040420F00B82C0020E9
:105A7000D02C0020EB1421001C152100D20F210096
:105A800055152100842C0020240400202C04002023
:105A9000882C00209BF800301F2B3CD811A800F068
:105AA0007BFA002837D011A800F0C8FABDF85A00D8
:105AB00007F0DEFB079BD9F808001A49181A01F015
:105AC00035FC0123C8F80030174D9DF84D302B6090
:105AD000FFF75AFD09F035FB31683379009113491E
:105AE000BDF85A200978124801919DF88D10029155
:105AF0009DF8C4100391BDF8A81004919DF8AA1058
:105B000005912968FEF7FCFD11A807F0E5F90A20C8
:105B1000FEF7ECFBC6E6074809F046FAC2E637B0E6
:105B2000BDE8F08FC82C00200C040020842C00203D
:105B3000871521000A16210040F2B32273B50388AD
:105B4000044693420AD0B3F52F7F46D0002B3CD1B8
:105B500009E0264A138040F2B32323802348FFF74D
:105B600023FE012835D9224E356845BB214B1B68E1
:105B7000002BEED04FF47D4007F07AFB1E4B1B88C4
:105B8000ADF80430BDF804201C4B1A801C4B0222D7
:105B90001A805D8000F0F8FD01233360194B1D7001
:105BA00007F060FB184D01462A792B681748FEF76D
:105BB000A7FDFDF707F9294601F0B8FBD3E701F08F
:105BC00081FB4FF42F73238005E000230380032023
:105BD0000AE0002008E0012006E0054B1B68002BCE
:105BE000F9D1FFF71BFABEE702B070BD981A00208A
:105BF000240400202C040020D00F2100B82C002009
:105C0000D02C0020842C0020C82C002061162100FC
:105C1000F0B51F461446A9B0402205460E4601A81D
:105C2000002108F0F3FF012302228DF81A304FF40F
:105C30007D438DF814208DF81C20ADF820308DF8B0
:105C40001E7034B1032301A821468DF81B300AF0E1
:105C50002FFB03238DF81D3003A84FF47D43124919
:105C6000ADF822300AF024FB01A829460AF0CDFC49
:105C7000C4B2ACB100215C2211A808F0C7FFBDF985
:105C8000B8302819ADF844302F9B311B11AA8DF87C
:105C900046300AF023FD431C03D02044C0B200E08C
:105CA000204629B0F0BD00BF343B00202DE9F3476A
:105CB0000A9F8146884692460B9E1D460BB90020DE
:105CC00040E00029FBDB1A4607F032FB02280446BD
:105CD000F5DD06B13070AB7E5345F0D1284607F0B4
:105CE000CDFA0028EBD0284600216A4607F0E2FAF8
:105CF0000028E4D0684615490AF0DFFA30B167B1F0
:105D0000384600215C2208F081FF06E06846104911
:105D10000AF0D3FA0028F2D1D1E7AB7DE4B25BB14F
:105D2000C4EB080109EB0400C9B23A460AF0CAFD07
:105D3000431CC4D00444E4B21EB13278FB7813444F
:105D40003370204602B0BDE8F08700BF343B00202E
:105D5000951B21002DE9F0417E29A8B007460E468B
:105D60001446984601DC002075E00021402201A87D
:105D700008F04CFF0123022203218DF81A308DF820
:105D80001C208DF81B208DF819308DF81D1007F0A0
:105D900069FAADF8220007F065FA3049ADF8200045
:105DA00003A80AF085FAFF2301A839468DF80430CC
:105DB0008DF805300AF029FCC5B2002DD3D00021A2
:105DC0005C2211A808F022FF11AA7819711B0AF0B1
:105DD0009BFC421C02D14FF0FF303CE02844C5B28E
:105DE00004B12570A81CC4B2B8F1000F01D088F826
:105DF00000403819311B11AA0AF0A3FC431CEAD059
:105E00002044C4B2311B381911AA0AF0FEFC411C0F
:105E1000E1D02044C4B211AA3819311B0AF019FD8F
:105E2000421CD8D02044C4B23819311B11AA0AF040
:105E3000A1FC431CCFD02044C5F57F43C4B2FE3340
:105E400023447819711B11AAADF848300AF068FC98
:105E50000130C0D0204628B0BDE8F081343B00209E
:105E600030B505460C4699B0084903AB03C983E831
:105E70000300074BA8181B78A11A01AA8DF814304B
:105E80000AF05FFC012019B030BD00BFC82C002013
:105E9000842C00202DE9F7430A9E814688461F4640
:105EA0001446002A4DD000294DDB07F041FA054683
:105EB00018B9274809F078F841E0217E227C0129B1
:105EC00000D9D2B199F8010099F80030009021482A
:105ED000FEF716FCE18B2048FEF712FC04F10800E7
:105EE00006F0FAFFA18B1D48FEF70AFC204606F0DB
:105EF000F3FF0A20FEF7FAF925E006B13070EDB2A3
:105F000037B1384600215C2208F080FEFF233B7445
:105F1000A37D7BB1C5EB080109EB0500C9B23A4688
:105F20000AF0D0FC431C03D10D4809F03DF80AE00B
:105F30002844C5B21EB13278FB781344337028462A
:105F400002E0104600E0002003B0BDE8F08300BF8F
:105F5000E216210009172100661721008C17210085
:105F60009617210038B5054600F092FE08B10020D2
:105F700038BD084809F0A1F904460028F7D0201DD3
:105F800029460AF09AF918B9204609F0D3F9F3E73F
:105F9000204638BD3805002038B50546FFF7E2FF3A
:105FA000044668BB00F07AFE50B3164809F0D5F9F4
:105FB000044618B32822002108F028FE04F124002A
:105FC000042109F03BFA201D29460AF071F9284600
:105FD0000D490AF072F938B928460C490AF06DF9F2
:105FE000003018BF012000E001200023E3730123EB
:105FF0002073A3730648214609F07DF900F072FE74
:10600000204638BD08010020DA0F2100D20F210000
:106010003805002008B500F03BFE08B1002008BD9F
:10602000054809F04AF90028F8D0437B13B909F074
:1060300081F9F8E708BD00BF3805002070B50446B7
:1060400000F026FE08B1002070BD164B1E68002E21
:10605000F9D1FFF7DFFF05462CB12046FFF79CFF83
:10606000044608B9EFE73446AC4215D00DB1E97AE1
:1060700000E0294604B1E67A0B483246FEF740FBC1
:1060800064B1012363734FF42060FFF76DFAFFF7EB
:106090007BFA0DB100236B73012070BD2046FFF722
:1060A00063FAF6E72C040020BB1721002DE9F04F1E
:1060B00085B004468B46039200F0EAFDDFF8C48009
:1060C000064628B14FF0000A4FF6FF75544638E0F7
:1060D0002046FFF761FF04460028F3D000F12409B1
:1060E000484609F0BFF985B22FB27B1C28D0224860
:1060F00009F033F9824620B307F058F8CAF80000D7
:10610000C8B1039B032204EB8704CAF808308AF85D
:106110000D20CAF804B08AF80C604846C4F814A0F0
:1061200009F092F9154839465246FEF7E9FAC8F8DF
:10613000006050461CE051460F4809F022F900E08B
:10614000B24600F0A5FD2DB20146BAF1000F02D013
:10615000DAF8002000E0524601922B46CDF800A06C
:1061600007482246FEF7CCFA0123C8F80030002089
:1061700005B0BDE8F08F00BFFC000020DF17210054
:10618000141821003C05002038B5044600F080FDBD
:1061900008B1002038BD002CFBD004F1240009F028
:1061A0006DF905B26B1CF4D0294604EB8504024856
:1061B000FEF7A6FA606938BD4418210010B5044600
:1061C00040B1006807F014F82146BDE810400248CD
:1061D00009F0D7B810BD00BFFC00002038B5054657
:1061E000284608F068FFB8B92846FFF7CDFF0446F7
:1061F00068B104234373094808F0D6FE6068A168BB
:10620000627B237B0AF0D0FC2046FFF7D7FF2146B4
:106210000348FEF775FAE3E738BD00BF71182100A7
:106220008E18210038B500F033FD88B9094809F00F
:1062300044F8044664B1204609F07CF8054620463F
:10624000FFF7CCFF0023E3730123A3732C46F1E790
:1062500038BD00BF3805002038B500F019FD10BB6F
:10626000114809F02AF80446ECB1204609F062F81A
:10627000A3890546ABB9637C9BB9204608F01BFF98
:1062800078B100F00BFD60B12146074809F01FF816
:1062900000F028FD2046FFF7A1FF0448214609F041
:1062A00070F82C46E0E738BD3805002008010020D2
:1062B00070B505460E4600F0EBFC08B1002070BD3D
:1062C0000B4808F0FAFF04460028F7D0237B4BB9AF
:1062D000637C3BB92046314608F0FDFE10B12DB17C
:1062E0002C6070BD204609F025F8ECE770BD00BFBA
:1062F0003805002070B5054600F0CAFCE0B9284614
:106300000E4909F0DAFF06460D4808F0D6FF0446AC
:1063100090B1E37B63B1637C23B94EB1E37B013B76
:10632000E37305E02846211D09F0C7FF0028F5D1D9
:10633000204608F0FFFFEAE770BD00BFD20F210042
:106340003805002008B50A4808F0B4FF094808F0ED
:10635000F4FF094808F0F1FF0848FFF71DFE084B5D
:1063600018600848FFF718FE074B186008BD00BF0B
:106370003805002008010020FC000020DA0F210071
:10638000D82C0020D20F2100D42C002008B5074BB8
:106390001B68012B08D1084609F0C9F909F012F968
:1063A000BDE80840FFF74ABE08BD00BF2404002036
:1063B00010B5044600F06CFC08B1002010BD064882
:1063C00008F07BFF0028F8D08388A34202D008F0B1
:1063D000B1FFF7E710BD00BF10080020F8B5064672
:1063E0000D4609B90020F8BDFFF7E2FF0746002877
:1063F000F8D100F053FC0028F4D0124808F0ADFFAB
:106400000446A8B14FF0FF33B3FBF5F36B435B4297
:10641000B3FBF5F205FB12338680C58003810C3097
:106420002061E76008F046FF0748214608F063FF57
:1064300031462A460548FEF763F900F053FC204632
:10644000F8BD00BF1401002010080020B71821007B
:106450007FB50C46064600283ED000293ED0CA89AA
:1064600083889A423CD100F019FC054600282FD0C1
:1064700002A8A11D257D09F01BFF1B4B608A1A682D
:10648000B188944204BF00221A600090607B227D94
:10649000238A01901548FEF733F93069214608F048
:1064A00016FF2146124808F06CFF00F01BFCEA07BB
:1064B0000CD502A8FFF770FD40B1437C013B43744B
:1064C0006B075EBF837C03F1FF338374012508E013
:1064D000084808F069FD04E0054602E00D4600E0CA
:1064E0000025284604B070BD3C0C0020DB182100BC
:1064F000200100200619210010B5044608B900202B
:1065000010BD206908F0D9FE014618B12046FFF7FA
:106510009FFFF6E700F0C2FB0028F0D0E288A188D8
:106520000748FEF7EDF82146064808F02AFF06481E
:10653000214608F0CCFE00F0D5FB012010BD00BFC5
:1065400040192100140100201008002008B505485A
:1065500008F0B3FE20B1FFF7CFFF0028F7D100E02D
:10656000012008BD100800202DE9F04F85B08A46B3
:1065700091461D46BDF83870BDF83CB0064600286F
:1065800050D0394608F02CFE00F088FB044618B9BC
:10659000274808F009FD46E0264808F0DEFE0446DC
:1065A00028B9254808F000FD00F09CFB3BE030696D
:1065B000214608F0A0FE214A84F814A0136884F84C
:1065C0001590A380591CB38804F10608E3810023C9
:1065D000A3611B4B1160002D08BF1D464046294694
:1065E0002782A4F812B009F063FEB1888DE8800814
:1065F000EB795246029313484B46FEF781F800F0C0
:1066000071FB237DDA070ED54046FFF7C5FC50B17C
:10661000437C01334374237D5B0704D4837C0133C3
:10662000837400E00446204605B0BDE8F08F00BF4B
:1066300067192100200100209E192100940B0020E1
:10664000951B2100C91921002DE9F74F074601913B
:10665000914600F01DFB0446002857D13D4808F044
:106660002CFE25468246A346BAF1000F49D0BAF85F
:1066700006003A683979B2FBF0F300FB1323BAF84D
:1066800008209BB24A4392FBF0F100FB112292B228
:10669000134493FBF0F200FB1233DAF810001FFAF8
:1066A00083F808F00AFE38B3068A46459CBFBAF85C
:1066B0000620B618C8EB0606B6B29DB15E4513D3E8
:1066C00015D1297D027D82EA010E1EF0010F06D14F
:1066D000B0F80EC0B5F80EE0F44528D31EE0D3079D
:1066E00025D41BE02C462EE00546002400E05E4643
:1066F00008F020FEB346D6E7504608F01BFE82465F
:10670000B2E7019B23B1A3F800B001E000242546C5
:10671000B9F1000F19D0C9F8004016E0002CE7D1FC
:1067200012F0020F224614BF0446002403E054B9BD
:10673000A842DDD0024611F0020F18BF2C46002AF5
:1067400018BF1546D4E70546D2E7284603B0BDE892
:10675000F08F00BF1008002008B500F09FFA58B174
:10676000064808F0EAFD064808F0E7FD054808F08D
:10677000A1FD00F0B7FA012008BD00BF20010020F4
:10678000140100201008002007B5FFF7DFFE0321E9
:106790000020FFF723FE0023009301930F21012225
:1067A000024BFFF7E1FE03B05DF804FBD20F2100BE
:1067B0000138012882B004D8034B5B6A019302B010
:1067C000184702B0704700BFBC0C2100F7B50C465B
:1067D00016460746FCF7F6FAA51EA04235442CBF24
:1067E00000230123A5422CBF002201229A4204D19A
:1067F00085428CBF0020012000E0184650B900906F
:10680000311938460122054B01F08AF8B0FA80F0C0
:10681000400900E0002003B0F0BD00BF396D20004A
:1068200013B50446237D0020DB07019001D400202E
:106830001EE0637D013B012B05D8104B21461868F3
:10684000019008F048FC637D022B11D080B9A01D97
:10685000FFF788FB2146019008F03DFC40B9084B4A
:10686000019A1B689A42E2D101A82146FFF720FD58
:10687000019A044B1A6002B010BD00BFD82C002052
:10688000D42C0020F80B002040F233222DE9F04FE9
:10689000AA4CD3B02388064693425BD040F25222E2
:1068A000934200F0AF80002B40F0D381A44808F061
:1068B000D9FDA44B1860013000F0CB81DFF8D092F5
:1068C000D9F800300BB1186818B99F4B05221A701F
:1068D0007DE106F0BBFC9D4DD9F8003028601868BA
:1068E00009F09CFD9A4A9B4B12680146177B187071
:1068F0009948984607702868984F90F802E087F802
:1069000000E0974F3F68BA422F46964D07D1D9F81D
:106910000030C9B2DA7BFFF7A3FA286001E0012357
:106920002B602B68002B00F052818F4B386898F851
:1069300000105B689847002840F049818B4B304637
:1069400019688B4B9A680E3AFFF740FF10B140F27E
:10695000332354E0FCF736FA844F854D3A68AB6830
:106960001344C3F10C03C342F4D4DFF8E8B1DFF8F9
:10697000F8A19BF80000DAF808309847AA683B684D
:10698000DFF8C48113447B4ADFF8F49113609BF86D
:106990000020794B12051344784A88F8000093FBD5
:1069A000F2F3AA6A0120934294BFC9F80030C9F8F3
:1069B0000020FFF7FDFE98F80030002B40F0048126
:1069C000654A1278002A40F00081DAF8283004A9DC
:1069D000042098470499DAF82C3021F001010420B2
:1069E0009847AA68D9F80030396813442A690A3BE5
:1069F00030461A44FFF7EAFE20B140F252232380CA
:106A0000012030E1FCF7DEF9594E584B5C491D6816
:106A1000B2680B6888461344C3F108023369D31A7D
:106A20005B1BC342EED4504D2B6A9847AF69B84701
:106A300018B1FCF7C7F9804615E0FCF7C3F93369D4
:106A4000D8F800201A44F3691A444A4B1B681344CF
:106A5000C01A0028EADBECE7FCF7B4F9736A434498
:106A6000C01A002802DAB8470028F5D10120FFF744
:106A70009FFED5F8289004A90420C8470499EB6A22
:106A800041F00101042098472B6932A87F219847E3
:106A9000B0F100082C4D40F393802D4E336823B1A4
:106AA0005B7B1F1C18BF012700E01F462B4B414694
:106AB0001A781BAB00930DF10F03019332A80BABB7
:106AC000FFF7F4F805A900284FF0090008BF4FF0C0
:106AD0000008C84706A90120C84707A909AA0BA8AA
:106AE00006F0E8FB07A8BDF914109DF8182005F082
:106AF0000DFFB8F1000F64D0002F5FD0BDF96C30EE
:106B00001E49002B4FEAC333ABBF03F5F422A3F5B4
:106B1000F42302F59072A3F59073ACBF92FBF1F3EE
:106B200093FBF1F3174A184F10683968122B9046FF
:106B3000A0EB0101154A2DDD122330E09A1A002046
:106B4000EF2C0020FC0B0020BA240020380C002081
:106B5000F80B002026240020B8240020B9240020AF
:106B6000D82C00202C010020BC0C21000C0C002093
:106B7000882C0020280C002020A1370040420F0064
:106B8000100C0020C82C0020400C0020340C0020E9
:106B9000140C002013F1120FB8BF6FF01103136033
:106BA000324B0120187089B230681268FEF75AF92A
:106BB00098E8030087E80300FEF7E6FC002301E005
:106BC000FCD102232B7002E0042388F8003000205F
:106BD000FFF7EEFD26482749036809781A7B5973A9
:106BE0000132D2B21A73244B80461F68234B3E7B7E
:106BF0001B68B6FA86F61D7D760905F00405EDB230
:106C000071B93846FFF7C0FAB6B11DB1384608F081
:106C10007FFA11E0384608F04EFA0028F6D10BE072
:106C2000082A1AD93846FFF7AFFA2EB125B1002548
:106C3000384608F072FA4DB9114BD8F800101A68AE
:106C4000104B114843F8221008F0FEFB0F4800F0EB
:106C50005BFE00232380032005E0002EF6D0002DEC
:106C6000F4D00125E4E753B0BDE8F08F27240020DD
:106C7000140C0020BA240020F80B00203C0C00204B
:106C8000FC0B0020DC2C0020EF2C0020CC0000208E
:106C9000014B1868704700BFF00B002070B50E4B19
:106CA0001A681E460AB1002070BD0C4A0123136009
:106CB0000B4B154619681C4631B1FCF783F8236865
:106CC000002BFCD1FCF77EF83368002BEBD1024A95
:106CD000012010602B6070BDF00B0020080C00201C
:106CE000480C0020014B00221A607047F00B002076
:106CF00030B50F4D04682B880079B4FBF3F203FB29
:106D0000124294B26A88424392FBF3F003FB1022D2
:106D100092B2224492FBF3F003FB102292B2114490
:106D200091FBF3F203FB1211024B89B2585C30BDA8
:106D3000D02C0020B82C00202DE9F04F884D87B0D2
:106D40002B888046B3F57E7F40D001D843B1A1E1C6
:106D5000B3F57F7F46D040F23442934240F09A81AF
:106D6000804B1B68002B00F095817F4C2068002829
:106D700000F0DC807D4B1B68002B40F0D7807C4A04
:106D8000012111607B4A13607B4A1370FFF748FDB5
:106D90007A4B18601E46002800F067813368002B8C
:106DA00000F0728123687648997CFFF7A1FF754B4C
:106DB00001461870744B0120DB6A9847336863B151
:106DC000724B00221A804FF47E732B804046FFF7EF
:106DD0005BFD012800F2AA8022E26D4A13804FF485
:106DE0007F732B8040F20D36694F6A4CB7F800A0D4
:106DF000BB46B2452BD0BAF5627F53D0BAF1000F33
:106E000040F09180644808F02DFB644B80B21880FC
:106E100000B2421C04D1624A13680133136082E05D
:106E2000604AA36811680B445F490B605F490B60BF
:106E30005F4B902101FB00305E4B1168E2681860E7
:106E40000A3A4046FFF7C2FC08B13E80E8E1FBF792
:106E5000B9FF544AE368116891460B44C3F1080333
:106E6000C342F4D4484E336A9847D6F818A0D047A6
:106E7000002840F0D781F3699847002840F0D2817C
:106E8000D04710F0FF0F40F0CD81FBF79BFFE1688A
:106E9000A369D9F800200B441344C01A0028EFDB83
:106EA000022039E0FBF78EFF434B1A6863691344F5
:106EB0003E4AC3F10C0312689B1AC342F2D43F4B03
:106EC0001888314B9B6898470120FFF771FC3C48BC
:106ED000FFF748F80646C0B1437BB3B1284A394BA7
:106EE00014681968641A92E8030083E80300364BBB
:106EF00001211A681F4B52421A601F4B304619700D
:106F0000A1B2FDF7AFFFFEF73FFB234808F09CFA64
:106F10002E4800F0F9FC0020FFF74AFC204B1A68CD
:106F20000AB100221A600023ABF80030284B194F39
:106F30001868DFF84C9000284ED1224AD9F800306A
:106F40001268F96A9A1A4FF41943B3FBF1F16423FA
:106F50004B439A4240D91F4B1860FEF75DFB7CE023
:106F60009E1A0020240400203C0C0020080C002065
:106F7000480C0020340C002027240020140C002092
:106F8000C82C002028240020BC0C21009A1A0020C4
:106F9000A01A0020882C0020EC2C00209C1A002035
:106FA000300C00200C0C0020900C0020000C002065
:106FB000F42C0020E80B00202C0C0020940C002066
:106FC00029240020400C0020F40B0020CC000020DD
:106FD0002C040020040C00200023ADF81430A14C38
:106FE000206838B1037D03F00503052B02D106307C
:106FF000FFF780F99C4805A99C4AFFF725FB206014
:1070000010B90123ADF81430BDF81430D9F80020C0
:1070100095489A1828BF0179C9F8002024BF01318A
:1070200001719349FE6A0A68924C06FB0326924A54
:107030000023D4F800A00B6013702368304633445B
:107040002360FDF775FF23685146184420603246DF
:107050004046FFF7BBFB0028C1D0884B00221A60D6
:1070600040F2344301202B80F8E023681B7D980711
:107070003FF594AE7D4B186800283FF48FAE20603A
:10708000FFF7CEFB306089E623681B7D99073FF54B
:1070900089AE4BE700232B800320DFE0FBF792FE55
:1070A000A269E368D9F800101344A26A1A4453187D
:1070B000C01A002802DAD0470028EFD10120FFF7DC
:1070C00077FBF369DFF8F091984700283FF423AF8E
:1070D000DFF8E8A1D9F81030DAF800207F21104657
:1070E00002929847029AD9F82830C2F8880005A978
:1070F00009209847DAF800E05B4A0EF1800392E835
:10710000030083E80300DFF8B891059B7046AEF8F2
:107110008C3099F80030DEF888108EF88E30584A9E
:1071200006F006F9574B0028CDF808A01860DFF8E4
:1071300050A17CDC0020544B99F800201860BDF968
:1071400014105248039305F0E1FB029BDFF854E171
:107150001A68D2F88810CB1C039B01F103014FEA97
:1071600001511846ADBF01F5F422A1F5F423A3F5B2
:10717000907302F59072ACBF92FBFEF393FBFEF3AB
:10718000434A136003689146002B3FF4C4AE414864
:10719000414909F092F8002858D0404B3A681B68E2
:1071A000991A3F4B19609AF81330002B3FF48FAEB9
:1071B0003C4A002902FB01F2BDBF4FF40041A2F599
:1071C000804292FBF1F202F58042ACBFC2F3CF32B3
:1071D00092B22B4B12B24FF0000A9B7E7F2100929D
:1071E000CDF804A03048294AFEF712FD2F4B504538
:1071F000014618607FF76BAE736889B22A489847DA
:10720000D9F80020636940461A4439680E3AFFF7FE
:10721000DDFA00283FF446AE4FF46273ABF800305D
:1072200000201BE0FBF7CEFD214F386043E75046BE
:1072300006F024F800283FF47DAF50461349154A64
:1072400006F038F8003018BF012074E711481949DA
:1072500009F033F800283FF45BAE9EE707B0BDE8C5
:10726000F08F00BF3C0C0020C82C0020EC0B00204D
:10727000340C00200C0C002027240020480C002097
:10728000500C0020180C00204C0C00202924002059
:107290002C0C002031240020343B0020900C0020D6
:1072A000F40B002040420F0039240020940C0020F1
:1072B000000C0020951B2100BC0C2100E80B0020D5
:1072C0002824002007B513480DF10601124AFFF7E4
:1072D000BBF9124B186010B90123ADF806300D4B05
:1072E000BDF806201968511828BF1879196024BF05
:1072F000013018710A4BDB6A5A430A4B1968186847
:10730000104418600848FFF761FA0028DBD003B08A
:107310005DF804FBC82C0020EC0B00203C0C002086
:10732000882C00200C0C00201C0C0020064B074A67
:107330001860074B03C983E80300064B82E803008B
:1073400000221A60704700BF0C0C0020400C002087
:10735000C82C00203C0C0020F8B5038806461546D2
:107360002BB14A2B15D0002303800320F8BD17480A
:1073700007F0A3FF04462CB1201DA16807F048FFC9
:107380002468F8E7124B01221A704A233380012047
:10739000F8BD8829FBD10D4807F08FFF0446002C6B
:1073A000F3D0231D9D420ED10848214607F08FFFE0
:1073B000084B62691F681A60A2691D460AB1E0693C
:1073C00090472F60E1E72468E9E700BF980C0020B0
:1073D000BB240020A40C002010B5064B0024064856
:1073E0001C7007F067FF2146BDE81040034800F01D
:1073F00073BA00BFBB240020980C0020300100208D
:1074000070B50446E3610B4B049D1B786561A26176
:1074100043B1094D094B2E68201D2B6007F0F8FE83
:107420002E6000E0A1602146BDE87040044807F0EE
:1074300062BF00BFBB240020A40C0020300100204C
:10744000980C002013B5034C24680094FFF7D8FF74
:1074500002B010BDA40C002070B5094B05461B7886
:107460003BB1084C084B26680430236007F0D9FE76
:1074700026602946BDE87040044807F03CBF00BFC5
:10748000BB240020A40C002030010020980C002018
:1074900070B5094B05461B783BB1084C084B266874
:1074A0000430236007F0C6FE26602946BDE8704020
:1074B000044807F020BF00BFBB240020A40C00201C
:1074C00030010020980C002010B5084B04461B78B2
:1074D0001BB1043000F0DEF801E0C3600361214617
:1074E000BDE81040024807F0F2BE00BFBB240020F8
:1074F000980C002000230649002241F8232005496A
:1075000041F8232004495A5401330C2BF3D170471E
:10751000742F0020342F0020682F002038B50A4B2C
:1075200004461B5C094D63B1FBF74CFC084A55F857
:10753000243052F8241042F824005B1A034445F822
:10754000243055F8240038BD682F0020342F002047
:10755000742F0020014B43F820107047342F002077
:1075600010B50E4C236813B90D4A136010BDFBF71C
:10757000D3FB216891E80C001A44131A8A6842B1BF
:1075800092E812002144091A8B4228BF0B469268E8
:10759000F5E71844024B186010BD00BF9C0C00209A
:1075A000A00C0020014800F0AFB900BF400100204E
:1075B000F8B5038805462BB1592B09D00023038069
:1075C0000320F8BD1E4A136059232B800120F8BD0B
:1075D000872920D08229F7D1194F00263C68002C3A
:1075E000F2D0204607F058FE90B1E068882122468C
:1075F00000F04AF950B9E060A3680EB1B36000E052
:107600003B600023A360FFF7ABFFE5E7FFF7CAFF8E
:107610002646A468E3E70A490B680BB90B60D3E779
:10762000D868904201D19B68F7E70B609968002900
:10763000CAD0C86890420ABF89680B469960F5E7CE
:107640009C0C002010B50446FFF7ACFFE3680B4A22
:107650004BB113683BB1A34203D1094A1268DA6007
:1076600007E09B68F6E7064B1B68E360136814604D
:10767000A360BDE81040FFF773BF00BF9C0C002063
:10768000A40C0020024B1868003018BF012070477E
:107690009C0C002010B50B4A04461368984206D192
:1076A0008368136008E09A68A24203D01346002B57
:1076B000F9D103E0A2689A60FFF752FF0023A360AC
:1076C000E36010BD9C0C002038B5836804460D466D
:1076D0009BB10A4804600220A07304F10C00984793
:1076E0000238012801D9832D05D120462146BDE865
:1076F000384000F005B80123A37338BDA40C002066
:107700002DE9F8431C4A0446156889462B469046E5
:107710001A4E3768A34204D00BB11B68FAE7BDE8E4
:10772000F88334B3A37BABB10023A37345B1AC4260
:1077300004D028468721224607F08DFD2D68F5E705
:10774000A3683BB14C4505D0346004F10C008321A3
:107750002A469847D8F800309C4203D12268064B4D
:1077600005E0134623B11A68A242FAD122681A60D2
:107770003760BDE8F88300BFA80C0020A40C0020EF
:1077800010B5094B00221A70084B1C685CB1E37BF2
:107790003BB101230022A373E27320468221FFF74D
:1077A00093FF2468F2E710BDBE240020A80C00203F
:1077B000024B1878421C1A70704700BFBF2400208B
:1077C000064B8A221A70064A00231370054A13706A
:1077D000054A1360054A1360704700BFBF240020AC
:1077E000BC240020BD240020A80C0020A40C0020F4
:1077F0002DE9F0411A4D2B780BB1FFF7C1FF194C61
:1078000022783AB3184E0C213378184F5943781820
:1078100017F8018001334768806803F01F03013ABD
:107820003370227068B9124B1E689EB12B780BB171
:10783000FFF7A6FF304641463A4607F00CFD366892
:10784000F3E7B8F1810F04BF0123837341463A4641
:1078500007F001FD2B7820781844BDE8F08100BFC7
:10786000BE240020BD240020BC240020AC0C00203D
:10787000A80C0020024A034B10781B78184470476C
:10788000BD240020BE240020F0B50B4E3378202B01
:107890000FD00A4C0C252478094F1C4404F01F0417
:1078A0006C4301333D19A86039556A60337000207C
:1078B000F0BD0120F0BD00BFBD240020BC2400208D
:1078C000AC0C002038B5034C256807F0C4FC2560DB
:1078D00038BD00BFA40C002010B50A4609490C6849
:1078E000234683420DD00BB11B68FAE748B1046010
:1078F00008600121817383818121BDE81040FFF779
:10790000E1BF10BDA80C002038B1837B013B012BE7
:107910009FBF024A0123C37313707047BE24002027
:10792000024610B5064853600468029B11609360DC
:10793000026014B90846FBF75BFA002010BD00BFD7
:107940002C0E002010B5084C206858B1002323608D
:10795000816843689847236823B1BDE810401868E0
:10796000FBF746BA10BD00BF2C0E002010B5044630
:10797000FBF7DCF994E80C001344C01A024B984260
:107980008CBF0020012010BDFEFFFF7F38B50588A9
:107990000446672D09D0792D2ED0002D32D1FFF766
:1079A00007FF1B4B18701B4B1D601B4807F036FD73
:1079B000431C01D167231DE00A28164B07D01A6823
:1079C0007E2AF2DC511C1960144B9854EDE71968BB
:1079D00000254A1C1A60114A0D4B55542846197847
:1079E000FFF752FF0E4B852118682A46FFF74CFF20
:1079F00020B97923238009E0852907D1054B00228E
:107A00001A60D2E700230380032038BD012038BD6F
:107A1000303B0020300E0020340E00204125002095
:107A2000A40C00200D2810B5014615D00B4C23786E
:107A30002BB90B4807F0DEFC48B9012306E00A2801
:107A400005D1074807F0D6FC08B10023237005488C
:107A5000FFF75AFF012010BD002010BD4025002077
:107A6000340E00205001002008B505480549802249
:107A700007F0B9FCBDE8084003480021FFF72CBF20
:107A8000340E0020C024002050010020054A136855
:107A900043F004031360044B1B68906943EA002021
:107AA00080B2704700700D4014700D40174A136883
:107AB00023F00C031360164B01221A601A68012A86
:107AC000FCD1144B08221A60E322C3F8142203F5F8
:107AD00005731946104B1B68DB07FBD510200023EC
